:1000000002E000000000000000000000000000000E
:10001000000000000000000000000002E0030000FB
:10DFF0000000000000000000000000000000000021
:10E0000002E01E22000000000000000000000000EE
:10E01000000000000000000000000002F0B8758160
:10E020005F12FF2BE582600302E072780079007ACC
:10E03000007B007C007D00EC4D601C88828983E4BD
:10E0400093A3A882A9838A828B83F0A3AA82AB833D
:10E050001CBCFFE31D80E07582007583027CC17DDE
:10E0600000EC4D600AE4F0A31CBCFFF51D80F21229
:10E07000E00312E7CD80FE8050308153508244503F
:10E080004C834450488557445444865350445286E8
:10E0900053504441548750434F4E8854434F4E8908
:10E0A000544D4F448A544C308B544C318C5448302E
:10E0B0008D5448318E415558529050319853434FAA
:10E0C0004E9953425546A05032A24155585231A85C
:10E0D0004945A95341444452AA53505352AA53505C
:10E0E000434647B05033B1464346B6465354B7490A
:10E0F000503048B84950B9534144454EC057445434
:10E1000043C85432434F4EC954324D4F44CA524310
:10E110004150324CCB524341503248CC544C32CD1A
:10E12000544832D0505357D553504352D55350438F
:10E13000544CD843434F4ED9434D4F44DA434341A7
:10E14000504D30DB434341504D31DC434341504D52
:10E1500032DD434341504D33DE434341504D34E0C3
:10E16000414343E041E849454E31E9434CEA4343EA
:10E170004150304CEB43434150314CEC4343415010
:10E18000324CED43434150334CEE43434150344C09
:10E19000F042F749503148F8495031F94348FA43C1
:10E1A0004341503048FB434341503148FC434341D5
:10E1B000503248FD434341503348FE4343415034BD
:10E1C00048FF000088495430894945308A49543114
:10E1D0008B4945318C5452308D5446308E545231D7
:10E1E0008F5446319852499954499A5242389B5417
:10E1F00042389C52454E9D534D329E534D319F5354
:10E200004D30A8455830A9455430AA455831AB4542
:10E210005431AC4553AF4541B8505830B9505430E3
:10E22000BA505831BB505431BC5053BD505432D009
:10E2300050D14631D24F56D3525330D4525331D5A8
:10E240004630D64143D74359C843505F524C32C938
:10E25000435F5432CA545232CB4558454E32CC54A7
:10E26000434C4BCD52434C4BCE45584632CF54468F
:10E2700032AD455432DF4346DE4352DC434346343D
:10E28000DB43434633DA43434632D943434631D82E
:10E2900043434630AE4543EB45424FBE505043FBEF
:10E2A00050424FFF000045726173696E67000A5368
:10E2B000656E642066696C65206F72203C457363EF
:10E2C0003E0A000A436865636B73756D2065727260
:10E2D0006F72210A000A466C617368206572726F62
:10E2E00072210A000A446F6E652E0A005741524E91
:10E2F000494E473A206D697373696E672054696DA2
:10E30000657231206A6D700A00506F72743A205045
:10E3100038395635315244322056312E310A003CBC
:10E32000E641E646E64BE652E659E661E668E66E09
:10E33000E675E67CE684E68AE691E697E69DE66E7B
:10E340006F700A48260A6C6A6D70093A0A7272097F
:10E35000610A42610A42210A0A422A0A0A0A0A0A90
:10E360000A0A0A423F0A6A626309252C2E0A4426D9
:10E370000A6C63616C6C093A0A72726320610A4329
:10E38000610A43210A0A432A0A0A0A0A0A0A0A0AED
:10E39000433F0A6A6209252C2E0A48260A726574D0
:10E3A0000A726C09610A45230A45210A0A452A0AAC
:10E3B0000A0A0A0A0A0A0A453F0A6A6E6209252CF5
:10E3C0002E0A44260A726574690A726C6309610A2E
:10E3D00046230A46210A0A462A0A0A0A0A0A0A0A99
:10E3E0000A463F0A6A63092E0A48260A6F726C09B8
:10E3F000212C610A6F726C09212C230A47230A47DA
:10E40000210A0A472A0A0A0A0A0A0A0A0A473F0A86
:10E410006A6E63092E0A44260A616E6C09212C611A
:10E420000A616E6C09212C230A49230A49210A0A30
:10E43000492A0A0A0A0A0A0A0A0A493F0A6A7A099A
:10E440002E0A48260A78726C09212C610A78726CAF
:10E4500009212C230A4A230A4A210A0A4A2A0A0ABB
:10E460000A0A0A0A0A0A4A3F0A6A6E7A092E0A4406
:10E47000260A6F726C09632C250A6A6D7009406167
:10E480002B500A41612C230A41212C230A0A412ADC
:10E490002C230A0A0A0A0A0A0A0A413F2C230A7391
:10E4A0006A6D70092E0A48260A616E6C20632C255D
:10E4B0000A6D6F766309612C40612B70630A646991
:10E4C000760961620A41212C210A0A41212C2A0A7B
:10E4D0000A0A0A0A0A0A0A41212C3F0A41502C233F
:10E4E0000A44260A41252C630A6D6F766309612C64
:10E4F00040612B500A4B230A4B210A0A4B2A0A0A75
:10E500000A0A0A0A0A0A4B3F0A6F726C09632C2F27
:10E510002E0A48260A41632C250A42500A6D756C62
:10E520000961620A64620961350A0A412A2C210ADA
:10E530000A0A0A0A0A0A0A413F2C210A616E6C097A
:10E54000632C2F2E0A44260A63706C09250A637017
:10E550006C09630A4C612C23202E0A4C612C21206B
:10E560002E0A0A4C2A2C23202E0A0A0A0A0A0A0A10
:10E570000A4C3F2C23202E0A7075736809210A4823
:10E58000260A636C7209250A636C7209630A737741
:10E59000617009610A4D210A0A4D2A0A0A0A0A0A0B
:10E5A0000A0A0A4D3F0A706F7009210A44260A734D
:10E5B00065746209250A7365746209630A646109F6
:10E5C000610A4E21202E0A0A7863686409612C2AA8
:10E5D0000A0A0A0A0A0A0A0A4E3F2C2E0A4F612C1E
:10E5E00040500A48260A0A4F612C2A0A636C7209B5
:10E5F000610A41612C210A0A41612C2A0A0A0A0A8D
:10E600000A0A0A0A41612C3F0A4F40502C610A4411
:10E61000260A0A4F2A2C610A63706C09610A41219B
:10E620002C610A0A412A2C610A0A0A0A0A0A0A0A01
:10E63000413F2C610A003A20004072006D6F76095C
:10E6400000696E63090064656309006163616C6C55
:10E65000090061646409612C006164646309612CD0
:10E66000006F726C09612C00616A6D700900616E47
:10E670006C09612C0078726C09612C007375626200
:10E6800009612C00636A6E65090078636809612C72
:10E6900000646A6E7A09006D6F76780900647074A0
:10E6A00072008044814D448246448349844D4985AB
:10E6B00046498658874D5888465889438A558B471E
:10E6C0008C538D528E4C8F445054529050439154E1
:10E6D000925230935231945232955233965234972B
:10E6E00052359852369952379A54529B47429C421F
:10E6F00052309D4252319E4252329F425233A0428A
:10E700005243A14252A2504352A3A40000303132DE
:10E7100033343536373839414243444546000102E7
:10E72000040810204080082008003E20003C537060
:10E730006163653E3D6C696E65203C456E74657233
:10E740003E3D70616765203C4553433E3D73746FA9
:10E75000700D003A202000202020002020410020C1
:10E7600020420020535000204945004450480044B6
:10E77000504C00505357002050433D002042414E22
:10E780004B20000A0A434D4F4E35312056322E3071
:10E790000A436F70795269676874202863292032B0
:10E7A0003030352D32303133204A65737573204354
:10E7B000616C76696E6F2D46726167610A005768F9
:10E7C00061743F0A008582FF2285FF822202F9BC24
:10E7D0002275A800C28E740F55894420F58943879D
:10E7E00080758DFFD28E7598527582002210980226
:10E7F00080FB8599822210990280FB75990D1099F2
:10E800000280FB75990A22AA82AB8374202B5001E7
:10E810002275B1007902E559121FF075B10122AAE3
:10E8200082AB8374202B500302E83675B10079085F
:10E83000121FF075B101C3EA9480EB940050367555
:10E84000590290000012E8077559E090000112E8A3
:10E850000775590090000212E80775590290001BD5
:10E8600012E8077559E090001C12E80775590390EB
:10E87000001D02E80722900296E4F0900299F090C1
:10E88000E2A675F08012F1867A007B0074202B409E
:10E890002AEA7005EB54076002800810990280FB99
:10E8A00075992E8A828B83C002C00312E81FD003A1
:10E8B000D00274802AFAE43BFB80D190E2AE75F07E
:10E8C0008012F186C200C201C20212E7EDAA82BA2A
:10E8D0001B0302EA04BA3AF212F33AAB82C0031203
:10E8E000F33AAC82D003EC2BFE8C057C00C003C055
:10E8F00004C005C00612F33AAA82D006D005D0049F
:10E90000EA2EFE8A077800EF2CFCE83DFDC004C02B
:10E9100005C00612F33AAF82D006D005D004D0036A
:10E92000EF2EFE7800EB2CFBE83DF8C3EC9BED9856
:10E93000400302E9D6C003C004C005C006C007C03A
:10E940000012F33AAA82D000D007D006D005D00436
:10E95000D003EA2EFEEF7076C374029CE49D50450E
:10E96000C3EC941BED94004007741D9CE49D50354E
:10E970008A598C828D83C002C003C004C005C006C2
:10E98000C007C00012E807D000D007D006D005D0DD
:10E9900004D003D0028C828D83E493F9B502028007
:10E9A0002DD2018029C3EC9403ED9400500EEC2489
:10E9B00096F582ED3402F583EAF080128C01E924A9
:10E9C000E52499F582E43402F583EAF0D2020CBC26
:10E9D00000010D02E92BC006C00712F33AAA82D04B
:10E9E00007D006EA2EFEEF701BEE600DD2001099E4
:10E9F0000280FB75995802E8CA10990280FB75994C
:10EA00002E02E8CA30000B90E2C375F08012F18646
:10EA1000801730010B90E2D575F08012F1868009E5
:10EA200090E2E475F08012F18630980312E7ED90E1
:10EA30000296E0FABA021B900298E0F55990DFFEC8
:10EA400012E807900297E0F55990DFFF12E80712ED
:10EA5000EABB900299E0FABA02012230020990E280
:10EA6000EC75F08002F18622AA8290DF00C00212CB
:10EA7000E81FD0027B00BB080050218B047D00748E
:10EA8000DF2DFDEB90E7C593F5598C828D83C00295
:10EA9000C00312E807D003D0020B80DA8A5990DF56
:10EAA00002C00212E807D0028A5990DF0512E80777
:10EAB00002DF047582002202DF002290DFFEE49371
:10EAC000FAA3E493FB900291EAF0A3EBF02290E327
:10EAD0000975F08002F186D2BB43B78022AA82ABCF
:10EAE000080508EB2422F8EAC4540F90E70D93F6CA
:10EAF000AB080508EB2422F8740F5A90E70D93F643
:10EB00008A8212F2DB10990280FB75992022AA8278
:10EB1000AB83ACF08A828B838CF012FF0FFD601602
:10EB2000BD80005011AE080508EE2422F8A6050AA3
:10EB3000BA00E10B80DE22AA82AB83AC080508ECA8
:10EB40002422F8EBC4540FFC53040F7D00EC240D79
:10EB5000F582ED34E7F583E493F6AC080508EC2480
:10EB600022F88B0453040F7D00EC240DF582ED3464
:10EB7000E7F583E493F6AC080508EC2422F88A0450
:10EB8000EBC4CCC4540F6CCC540FCC6CCC53040FDE
:10EB90007D00EC240DF582ED34E7F583E493F6ACCB
:10EBA000080508EC2422F853020F7B00EA240DF537
:10EBB00082EB34E7F583E493F622AA82AB83750EE9
:10EBC000008A148B15E509450A7006750901E4F5FC
:10EBD0000AAD09AE0A150974FFB50902150AED4E12
:10EBE00070012285148285158312F2FC90E6367539
:10EBF000F08012F186851482851583E493FDF582F9
:10EC0000C00512F2DBD00510990280FB75992075C2
:10EC10000801752209C2047E007F007C00EF243FBA
:10EC2000F582EC34E3F583E493FA6011EDB5060266
:10EC3000800BBA0A010E0FBF00E30C80E08F028C3C
:10EC400003EA243FF582EB34E3F583E493FCBC0A4A
:10EC5000070ABA00EC0B80E9E4BD850104FC7407E7
:10EC60005D4430F51874015D4430F517E4BD900142
:10EC700004FD8A0B8B0CE50B243FF582E50C34E395
:10EC8000F583E493F516740AB5160302F070AA161C
:10EC9000C203BA41004029EA24A54024EA24BF2542
:10ECA000E0FB90E31F93CBA393FE7F808B828E8348
:10ECB0008FF0C004C00512EB0ED005D00402F06541
:10ECC000BA2102807ABA23028026BA2502806EBA5F
:10ECD000260302EF40BA2A0302F028BA2E0302EEFE
:10ECE000EBBA3A0302EFB1BA3F0302F04502F05B20
:10ECF000AB080508EB2422F876230514E4B51402CA
:10ED00000515851482851583E493F582C004C0053A
:10ED100012EADDD005D004ED700302F0650514E4BD
:10ED2000B514020515851482851583E493F582C018
:10ED300004C00512EADDD005D00402F065D203302C
:10ED400003067BC47FE180047B777FE08B0F8F100D
:10ED50007511800514E4B514020515851482851516
:10ED600083E493F50D7E00EC602420040E8514826C
:10ED7000851583A3E493FAD2048015E51424FFF5E6
:10ED800082E51534FFF583E493FAC2048002AA0DEC
:10ED9000EA2480400302EEDB850F1985101A8511E5
:10EDA0001B851982851A83851BF012FF0FFF7003E4
:10EDB00002EE51EFB50202800302EE3D850D82C0E6
:10EDC00002C004C005C00612F2DBD006D005D00494
:10EDD000D00210990280FB759920050FE4B50F024F
:10EDE0000510850F1C85101D85111E851C82851D33
:10EDF00083851EF012FF0FFFBF80005014AB080583
:10EE000008EB2422F8A607051CE4B51CDE051D80CE
:10EE1000DA851C0F851D10851E11C3E464808EF0F9
:10EE200063F08095F0502AAB080508EB2422F876B1
:10EE30002EAB080508EB2422F8A60680140519E479
:10EE4000B51902051A85190F851A10851B1102EDD7
:10EE5000A1850F828510838511F012FF0F600302D8
:10EE6000F065C3E464808EF063F08095F050057423
:10EE7000075E4202100302801574075A4430FE53A5
:10EE800002F8750F777510E075118002ED90EC6057
:10EE90003AAB080508EB2422F8EAC4540F90E70DBA
:10EEA00093F6AB080508EB2422F8740F5A90E70D8F
:10EEB00093F6850D82C004C00512F2DBD005D004A4
:10EEC00010990280FB75992002F0658A82C004C007
:10EED0000512EADDD005D00402F0658A82C004C0C4
:10EEE0000512EADDD005D00402F065C0050514E482
:10EEF000B514020515AB14AE15851482851583E48F
:10EF000093FF3395E0FDEF2BFBED3EFE74012BF5F7
:10EF100012E43EF513851282851383C004C00512E6
:10EF2000EB37851482851583E493F58212F2DBD0EA
:10EF300005D004D00510990280FB75992002F06578
:10EF4000C005851482851583E493C4035407FBAE82
:10EF500014AF1574022EE43FFE5306F8E4FFFDEBF8
:10EF60004206ED42078E020514E4B5140205158A27
:10EF7000038B057B00851482851583E4937F002B2A
:10EF8000F512EF3DF513851282851383C004C00589
:10EF900012EB37851482851583E493F58212F2DB38
:10EFA000D005D004D00510990280FB75992002F09D
:10EFB000650514E4B514020515851482851583E4EE
:10EFC00093FBFE8E137512008B82C004C00512F2F3
:10EFD000DBD005D00410990280FB7599200514E45C
:10EFE000B514020515851482851583E493F582C056
:10EFF00004C00512F2DBD005D00410990280FB7525
:10F000009920851482851583E4937E002512F512DC
:10F01000EE3513F513851282851383C004C00512E3
:10F02000EB37D005D004803D90E63975F080C00400
:10F03000C00512EB0ED005D004AB080508EB242266
:10F04000F8A6178020AB080508EB2422F87672ABEF
:10F05000080508EB2422F8A618800AAB080508EB7F
:10F060002422F8A602050BE4B50B02050C02EC768F
:10F07000AB080508EB2422F8760AAB080508EB2458
:10F0800022F8760090002275F04012F1860514E413
:10F09000B514020515050E7417B50E02800302EBB8
:10F0A000D112F4E6AA82BA1B0122BA2005150E027B
:10F0B000EBD1750E0002EBD1C2ABC0A8C2AFC083CA
:10F0C000C082900288F0900289E5D0F090028AE533
:10F0D000F0F090028CD0E0F090028ED0E0F0900240
:10F0E0008BD0E0F0900292D0E0F0900291D0E0F06E
:10F0F000900290E581F090020075D000E8F0780170
:10F10000A3E6F008B880F99002937401F075815F6E
:10F1100012FF2B02E7CD787F90027FE0F61582D8B0
:10F12000FAE0F690028BE0F5A890028AE0F5F09004
:10F130000289E0F5D0900290E0F58190029CE060B9
:10F140000E741BC0E0E4C0E0741BC0E0E4C0E090BB
:10F150000294E0C0E0A3E0C0E090028CE0C0E09048
:10F16000028EE0C0E090029CE06009900288E0D04E
:10F1700083D08232900288E0D083D08212EAD7D244
:10F18000AFD28AD2AB32AA82AB83ACF08A828B83B5
:10F190008CF012FF0FFD6027BD80005022BD0A08D1
:10F1A00010990280FB75990D10990280FB8A828B61
:10F1B000838CF012FF0FF599A3AA82AB8380CD2236
:10F1C00010990280FB75990D7A00BA4F00500B1010
:10F1D000990280FB7599200A80F010990280FB75D6
:10F1E000990D227A009002C0E4F0C00212E7EDAB64
:10F1F00082D002BB08028012BB0A028028BB0D022B
:10F200008023BB1602804F02F294EA60DD90E7266D
:10F2100075F080C00212F186D0028A041AEC242212
:10F22000F8760080C5C00212E7F6D002EA2422F880
:10F230007600EA60209002C0EAF07C00C3EA9C40BD
:10F2400014EC24A0F582E43402F583EC2422F8E6E1
:10F25000FDF00C80E72212F1C09002C0E0FA90E7C6
:10F260002A75F080C00212F186D0027C00C3EA9CAD
:10F27000500302F1EAEC2422F8EC24A0F582E434F5
:10F2800002F583E0FDF610990280FBEC2422F8865B
:10F29000990C80D9BA1F0050138A040AEC2422F872
:10F2A000A60310990280FB8B9902F1EA1099028063
:10F2B000FB75990702F1EAAA82C00212FF2FE582CC
:10F2C000D002600674DF5AFB80028A03EB24D0FA76
:10F2D00024F65004EA24F9FA8A8222AA82109902BA
:10F2E00080FBEAC4540FFB90E70D93F59910990247
:10F2F00080FB740F5A90E70D93F59922AA82AB8395
:10F300008B048C82C002C00312F2DBD003D0028ACD
:10F310008202F2DBAA82AB83ACF0AD59AE5AED4E5D
:10F3200060178A828B838CF0E55B12FF43A3AA826D
:10F33000AB831DBDFFE81E80E52212E7ED12F2B798
:10F34000E582C454F0FAC00212E7ED12F2B7AB82C4
:10F35000D002EB2AF582227A007B007C00BC0200FE
:10F36000400302F3DEC002C003C00412E7EDAD8229
:10F37000D004D003D00210990280FBE4BD20010428
:10F38000FE60047F7880028D078F998D82C002C055
:10F3900003C004C005C00612FF82E582D006D00576
:10F3A000D004D003D0027019C205EE600FD206EB74
:10F3B000700C10990280FB7599788002C2068A82CF
:10F3C00022EAC454F0FE8D82C004C00612F2B7AD2A
:10F3D00082D006D004ED2EFA0C8C0302F35DD20627
:10F3E000D2058A8222AA82AB83ACF07D00ED7062E6
:10F3F000C002C003C004C00512E7F6D005D004D097
:10F4000003D00210990280FBAE438E9910990280BE
:10F41000FB75993ABE44028003BE49178A82C00236
:10F42000C003C004C00512F2DBD005D004D003D065
:10F430000280178A828B83C002C003C004C00512F9
:10F44000F2FCD005D004D003D00210990280FB75E5
:10F45000993A10990280FB7599208A828B838CF0EF
:10F4600012FF0FF582C002C003C004C00512F2DB18
:10F47000D005D004D003D00210990280FB75992EDC
:10F48000C002C003C004C00512F357AE82D005D03D
:10F4900004D003D00220050330064830050A8A82D2
:10F4A0008B838CF0EE12FF4310990280FB75990854
:10F4B00010990280FB7599088A828B838CF012FF69
:10F4C0000FFEA3AA82AB838E82C002C003C004C019
:10F4D0000512F2DBD005D004D003D0020D5305078E
:10F4E00002F3ED02E7F690E72D75F08012F1863019
:10F4F00098FD12F1C0C29885998222858247858342
:10F500004885F049754A00E54445457006754480D4
:10F51000E4F5457532007E007F00C3EE9544EF951B
:10F5200045400122EE2547FDEF3548FAAB498D8273
:10F530008A838BF012FF0FFA740F5EFB7C00706CF5
:10F5400010990280FBAC468C9910990280FB75994A
:10F550003ABC44028003BC491BAC47EE2CF582C088
:10F5600002C003C006C00712F2DBD007D006D003EA
:10F57000D002801FAC47AD48EE2CF582EF3DF583FD
:10F58000C002C003C006C00712F2FCD007D006D0EC
:10F5900003D00290E75375F080C002C003C006C0DC
:10F5A0000712F186D007D006D003D0028A82C002AB
:10F5B000C003C006C00712F2DBD007D006D003D0CC
:10F5C0000210990280FBBB07047C2D80027C208CFA
:10F5D00099EA24DF500DBA7F005008EB2422F8A6E8
:10F5E000028006EB2422F8762EBB0F4890E7577571
:10F5F000F080C006C00712F18690002275F040121C
:10F60000F18612E7F6D007D006054A7417B54A24EA
:10F61000C3EE9544EF9545501BC006C00712F4E6B3
:10F62000AA82D007D006BA1B0122BA2004154A804C
:10F6300003754A000EBE00010F02F51AC207C20888
:10F640007A00BA20005063EA2422F88682C002C001
:10F650000012FF2FE582D000D002600BEA2422F9CD
:10F6600087035303DF8006EA2422F98703A603EA0F
:10F670002422F88682C00212FF5CE582D002600676
:10F68000EA2422F87600EA2422F88603BB3D0676B7
:10F6900000D20780128603BB2E028003BB5F08EAFC
:10F6A0002422F87600D2080A80987A007B00BB20DA
:10F6B00000501FEA2422F8EB2422F98704A604EC68
:10F6C0007008EB042422F8E66005E52260010A0BCD
:10F6D00080DCBA20005009EA2422F876000A80F281
:10F6E000227A007B00E5422422F88604BC000280D6
:10F6F000418C82C002C00312FF82E582D003D00297
:10F70000602C8A04EBC454F0CCC4CC6CCC54F0CC48
:10F710006CFDE5422422F88682C004C00512F2B7CF
:10F72000AE82D005D0047F00EE2CFAEF3DFB0542FF
:10F7300080B305428A828B832212F186109902805F
:10F74000FB75993D854B8212F2DB10990280FB75A7
:10F75000992010990280FB7599202212E7F69002F9
:10F7600088E0F54B90E75B75F08012F73990028ADC
:10F77000E0F54B90E75F75F08012F739900290E06A
:10F78000F54B90E76375F08012F73990028BE0F546
:10F790004B90E76775F08012F73990028EE0FAA37C
:10F7A000E08A4B90E76B75F08012F73990028CE09D
:10F7B000FAA3E08A4B90E76F75F08012F739900258
:10F7C00089E0F54B90E77375F08012F73990E77791
:10F7D00075F08012F186900291E0FAA3E0FB8A8234
:10F7E0008B8312F2FC12E7F6900289E0C423541FC7
:10F7F000FA530203752220752352752500EAC403CB
:10F8000054F8FB7C00BC0800502B74302CF524EB22
:10F810002C2400F582E43402F583E0F54B900022BD
:10F8200075F040C002C003C00412F739D004D00301
:10F83000D0020C80D090E77C75F080C00212F18677
:10F84000D00210990280FB74302AF59902E7F61273
:10F85000F2FC02E7F6AA82AB83ACF07DFF8A828BD2
:10F86000838CF012FF0FFE6063EE248050578E05EC
:10F870000ABA00010B8A5D8B5E8C5F755C00855D4A
:10F8800082855E83855FF012FF0FFF24804017E5BD
:10F890005C2422F88606EFB5060C055DE4B55D0232
:10F8A000055E055C80D8AA5DAB5EAC5F855D828538
:10F8B0005E83855FF012FF0FFE24805008E55C2414
:10F8C00022F8E660070ABA00940B80918A828B8343
:10F8D0008CF012FF0F60038D82227582FF2290024E
:10F8E00093E4F0C20990029FE0FA700302F980905D
:10F8F000029FE0FABA012C7A00BA04005025EA2AE5
:10F900002480F582E43402F583E0FBA3E0FC90025E
:10F9100091E0FDA3E0FEEBB50506ECB50602D209C9
:10F920000A80D690029DE0FAA3E0FB900291E0FCF1
:10F93000A3E0FDEAB50406EBB50502804390029F03
:10F94000E0FABA02004015750901E4F50A90029444
:10F95000E0FAA3E0FB8A828B8312EBBA2098212085
:10F96000091E90029FE0FABA030312F75B9002911E
:10F97000E0FAA3E0FB900294EAF0A3EBF012F11698
:10F9800090029FE0FABA020040182098157509010C
:10F99000E4F50A900294E0FAA3E0FB8A828B8312DA
:10F9A000EBBAC29812F75B750901E4F50A9002916F
:10F9B000E0FAA3E0FB8A828B8302EBBA900293E029
:10F9C000FABA0102801A90E78375F08012F186126C
:10F9D000EACE9002907407F012EABB7556008003DD
:10F9E00012F8DE90E72A75F08012F186755920E44E
:10F9F000F55A755B0090002275F04012F31412F175
:10FA0000E312F63C90029DE4F0A3F090029FE4F034
:10FA100075420012F6E112F6E1858250858351129B
:10FA2000F6E1AC82AD83C004C00512F6E1858252D6
:10FA3000858353D005D00474F05550F54C85514D55
:10FA4000740F2CFEE43DFF74F05EF54E8F4FAE5008
:10FA500090E6A275F080C004C005C00612F855E516
:10FA600082D006D005D004547FF556E556FF24DC3D
:10FA7000500302FD97EF240983C0E0EF242783C0E1
:10FA8000E022CDE1FF374B669BB6CBE4FF3C3C79EF
:10FA90007F85C316E5E5E5E5E5E5E5E50F351B1BE7
:10FAA0001B1B7C5391CAFAFAFAFBFBFBFBFBFBFB2B
:10FAB000FBFCFCFCFCFCFCFCFCFCFCFCFCFCFCFC87
:10FAC000FCFCFDFDFDFDFDFDFDFA02F9E3E4F5445E
:10FAD000F54575464490020075F00012F4FB02F9FA
:10FAE000E3747F55507A002400FFEA3402FA7B0069
:10FAF0007543448F828A838BF012F3E502F9E37435
:10FB00007F55507B002400FAEB3402FB7F00C37466
:10FB1000809CE49D5008755780E4F55880048C570C
:10FB20008D5885525B85575985585A8A828B838FA9
:10FB3000F012F31402F9E3E4F544F54575464990F3
:10FB4000408075F00012F4FB02F9E3747F5550FA1F
:10FB50004302807B007F407543498A828B838FF00C
:10FB600012F3E502F9E3747F5550FA4302807B00FB
:10FB70007F40C374809CE49D5008755780E4F5581D
:10FB800080048C578D5885525B85575985585A8A01
:10FB9000828B838FF012F31402F9E3AA4CAB4D7FF2
:10FBA00000854E44854F457546588A828B838FF079
:10FBB00012F4FB02F9E3AA50AB517F007543588A57
:10FBC000828B838FF012F3E502F9E3AA50AB517FE9
:10FBD0000085525B8C598D5A8A828B838FF012F389
:10FBE0001402F9E3AA4CAB4D7F80854E44854F4506
:10FBF0007546438A828B838FF012F4FB02F9E38C03
:10FC0000098D0A85508285518312EBBA02F9E3907F
:10FC1000029FE02401F090029FE02401F0E55045AE
:10FC200051700302F9E390029DE550F0A3E551F015
:10FC3000E4F550F55190029FE02401F0E550455164
:10FC4000B40100E433FA600A900291E0FAA3E0FB09
:10FC50008004AA50AB51900294EAF0A3EBF090021A
:10FC600093E4F0740BB556047A0180027A00900296
:10FC70009CEAF012F11602F9E312F75B02F9E312C3
:10FC8000E87602F9E330071790028CEEF0A3E4F077
:10FC9000AA517B0090028EEAF0A3EBF002F9E39008
:10FCA000028EE0FAA3E08A5875570090028CE0FFBC
:10FCB000A3E0FAEF2557F582EA3558F58312F84F9D
:10FCC00002F9E330070D900291E550F0A3E551F001
:10FCD00002F9E3900291E0FAA3E0FB8A828B83129F
:10FCE000F84F02F9E3900289E0FA530218E5232A5B
:10FCF00024D0FA30070FEA2400F582E43402F583B9
:10FD0000EEF002F9E3EA2400F582E43402F583E040
:10FD1000F58212F2DB12E7F602F9E3E52424D0FAC9
:10FD2000300716EA2AFB2480F582E43402F583E5E5
:10FD300050F0A3E551F002F9E3EA2A2480F582E4C9
:10FD40003402F583E0FBA3E0FF8B828F8312F84F30
:10FD500002F9E375540074FC2554500302F9E3E5FD
:10FD60005425542480F582E43402F583E0FFA3E0B7
:10FD7000FB8F828B8312F84F055480DA755908E4A3
:10FD8000F55A755B0090028075F00012F31402F9C9
:10FD9000E312EABB02F9E390E1C475F080C004C04D
:10FDA00005C00612F855858255D006D005D00474DA
:10FDB000FFB55502801174F85555FF7407555590DD
:10FDC000E71E93F555802590E07775F080C004C05C
:10FDD00005C00612F855AF82D006D005D004300811
:10FDE0000B74075E90E71E93F5558C06BFFF030268
:10FDF000FF03E4BFD00104FC6007900289E0FA80B1
:10FE000059BFE007900288E0FA804FBFF0079002E8
:10FE10008AE0FA8045BFA80790028BE0FA803BBFDA
:10FE20008107900290E0FA8031BF820C90028CE052
:10FE3000FDA3E0FB8D028022BF830C90028EE0FBCD
:10FE4000A3E0FD8B0280138F82C004C006C007129E
:10FE5000EA68AA82D007D006D00474FFB5550474AE
:10FE6000018001E4FB700FEE6006E5554AFE800656
:10FE7000E555F4FD5AFEBFB00A740355B0FD74FC9D
:10FE80005E4DFE30075BEC6008900289EEF002F9EF
:10FE9000E3BFE008900288EEF002F9E3BFF00890BB
:10FEA000028AEEF002F9E3BFA80890028BEEF0029E
:10FEB000F9E3BF8108900290EEF002F9E3BF820BF4
:10FEC00090028CEEF0A3E4F002F9E3BF830B900202
:10FED0008EEEF0A3E4F002F9E38E8212EAB702F9A3
:10FEE000E3EB60078A8212F2DB801210990280FB3A
:10FEF000E5555A60047A3180027A308A9912E7F621
:10FF000002F9E390E7BE75F08012F18602F9E32072
:10FF1000F71430F6148883A88220F507E6A88375C5
:10FF2000830022E280F7E49322E02275820022AA75
:10FF300082BA61004009EA24854004758201227575
:10FF400082002220F71030F6118883A88220F5075E
:10FF5000F6A88375830022F280F7F022AA82BA20E5
:10FF6000028017BA0C028012BA0A02800DBA0D0282
:10FF70008008BA09028003BA0B04758201227582D7
:10FF80000022AA82BA30004005EA24C65014BA61A1
:10FF9000004005EA2499500ABA41004009EA24B910
:10FFA00040047582012275820022000000000000DA
:00000001FF
