:10000000020003758120120297E582600302006FEF
:10001000788879017A267B007C047D00EC4D601C99
:1000200088828983E493A3A882A9838A828B83F040
:10003000A3AA82AB831CBCFFE31D80E07582007520
:1000400083007C267D00EC4D600AE4F0A31CBCFF1D
:10005000F51D80F27582007583007C007D00EC4DFB
:10006000600AE4F0A31CBCFFF51D80F212018712A8
:1000700003C980FE2D2D2D204641494C3A202225D2
:100080007322206F6E2025732061742025733A251A
:10009000750A002D2D2D2052756E6E696E673A20FF
:1000A00025730A002D2D2D2053756D6D6172793ADF
:1000B0002025752F25752F25753A20257520666119
:1000C000696C6564206F6620257520746573747390
:1000D00020696E2025752063617365732E0A0041C7
:1000E0007373657274696F6E206661696C65640014
:1000F0003000433A5C536F757263655C63616C6C8E
:1001000035315C536F757263655C726567726573D8
:1001100073696F6E5C63617365735F6763635C676C
:1001200063632D746F72747572652D657865637580
:1001300074652D32303030303733312D312E63003D
:1001400052756E6E696E672074657374546F727445
:10015000757265457865637574650A0001006361B1
:100160007365735F6763635C6763632D746F727439
:100170007572652D657865637574652D3230303024
:10018000303733312D31002200000000AAF0AB835C
:10019000E582900000F0A3EBF0A3EAF0900000E00D
:1001A000FAA3E0FBA3E0FC8A828B838CF012053D6E
:1001B000FD60238D82C002C003C0041206C4D004B7
:1001C000D003D0020ABA00010B900000EAF0A3EBC2
:1001D000F0A3ECF080D1900000EAF0A3EBF0A3ECE8
:1001E000F022AA83E582900003F0A3EAF0900003D6
:1001F000E0FAA3E0FBBA0009BB00067582300206F4
:10020000C4900005E4F078117600EB30E71190001F
:1002100003C3E49AF0E49BA3F09000057401F07826
:1002200011900003E0FAA3E0FBBA0005BB000280D6
:100230004618900012740AF0E4A3F08A828B83C0FF
:1002400002C003C000120559AC82D000D003D00216
:1002500074302CF6900016740AF0E4A3F08A828BB6
:1002600083C00012064FE5828583F0D00090000322
:10027000F0A3E5F0F080AA900005E0FA600A75822C
:100280002DC0001206C4D00088027B007C408A8208
:100290008B838CF002018CD29975820022C0088574
:1002A0008108E50824FBFAE50824FBF886030886A4
:1002B000040886058B828C838DF012053DFE700349
:1002C00002035ABE25028003020343E50824FBF81B
:1002D00074012BF6E43C08F608A605E50824FBF8B3
:1002E00086030886040886058B828C838DF01205B0
:1002F0003DFBBB25028040BB73028005BB754D8072
:100300001EEA24FDF8FA86030886040886051818F4
:100310008B828C838DF0C00212018CD002802DEA7A
:1003200024FEF8FA8603088604188B828C83C002A8
:100330001201E2D0028015758225C0021206C4D0D7
:100340000280098E82C0021206C4D002E50824FB96
:10035000F806B6000208060202A7D00822AA83E522
:100360008290000CF0A3EAF0900008E0FAA3E0FB12
:100370007C80900006E0FDA3E0FE8D098E0A750BDF
:100380008090000CE0F8A3E0F97D8090000AE0C0C6
:10039000E0A3E0C0E0C002C003C004C009C00AC0BE
:1003A0000BC000C001C0057474C0E07400C0E074EC
:1003B00080C0E012029DE58124F2F581900028E0E2
:1003C0002401F0A3E03400F022120539AA82AB83A5
:1003D0007C80C002C003C0047493C0E07400C0E01D
:1003E0007480C0E012029DE58124FAF58112052D8A
:1003F00090015CE493FA740193FB900026E0FCA367
:10040000E0FD900028E0FEA3E0FFC002C003C004AE
:10041000C005C006C007C002C003C004C005C006B6
:10042000C00774A4C0E07400C0E07480C0E0120291
:100430009DE58124F1F58175A800900000229000CF
:1004400000E4F5F02202043E90000EE4F0A3F0A3D5
:10045000F0A3F090000EE0FAA3E0FBA3E0FCA3E021
:10046000FDC002C003C004C005E4C0E0C0E074A049
:10047000C0E07441C0E08A828B838CF0ED1205C627
:10048000AE82E58124FCF581D005D004D003D002F2
:10049000EE6048C002C003C004C005120445D00588
:1004A000D004D003D002E4C0E0C0E07480C0E074A7
:1004B0003FC0E08A828B838CF0ED1205F6AE82AFEE
:1004C00083A8F0F9E58124FCF58190000EEEF0A3FD
:1004D000EFF0A3E8F0A3E9F0020453E4C0E0C0E0C9
:1004E0007420C0E07441C0E08A828B838CF0ED12EE
:1004F00005C6AA82E58124FCF581EA602F900026DA
:10050000E02401F0A3E03400F090000674F0F0A3C2
:100510007400F090000874F2F0A37400F090000AE8
:100520007420F0E4A3F09000DF12035D22900140FC
:1005300075F08012018C02044890015E2220F714AD
:1005400030F6148883A88220F507E6A88375830017
:1005500022E280F7E49322E022AA83E5829000144D
:10056000F0A3EAF0900014E0FAA3E0FB33E433FCDC
:100570006009C3E49AFDE49BFE80048A058B068D26
:10058000028E03900012E0FDA3E0FE30E709C3E411
:100590009DFFE49EF880048D078E0090001BEFF015
:1005A000A3E8F08A828B83C0041206E2AA82AB839E
:1005B000D004EC600CC3E49AFCE49BFD8C828D8338
:1005C000228A828B8322FFA88118181207ADD2D10C
:1005D00033E6400730E70B7582002220E70675827C
:1005E0000122C2D112078FE97003F5822220D101C6
:1005F000B3E433F582221208747900E583B58202F0
:10060000800D50031207D8E583C395821208A2E536
:10061000D0C465D020E117EA2DFAEB3EFBEC3FFC9D
:10062000500974011208A2EC4480FC0207F2C3EAEC
:100630009DFAEB9EFBEC9FFC500FC3E499F9E49A02
:10064000FAE49BFBE49CFCB2D11208410207F2AA37
:1006500083E582900018F0A3EAF0900018E0FAA376
:10066000E0FB33E433FC6009C3E49AFDE49BFE80C5
:10067000048A058B068D028E03900016E0FDA3E030
:10068000FE33E433FF6009C3E49DF8E49EF980047F
:100690008D008E01900020E8F0A3E9F08A828B8320
:1006A000C004C0071208E5AA82AB83D007D004EFCC
:1006B0006C600CC3E49AFCE49BFD8C828D83228ADF
:1006C000828B8322E58290001AF090001AE0FABA39
:1006D0000A0810990280FB75990D10990280FB8A17
:1006E0009922AA83E58290001DF0A3EAF090001FF2
:1006F000E4F090001DE0FAA3E0FB7C0090001BE01A
:10070000FDA3E0FE235401FF7037EECD25E0CD338D
:10071000FE90001BEDF0A3EEF090001BE0FDA3E0C7
:10072000FEC3EA9DEB9E5011EEC313CD13CDFE9098
:10073000001BEDF0A3EEF080080C90001FECF080A1
:10074000BB90001FE0FA90001DE0FBA3E0FC9000CE
:100750001BE0FDA3E0FEC3EB9DEC9E400B90001D53
:10076000EBC39DF0EC9EA3F090001BE0FBA3E0C365
:1007700013CB13CBFC90001BEBF0A3ECF08A031A15
:10078000EB70C390001DE0FAA3E08A82F583227922
:1007900001AA82E68F82B5821318E6B5F00E18E63C
:1007A000B5830918E68A82B58202790022B4800FE7
:1007B000E5F0700AE5837006E58270027F00EFB60F
:1007C000801518B6001018B6000B18B600060808F9
:1007D0000876002208080822E582C583F582A2D1A6
:1007E00033A2D592D11392D5ECCFFCEBCEFBEACD60
:1007F000FA22B98003EA13B34010EA2401FAE43B79
:10080000FBE43CFC50047C800582BC000EBB000B6A
:10081000BA0008E4F5F0F583F58222A2D1E582134F
:100820008CF092F78B838A8222E4F583F58275F04F
:1008300080F4A2D11322E4F583F58275F0C0747FB1
:10084000227804EC7011E58224F8500AF582E4C99C
:10085000CACBFCD8EF22EC7820058220E713D582A2
:100860000122C3E933F9EA33FAEB33FBEC33FCD86A
:10087000EA158222AA82AB83A2F73392D16002D218
:10088000F7F582ACF0E58124F9F8E6FD08E6FE080C
:1008900086F008E6A2F73392D56002D2F7F583AF6F
:1008A000F0226040F82582500274FFF582E824F8B7
:1008B000501ECCCBCAF9E4CC24F85014CBCAF9E4CE
:1008C000CB24F8500BCAF9E4CA24F850037900226B
:1008D00024086010F8C3EC13FCEB13FBEA13FAE9ED
:1008E00013F9D8F122AA83E582900022F0A3EAF05E
:1008F000900024E4F0A3F0900020E0FAA3E0FB7C59
:1009000010900022E0FDA3E0FE339200EECD25E042
:10091000CD33FE900022EDF0A3EEF0900024E0FD38
:10092000A3E0CD25E0CD33FE900024EDF0A3EEF062
:10093000300012900024E0FDA3E0FE90002474013A
:100940004DF0A3EEF0900024E0FDA3E0FEC3ED9A8D
:10095000EE9B401D900024EDC39AF0EE9BA3F09017
:100960000022E0FDA3E0FE90002274014DF0A3EE12
:10097000F0DC8E900022E0FAA3E08A82F583220068
:00000001FF
