:1000000002000375817B12227BE5826003020054AB
:10001000758200758300758400758500780079000D
:10002000E8496012E475860093A3758601F0A31871
:10003000B8FFED1980EA7586007582007583007C33
:10004000807D01EC4D600AE4F0A31CBCFFF51D802F
:10005000F21220B81217B180FE75CBFF75CAFD757C
:10006000C83475985222AA82BA0A0810990280FBF5
:1000700075990D10990280FB8A992210980280FBD5
:100080008599822280FEC015E581F5152413F5813E
:10009000AA82AB83ACF0E51524F6F8E608460846DC
:1000A000084670030206C3E51524FCF8E51524FA9A
:1000B000F986F0E7B5F00A0886F009E7B5F00280A6
:1000C0000302019F74102AFDE43BFE8C078D828E93
:1000D000838FF01220C1FAA31220C1FBA31220C10A
:1000E000FCE51524FCF8865908865A900014C002D5
:1000F000C003C0041221E4AD82AE83D004D003D08B
:1001000002ED2AFDEE3BFE8C0774042DFAE43EFB63
:100110008F048A828B838CF0E5152406F81220C1A7
:10012000F6A31220C108F6A31220C108F6A31220DC
:10013000C108F6C002C003C004E51524F6F8E6C005
:10014000E008E6C0E008E6C0E008E6C0E0E5152407
:1001500006F886820886830886F008E612227FC8A1
:10016000E5152406C8A68208A68308A6F008F6E5C9
:100170008124FCF581D004D003D0028A828B838C49
:10018000F0E5152406F8E6122440A308E612244000
:10019000A308E6122440A308E61224400206C3E5A1
:1001A000152403F8E4F608F674102AFAE43BFBE59C
:1001B0001524FCF8865908865A900014C002C00322
:1001C000C0041221E4C8E5152406C8A68208A68347
:1001D000D004D003D002A81508E4F608F68A828B72
:1001E000838CF01220C1FEA31220C1FDA31220C1F6
:1001F000FFE5152406F8E515240DF9E62EF708E6C7
:100200003D09F709A707C002C003C004E515240D86
:10021000F8741226FAE40836FB0886048A828B8377
:100220008CF01220C1FDA31220C1FEA81508C3E660
:100230009D08E664808EF063F08095F0D004D003D2
:10024000D0024003020399C002C003C004E5152494
:100250000DF8740F26FAE40836FB0886048A828BB0
:10026000838CF01220C1FDA31220C1FEA31220C175
:10027000FFA81508860208E6CA25E0CA33FBEA2D66
:10028000FAEB3EFB8F048A828B838CF01220C1FA3A
:10029000A31220C1FBE51524FAF8E6B5020708E62B
:1002A000B503028009D004D003D00202037FD0043A
:1002B000D003D002E515240DF8740C26FDE40836B1
:1002C000FE0886078D828E838FF01220C1FAA3125A
:1002D00020C1FBA31220C1FCE5152403F886050804
:1002E000E6CD25E0CD33CD25E0CD33FEED2AFAEE87
:1002F0003BFB8A828B838CF0E5152410F81220C119
:10030000F6A31220C108F6A31220C108F6A31220FA
:10031000C108F6C002C003C004E51524F6F8E6C023
:10032000E008E6C0E008E6C0E008E6C0E0E5152425
:1003300010F886820886830886F008E612227FC8B5
:10034000E5152410C8A68208A68308A6F008F6E5DD
:100350008124FCF581D004D003D0028A828B838C67
:10036000F0E5152410F8E6122440A308E612244014
:10037000A308E6122440A308E61224400206C3A8FC
:10038000150806B600020806A81508E5152403F9A5
:10039000E6F70809E6F70201DDE515240DF8E51595
:1003A0002410F9740C26F7E4083609F70809E6F773
:1003B000E5152410F886820886830886F0E5152462
:1003C0000DF91220C1F7A31220C109F7A31220C111
:1003D00009F70DBD00010E8D0AEEC50A25E0C50A1C
:1003E00033C50A25E0C50A33F50BE515240DF8865B
:1003F000820886830886F0C002C003C0041224F974
:10040000AD82AE83D004D003D0027F00E515241066
:10041000F886820886830886F0ED122440A3EE1247
:100420002440A3EF1224408A828B838CF01220C1D7
:10043000FDA31220C1FEA31220C1FFE5152406F87A
:10044000E62DFD08E63EFE740C2DFDE43EFE8D8299
:100450008E838FF01220C1FDA31220C1FEA31220B3
:10046000C1FFBD0027BE0024BF0021C002C003C0E1
:100470000474F6C0E0741EC0E07480C0E01222ED87
:10048000158115811581D004D003D0028A828B8317
:100490008CF01220C1FDA31220C1FEA31220C1FFC7
:1004A000E5152406F8E62DFD08E63EFEE515240DCB
:1004B000F8740F2DF6E43E08F608A607E515240D9E
:1004C000F886820886830886F0E515240AF912204A
:1004D000C1F7A31220C109F7A31220C109F77412B2
:1004E0002DFDE43EFE8D828E838FF01220C1FDA390
:1004F0001220C1FE0DBD00010E8D0AEEC50A25E0D9
:10050000C50A33F50BE515240AF8868208868308A8
:1005100086F0C002C003C0041224F9AD82AE83D0BD
:1005200004D003D0027F00E515240DF886820886EA
:10053000830886F0ED122440A3EE122440A3EF12AC
:1005400024408A828B838CF01220C1FDA31220C12B
:10055000FEA31220C1FFE5152406F8E62DFD08E6EE
:100560003EFE740F2DFDE43EFE8D828E838FF012D1
:1005700020C1FDA31220C1FEA31220C1FFBD002790
:10058000BE0024BF0021C002C003C0047421C0E02B
:10059000741FC0E07480C0E01222ED158115811532
:1005A00081D004D003D0028A828B838CF01220C1C8
:1005B000FAA31220C1FBA31220C1FCE5152406F802
:1005C000E62AFA08E63BFB740C2AFDE43BFE8C07A6
:1005D0008D828E838FF0E5152410F81220C1F6A3CA
:1005E0001220C108F6A31220C108F6E515240DF863
:1005F00074122AF6E43B08F608A604E515240DF863
:1006000086820886830886F0E515240AF91220C13F
:10061000F7A31220C109F7E515240AF8860708E6B2
:10062000CF25E0CF33CF25E0CF33FDE5152410F8FB
:10063000EF26FFED0836FD0886068F828D838EF04B
:10064000E51524F6F8E6122440A308E6122440A398
:1006500008E6122440A308E6122440740F2AFAE4A4
:100660003BFB8A828B838CF01220C1FAA31220C13B
:10067000FBA31220C1FCE515240AF8860508E6CD87
:1006800025E0CD33FEED2AFAEE3BFB8A828B838C8C
:10069000F0E51524FAF8E6122440A308E6122440F7
:1006A000E515240AF8740126FAE40836FBE515245A
:1006B0000DF886820886830886F0EA122440A3EBB0
:1006C000122440851581D01522C015858115C08260
:1006D000C083E5812409F581900013122367AC8261
:1006E000AD83E5152405F8A60408A605087600E5FF
:1006F000152405F8B6002308B6001F08B6001B74C1
:100700004BC0E0741FC0E07480C0E01222ED158180
:1007100015811581900001120084E5152405F874F7
:100720001026FFE40836FA088603A815088659083B
:10073000865A900014C002C003C0071221E412239D
:1007400067AC82AD83D007D003D0027E008F828A4F
:10075000838BF0EC122440A3ED122440A3EE12246C
:1007600040BC002DBD002ABE0027C002C003C00748
:10077000747EC0E0741FC0E07480C0E01222ED15EA
:100780008115811581900001120084D007D003D01B
:1007900002E5152405F886820886830886F0A915E7
:1007A00009E7122440A309E7122440E5152405F8BF
:1007B000740A26FCE40836FD0886068C828D838E3A
:1007C000F0E51524F4F8E6122440A308E6122440CC
:1007D000A308E6122440A308E6122440E5152405E8
:1007E000F8740226FCE40836FD0886068C828D83A8
:1007F0008EF0E51524FCF8E6122440A308E6122446
:1008000040E5152405F8740626FCE40836FD088644
:10081000068C828D838EF0E51524F8F8E6122440CC
:10082000A308E6122440A308E6122440A308E61217
:100830002440E5152405F8740E26FCE40836FD086E
:1008400086068C828D838EF0E4122440A3E4122469
:1008500040E5152403F8E4F608F6E5152408F8E465
:10086000F608F6E5152403F8A91509C3E69708E686
:1008700064800987F063F08095F040030209FF8FE0
:10088000828A838BF01220C1FEA31220C1FCA31226
:1008900020C1FDE5152408F8E62EFE08E63CFC74B0
:1008A0000C2EFEE43CFC8E828C838DF0E4122440FE
:1008B000A3E4122440A3E41224408F828A838BF0A5
:1008C0001220C1FCA31220C1FDA31220C1FEE51518
:1008D0002408F8E62CFC08E63DFD740F2CFCE43DF2
:1008E000FD8C828D838EF0E4122440A3E412244018
:1008F000A3E41224408F828A838BF01220C1FCA3D0
:100900001220C1FDA31220C1FEE5152408F8E62C33
:10091000FC08E63DFD74122CFCE43DFD8C828D83C9
:100920008EF0E4122440A3E41224408F828A838B49
:10093000F01220C1FCA31220C1FDA31220C1FEE5CC
:10094000152408F8E62CFC08E63DFD74082CFCE4B0
:100950003DFD8C828D838EF0E4122440A3E41224AA
:1009600040A3E4122440A3E41224408F828A838BA4
:10097000F01220C1FCA31220C1FDA31220C1FEE58C
:10098000152408F8E62CFC08E63DFD8C828D838E4C
:10099000F0E4122440A3E4122440A3E4122440A370
:1009A000E41224408F828A838BF01220C1FCA312B0
:1009B00020C1FDA31220C1FEE5152408F8E62CFC99
:1009C00008E63DFD74042CFCE43DFD8C828D838E95
:1009D000F0E4122440A3E4122440A3E4122440A330
:1009E000E4122440E5152408F8741426F6E40836C9
:1009F000F6E5152403F806B600020806020863E5CA
:100A0000152405F886820886830886F0851581D02E
:100A10001522C015E581F5152404F581AA82AB8362
:100A2000ACF074102AFDE43BFE8C07A81508E4F630
:100A300008F6E5152403F8E4F608F6C005C006C07C
:100A4000078A828B838CF01220C1FDA31220C1FE85
:100A5000A81508C3E69D08E664808EF063F08095D3
:100A6000F0D007D006D0054003020B49C002C003F6
:100A7000C0048D828E838FF01220C1FAA31220C190
:100A8000FBA31220C1FCE5152403F8E62AFA08E6C8
:100A90003BFB740C2AFAE43BFB8A828B838CF012BA
:100AA00020C1FAA31220C1FBA31220C1FC8A828BB1
:100AB000838CF0C002C003C004C005C006C007128A
:100AC0002240D007D006D005D004D003D0028D82BA
:100AD0008E838FF01220C1FAA31220C1FBA3122033
:100AE000C1FCE5152403F8E62AFA08E63BFB740F7F
:100AF0002AFAE43BFB8A828B838CF01220C1FAA392
:100B00001220C1FBA31220C1FC8A828B838CF0C00F
:100B100002C003C004C005C006C007122240D007AF
:100B2000D006D005D004D003D002E5152403F87414
:100B30001426F6E40836F6A8150806B600020806DC
:100B4000D004D003D002020A3B851581D01522C003
:100B500015858115C082C083C0F0E5812428F58108
:100B6000E5152408F87601E408F6A81508E515242B
:100B700018F9741026F7E4083609F70809E6F7A80B
:100B80001508E515240EF9740A26F7E4083609F766
:100B90000809E6F7A81508E5152411F9740626F7E3
:100BA000E4083609F70809E6F7E5152406F8E4F63F
:100BB00008F6E5152414F8E4F608F6E5152416F809
:100BC000E4F608F6A8150886820886830886F012DF
:100BD00020C1FCA31220C1FDE5152406F8C3E69C44
:100BE00008E664808DF063F08095F0400302110BFD
:100BF000E515240AF87600087600087600087600E5
:100C0000E5152404F8E4F608F6E5152418F88682BC
:100C10000886830886F0E515241BF91220C1F7A386
:100C20001220C109F7A31220C109F7E515241BF80A
:100C3000E5152414F9E726C0E009E70836C0E00806
:100C4000E6C0E0E5152420F8D0E0F618D0E0F6186C
:100C5000D0E0F6E515241EF8741226FAE40836FEF4
:100C60000886078A828E838FF01220C1FAA3122091
:100C7000C1FEE5152404F8C3E69A08E664808EF008
:100C800063F08095F04003020DDAE515241EF87438
:100C90000C26FAE40836FE0886078A828E838FF0D7
:100CA0001220C1FBA31220C1FCA31220C1FDE51537
:100CB0002404F8860208E6CA25E0CA33CA25E0CA39
:100CC00033FEEA2BFAEE3CFE8D078A828E838FF08C
:100CD000E5152421F81220C1F6A31220C108F6A3BD
:100CE0001220C108F6A31220C108F6E515241EF84B
:100CF000740F26FCE40836FD0886028C828D838AF8
:100D0000F01220C1FCA31220C1FDA31220C1FAE5FC
:100D1000152404F8860308E6CB25E0CB33FEEB2C44
:100D2000FCEE3DFD8C828D838AF01220C1F559A323
:100D30001220C1F55A9000141221E4AA82AB83E577
:100D400015241BF8EA26FAEB0836FB08860474081B
:100D50002AFAE43BFB8A828B838CF01220C1FAA32F
:100D60001220C1FBA31220C1FCA31220C1FDC002AE
:100D7000C003C004C005E5152421F88682088683D7
:100D80000886F008E6122141AA82AB83ACF0FDE5AB
:100D90008124FCF581C002C003C004C005E5152410
:100DA0000AF886820886830886F008E61224EEAAEE
:100DB00082AB83ACF0FDE58124FCF581E515240AC6
:100DC000F8A60208A60308A60408A605E51524044B
:100DD000F806B600020806020C09E515241EF8867E
:100DE000820886830886F01220C1FAA31220C1FB74
:100DF000A31220C1FCA31220C1FDC002C003C00485
:100E0000C005E515240AF886820886830886F0085E
:100E1000E612227FAA82AB83ACF0FDE58124FCF5CB
:100E200081E515240AF8A60208A60308A60408A668
:100E300005E515240EF886820886830886F0E515F8
:100E40002421F91220C1F7A31220C109F7A312200F
:100E5000C109F7A31220C109F7E515241EF874048F
:100E600026FEE40836FF0886028E828F838AF012FF
:100E700020C1FEA31220C1FFA31220C1FAA3122099
:100E8000C1FBC006C007C002C003E5152421F886D7
:100E9000820886830886F008E612267BAA82AB8346
:100EA000ACF0FDE58124FCF581C002C003C004C0A4
:100EB00005E515240AF886820886830886F008E688
:100EC000122141AA82AB83ACF0FDE58124FCF581BF
:100ED000E515240AF8A60208A60308A60408A60534
:100EE000E5152421F8E6C0E008E6C0E008E6C0E029
:100EF00008E6C0E090000075F080743F1224EEC850
:100F0000E5152421C8A68208A68308A6F008F6E500
:100F10008124FCF581E515241EF8740826FEE408FA
:100F200036FF0886028E828F838AF0E5152425F825
:100F30001220C1F6A31220C108F6A31220C108F6A0
:100F4000A31220C108F6E5152425F8E6C0E008E65E
:100F5000C0E008E6C0E008E6C0E0E5152421F88618
:100F6000820886830886F008E6122141AC82AD83B0
:100F7000AAF0FBE58124FCF581C004C005C002C0D5
:100F800003E515240AF886820886830886F008E6B9
:100F900012227FAA82AB83ACF0FDE58124FCF581AF
:100FA000E515240AF8A60208A60308A60408A60563
:100FB000E5152425F8E6C0E008E6C0E008E6C0E054
:100FC00008E6C0E0E515240AF886820886830886CC
:100FD000F008E61224EEAA82AB83ACF0FDE5812492
:100FE000FCF5818A828B838CF0ED1220BEC8E5155A
:100FF0002425C8A68208A68308A6F008F6E51524CD
:101000000AF886820886830886F008E61220BEAEBB
:1010100082AF83AAF0FBC006C007C002C003E5157B
:101020002425F886820886830886F008E612267B47
:10103000C8E5152425C8A68208A68308A6F008F6E8
:10104000E58124FCF581E5152411F8868208868364
:101050000886F01220C1FEA31220C1FFA31220C1F6
:10106000FAA31220C1FBC006C007C002C003E515E9
:101070002425F886820886830886F008E61220DD9B
:10108000AA82E58124FCF581EA6009E5152408F8C7
:10109000E4F608F6E5152418F886820886830886A3
:1010A000F01220C1FAA31220C1FBA31220C1FCE55B
:1010B000152416F8E62AFA08E63BFB74082AFAE437
:1010C0003BFB8A828B838CF0E515240AF8E6122418
:1010D00040A308E6122440A308E6122440A308E631
:1010E000122440E5152414F8741426F6E40836F6A4
:1010F000E5152416F8741426F6E40836F6E51524EA
:1011000006F806B600020806020BC4E5152408F826
:101110008682088683851581D01522C015858115A4
:10112000C082C083C0F0E5812420F581A815087431
:101130000626FDE40836FE0886078D828E838FF032
:101140001220C1FDA31220C1FEA31220C1FFA312D1
:1011500020C1FAC005C006C007C00290000075F0AB
:1011600080743F12267BAA82AB83ACF0FDE581241C
:10117000FCF5818A828B838CF0ED12273E12210DC3
:10118000AA82AB83EA24FFFCEB34FFFDE515241AA9
:10119000F874032AF6E43B08F6E5152406FEFF7A08
:1011A000007B40C006C004C005E515241AF8E6C05F
:1011B000E008E6C0E074A6C0E0741FC0E07480C020
:1011C000E0C007C002C0031224A8E58124F6F5811F
:1011D000D006A81508741026FAE40836FB08860421
:1011E000E515241CF8A606E5152404F8E4F608F62F
:1011F000E515241AF8E4F608F6A81508868208868C
:10120000830886F01220C1FDA31220C1FEE515243B
:1012100004F8C3E69D08E664808EF063F08095F0E4
:1012200040030213408A828B838CF01220C1FEA3FC
:101230001220C1FFA31220C1FDE515241AF8E62EE5
:10124000FE08E63FFF74082EFEE43FFFC002C00325
:10125000C0048E828F838DF0E515241DF81220C105
:10126000F6A31220C108F6A31220C108F6A312208B
:10127000C108F6E515241CF886037C007A40C002FC
:10128000C003C004E515241DF8E6C0E008E6C0E090
:1012900008E6C0E008E6C0E0C003C004C0021222B5
:1012A000EDE58124F9F581D004D003D002A815081A
:1012B00086820886830886F01220C1FAA31220C114
:1012C000FB1ABAFF011BE5152404F8C3E69A08E6E9
:1012D00064808BF063F08095F0D004D003D002508E
:1012E00023C002C003C00474AFC0E0741FC0E07428
:1012F00080C0E01222ED158115811581D004D00344
:10130000D0028021C002C003C00474B2C0E0741FC8
:10131000C0E07480C0E01222ED158115811581D0E6
:1013200004D003D002E515241AF8741426F6E40854
:1013300036F6E5152404F806B6000208060211F98F
:10134000851581D01522C015858115C082C083C046
:10135000F0E581240CF581A81508740E26FDE4083B
:1013600036FE0886078D828E838FF01220C1FAA385
:101370001220C1FB4A6034C005C006C007E4C0E0CB
:10138000C0E074B4C0E0741FC0E07480C0E01222FA
:10139000EDE58124FBF581A815088682088683087F
:1013A00086F012111BD007D006D005A81508E51548
:1013B000240AF9740426F7E4083609F70809E6F761
:1013C000E515240AF886820886830886F0740112DF
:1013D0002440A3E4122440A81508E5152404F97458
:1013E0000226F7E4083609F70809E6F7C005C00643
:1013F000C007E515240AF886820886830886F0125D
:1014000020C1FAA31220C1FBE5152404F886820846
:1014100086830886F01220C1FFA31220C1FDEAB521
:10142000070DEBB50509D007D006D0050215C5D0CC
:1014300007C007A8150886820886830886F0C007BB
:10144000120B4FAD82AE83D0078D028E03A8150814
:10145000E5152407F9740E26F7E4083609F708099C
:10146000E6F7E5152407F886820886830886F012D9
:1014700020C1FDA31220C14DD007D006D005605D6C
:10148000C005C006C007E515240AF88682088683D1
:101490000886F01220C1FDA31220C1FEC002C003C5
:1014A000C005C006C007C005C00674B4C0E0741F04
:1014B000C0E07480C0E01222EDE58124FBF581A834
:1014C000150886820886830886F012111BD007D083
:1014D00006D005D003D002D007D006D005EA4B7065
:1014E00003021591E5152407F8868208868308868D
:1014F000F01220C1FAA31220C1FB4A700302158B1F
:10150000E515240AF886820886830886F01220C131
:10151000FDA31220C1FEA81508740626FCE40836B7
:10152000FA0886038C828A838BF01220C1FCA312F6
:1015300020C1FAA31220C1FBA31220C1FFC005C025
:1015400006C004C002C003C00790000075F080749C
:101550003F12267BAA82AB83ACF0FFE58124FCF529
:10156000818A828B838CF0EF12273E12210DAA8292
:10157000AB83C002C00374BCC0E0741FC0E07480C1
:10158000C0E01222EDE58124F9F5819000010216F8
:1015900068E515240AF886820886830886F01220FA
:1015A000C1FAA31220C1FB0ABA00010BE515240AF7
:1015B000F886820886830886F0EA122440A3EB129C
:1015C00024400213EC8D828E838FF01220C1FDA384
:1015D0001220C1FE4D7003021665E515240AF88637
:1015E000820886830886F01220C1FAA31220C1FB6C
:1015F000A81508740626FCE40836FD0886068C82C9
:101600008D838EF01220C1FCA31220C1FDA31220F5
:10161000C1FEA31220C1FFC002C003C004C005C0A8
:1016200006C00790000075F080743F12267BAC82E4
:10163000AD83AEF0FFE58124FCF5818C828D838E35
:10164000F0EF12273E12210DAC82AD83C004C0051D
:1016500074E8C0E0741FC0E07480C0E01222EDE5C1
:101660008124F9F581900000851581D01522C015DF
:10167000E581F515240EF581AA82AB83ACF0E51562
:101680002405F874102AF6E43B08F608A604A81509
:1016900008E4F608F6E5152403F8E4F608F68A826D
:1016A0008B838CF01220C1FDA31220C1FEA8150867
:1016B000C3E69D08E664808EF063F08095F04003F9
:1016C0000217ABC002C003C004E5152405F88682EA
:1016D0000886830886F01220C1FAA31220C1FBA35A
:1016E0001220C1FCE5152403F8E62AFD08E63BFEBE
:1016F0008C07E5152408F874082DF6E43E08F60872
:10170000A6078D828E838FF0E515240BF81220C179
:10171000F6A31220C108F6A31220C108F6A31220D6
:10172000C108F674042DFBE43EFC8F028B828C838F
:101730008AF01220C1FBA31220C1FCA31220C1FA1F
:10174000A31220C1FDC003C004C002C005E51524DA
:101750000BF886820886830886F008E612267BAAA4
:1017600082AB83ACF0FDE58124FCF581E51524080E
:10177000F886820886830886F0EA122440A3EB12DA
:101780002440A3EC122440A3ED122440E5152403C9
:10179000F8741426F6E40836F6A8150806B6000212
:1017A0000806D004D003D00202169E851581D015FC
:1017B0002212005975E800E4F595F59EF5F8741FBE
:1017C000C0E07420C0E07480C0E01222ED158115E5
:1017D000811581E4C0E0C0E07480C0E0743FC0E0E7
:1017E0007495C0E074BFC0E074D6C0E07433C0E04C
:1017F0007419C0E0E4C0E09000041206C985824E6E
:1018000085834F85F050E58124F6F581E4C0E0C082
:10181000E07420C0E07441C0E0E4C0E0C0E0E4C097
:10182000E0C0E0854E82854F838550F0120086E54A
:101830008124F8F581E4C0E0C0E07480C0E074BFAA
:10184000C0E07401C0E0E4C0E0E4C0E0C0E0854E68
:1018500082854F838550F0120086E58124F8F5815A
:10186000E4C0E0C0E0C0E07440C0E07402C0E0E466
:10187000C0E0E4C0E0C0E0854E82854F838550F033
:10188000120086E58124F8F5817410254EFDE435BB
:101890004FFEAF508D828E838FF01220C1FDA312B8
:1018A00020C1FEA31220C1FF8D828E838FF0E4122F
:1018B0002440A3E4122440A374C0122440A3744023
:1018C000122440E4C0E0C0E07480C0E074BFC0E017
:1018D000E4C0E0C0E07401C0E0E4C0E0854E828571
:1018E0004F838550F0120086E58124F8F581E4C02D
:1018F000E0C0E07430C0E07441C0E07401C0E0E4D6
:10190000C0E07401C0E0E4C0E0854E82854F83856D
:1019100050F0120086E58124F8F581E4C0E0C0E0D3
:101920007480C0E074BFC0E07402C0E0E4C0E07442
:1019300001C0E0E4C0E0854E82854F838550F012FF
:101940000086E58124F8F581E4C0E0C0E07440C081
:10195000E0C0E07403C0E0E4C0E07401C0E0E4C0B3
:10196000E0854E82854F838550F0120086E5812404
:10197000F8F5817410254EFDE4354FFEAF508D8291
:101980008E838FF01220C1FDA31220C1FEA312206E
:10199000C1FF74142DFDE43EFE8D828E838FF0E432
:1019A000122440A3E4122440A374C8122440A37458
:1019B00041122440E4C0E0C0E0C0E07440C0E0E474
:1019C000C0E0C0E07402C0E0E4C0E0854E82854F14
:1019D000838550F0120086E58124F8F581E4C0E0AB
:1019E000C0E07480C0E074BFC0E07401C0E0E4C037
:1019F000E07402C0E0E4C0E0854E82854F838550EC
:101A0000F0120086E58124F8F581E4C0E0C0E074BE
:101A100020C0E07441C0E07402C0E0E4C0E07402A1
:101A2000C0E0E4C0E0854E82854F838550F012000F
:101A300086E58124F8F581E4C0E0C0E07480C0E070
:101A400074BFC0E07403C0E0E4C0E07402C0E0E42E
:101A5000C0E0854E82854F838550F0120086E58177
:101A600024F8F5817410254EFDE4354FFEAF508DFE
:101A7000828E838FF01220C1FDA31220C1FEA3121B
:101A800020C1FF74282DFDE43EFE8D828E838FF0F1
:101A9000E4122440A3E4122440A37430122440A38F
:101AA00074C1122440E4C0E0C0E07440C0E0C0E073
:101AB0007401C0E0E4C0E07403C0E0E4C0E0854E1F
:101AC00082854F838550F0120086E58124F8F581E8
:101AD000E4C0E0C0E07480C0E074BFC0E07402C045
:101AE000E0E4C0E07403C0E0E4C0E0854E82854FCE
:101AF000838550F0120086E58124F8F581E4C0E08A
:101B0000C0E0C0E07441C0E07403C0E0E4C0E07431
:101B100003C0E0E4C0E0854E82854F838550F0121B
:101B20000086E58124F8F5817410254EFDE4354FDB
:101B3000FEAF508D828E838FF01220C1FDA3122044
:101B4000C1FEA31220C1FF743C2DFDE43EFE8D8238
:101B50008E838FF0E4122440A3E4122440A3747017
:101B6000122440A37441122440740E254EFDE43526
:101B70004FFEAF508D828E838FF07401122440A3EC
:101B8000E4122440854E82854F838550F01213461F
:101B9000854E82854F838550F0120A12854E8285CC
:101BA0004F838550F0122240E4C0E0C0E074A0C032
:101BB000E0743FC0E07495C0E074BFC0E074D6C06C
:101BC000E07433C0E07419C0E0E4C0E09000031298
:101BD00006C985824E85834F85F050E58124F6F550
:101BE00081E4C0E0C0E07480C0E07440C0E0E4C0C4
:101BF000E0C0E0E4C0E0C0E0854E82854F838550C0
:101C0000F0120086E58124F8F581E4C0E0C0E074BC
:101C100040C0E0C0E07401C0E0E4C0E0E4C0E0C067
:101C2000E0854E82854F838550F0120086E5812441
:101C3000F8F5817410254EFDE4354FFEAF508D82CE
:101C40008E838FF01220C1FDA31220C1FEA31220AB
:101C5000C1FF8D828E838FF0E4122440A3E412240E
:101C600040A374C0122440A37441122440E4C0E095
:101C7000C0E07440C0E0C0E0E4C0E0C0E07401C077
:101C8000E0E4C0E0854E82854F838550F0120086E7
:101C9000E58124F8F581E4C0E0C0E07480C0E07420
:101CA00040C0E07401C0E0E4C0E07401C0E0E4C002
:101CB000E0854E82854F838550F0120086E58124B1
:101CC000F8F581E4C0E0C0E07480C0E074BFC0E01B
:101CD0007402C0E0E4C0E07401C0E0E4C0E0854EFE
:101CE00082854F838550F0120086E58124F8F581C6
:101CF0007410254EFDE4354FFEAF508D828E838FDC
:101D0000F01220C1FDA31220C1FEA31220C1FF7456
:101D1000142DFDE43EFE8D828E838FF0E41224406C
:101D2000A3E4122440A374F0122440A374411224AB
:101D300040E4C0E0C0E07480C0E074BFC0E0740163
:101D4000C0E0E4C0E07402C0E0E4C0E0854E8285FB
:101D50004F838550F0120086E58124F8F581E4C0B8
:101D6000E0C0E07480C0E07440C0E07402C0E0E411
:101D7000C0E07402C0E0E4C0E0854E82854F8385F8
:101D800050F0120086E58124F8F5817410254EFD8F
:101D9000E4354FFEAF508D828E838FF01220C1FD4F
:101DA000A31220C1FEA31220C1FF74282DF8E43E27
:101DB000F98F02888289838AF0E4122440A3E41216
:101DC0002440A374C0122440A374C1122440740898
:101DD0002DFAE43EFB8F048A828B838CF0E412247C
:101DE00040A3E4122440A37480122440A3743F1241
:101DF0002440741C2DFAE43EFB8F048A828B838C72
:101E0000F0E4122440A3E4122440A374801224407E
:101E1000A3743F12244074302DFDE43EFE8D828E6B
:101E2000838FF0E4122440A3E4122440A3748012B0
:101E30002440A3743F122440854E82854F838550F1
:101E4000F01213467406254EFAE4354FFBAC508A67
:101E5000828B838CF01220C1FAA31220C1FBA31243
:101E600020C1FCA31220C1FDC002C003C004C005F4
:101E700090000075F080743F12267BAA82AB83AC81
:101E8000F0FDE58124FCF5818A828B838CF0ED12D4
:101E9000273E12210DAA82AB837404254EFCE43543
:101EA0004FFDAE508C828D838EF01220C1FCA312A8
:101EB00020C1FDC002C003C004C0057470C0E0743E
:101EC00020C0E07480C0E01222EDE58124F9F581A4
:101ED000854E82854F838550F012111B854E828579
:101EE0004F838550F0120A12854E82854F838550AC
:101EF000F002224080014552524F523A206E6F74D8
:101F000020656E6F756768206D656D6F72792066EC
:101F10006F72202767696A272061727261792E0AC1
:101F2000004552524F523A206E6F7420656E6F75A5
:101F30006768206D656D6F727920666F7220276506
:101F400071272061727261792E0A004552524F52F8
:101F50003A206E6F7420656E6F756768206D656DD1
:101F60006F727920666F722073797374656D206F5C
:101F700066206571756174696F6E732E0A00455233
:101F8000524F523A206E6F7420656E6F75676820ED
:101F90006D656D6F727920666F7220657175617401
:101FA000696F6E2E0A00252525642E256466002C97
:101FB00020000A0078282564293D200025642D642E
:101FC0006967697420616363757261637920726502
:101FD000616368656420696E202564206974657298
:101FE0006174696F6E730A004552524F523A202550
:101FF000642D6469676974206163637572616379D4
:10200000206E6F74207265616368656420696E205C
:10201000256420697465726174696F6E730A000AC1
:102020000A47617573732D53656964656C20536F3E
:102030006C7574696F6E206F66206C696E65617275
:102040002073797374656D730A4279204A657375DC
:10205000732043616C76696E6F2D467261676120F3
:1020600028632920323030362D323031310A0A00CF
:102070000A546865207365636F6E642073797374A6
:10208000656D2077617320736F6C76656420696E6F
:1020900020256420697465726174696F6E7320779E
:1020A0006974682025642D646967697420616363BD
:1020B00075726163793A0A00E4F538F53922C2E7AE
:1020C0002220F71430F6148883A88220F507E6A8AA
:1020D0008375830022E280F7E49322E022FFA88147
:1020E000181812278ED2D133E6400730E70B7582DD
:1020F000012220E70675820022C2D1122770E97002
:1021000003F5822230D101B3E433F582221227B9DC
:10211000700AE582458345F0700122E430D112F463
:10212000700BE5F0F47006E58330E7012290800043
:1021300022700AE5F07006E58320E70122907FFF18
:1021400022122896BC0003022835EF60FA30D5022F
:10215000B2D1E583B4FF0302284BE582B4FF03024A
:10216000284B258340072482400B02283524831402
:10217000500302284BF582EA8DF0A4A8F0EA8EF015
:10218000A428F8E435F0F9EB8DF0A428E935F0F94E
:10219000E433CA8FF0A429F9EA35F0FAEBF88EF0AF
:1021A000A429F9EA35F0FAE433FBEC8DF0A429F91F
:1021B000EA35F0FAE43BFBE88FF0A42AFAEB35F0BD
:1021C000FBE433CCFD8EF0A42AFAEB35F0FBE43CC3
:1021D000FCED8FF0A42BFBEC35F0FC20E70312287C
:1021E00063022814E5828559F0A4C582C0F0855A9F
:1021F000F0A4D0F025F0C5838559F0A42583F5839C
:1022000022AA82AB83EA4B700490000022EA24FCED
:10221000FAEB34FFFBAC38AD39E4F51EF51FEC4D9D
:102220006019EAB50406EBB50502800F8C1E8D1F00
:102230008C828D83E0FCA3E0FD80E38C828D832281
:10224000AA82AB838A828B83122201AA82AB83EAA1
:102250004B6027E51E451F700B8A828B83A3A3E486
:10226000F0A3F022AC1EAD1F8A828B83E0FAA3E0BC
:10227000FB8C828D83EAF0A3EBF0227582002212A0
:1022800028967900E583B58202800D50031228C498
:10229000E583C395821228DEE5D0C465D020E1171E
:1022A000EA2DFAEB3EFBEC3FFC500974011228DEEC
:1022B000EC4480FC022814C3EA9DFAEB9EFBEC9FE1
:1022C000FC500FC3E499F9E49AFAE49BFBE49CFC0C
:1022D000B2D112286302281402006685824A8583DF
:1022E0004B85F04C85584D9022D8022D00C01585A5
:1022F0008115E51524FBF54DE51524FBF8864A0804
:10230000864B08864C9022D8122D00D015227A00D8
:102310007B00901EF4E493FC740193FDEA4B700A79
:102320000ABA00010B1CBCFF011D8A388B398538A5
:1023300082853983EC2AFAED3BFBEA24FEFAEB3482
:10234000FFFBEAF0A3EBF0853882853983E0FAA33E
:10235000E0FB8A828B83E4F0A3F0853882853983A1
:10236000A3A3E4F0A3F02285823A85833BC374FBE8
:10237000953A74FF953B5004900000227404253A6E
:10238000F53AE4353BF53BE5384539700312230E49
:10239000AC38AD398C828D83E0FEA3E0FF8E008FD8
:1023A000018C028D03E8C39AF8E99BF98C828D8336
:1023B000A3A3E0FAA3E0FBE8C39AF8E99BF9C3E81A
:1023C000953AE9953B400974042CFAE43DFB8012F0
:1023D0008E048F058C828D83E0FEA3E0FF4E70B4E7
:1023E000FAFBEA4B605574022CFEE43DFF8E828FAF
:1023F00083E0F8A3E0F948700D8E828F83E53AF010
:10240000A3E53BF08035E82CF8E93DF98C828D831B
:10241000E0FEA3E0FF88828983EEF0A3EFF08C82D8
:102420008D83E8F0A3E9F088828983A3A3E53AF0DD
:10243000A3E53BF0740428FAE439FB8A828B8322FB
:1024400020F71030F6118883A88220F507F6A883BC
:1024500075830022F280F7F022AA82AB51AC52AD14
:10246000538B828C838DF0EA1224400551E4B551E0
:102470000205522285825185835285F05385544A44
:1024800085554B85564C85574D902459122D00AAE1
:1024900082AB83AC51AD52AE538C828D838EF0E40F
:1024A0001224408A828B8322C015858115E515246C
:1024B000F8F54DE51524FBF8865108865208865339
:1024C000E51524F8F8864A08864B08864C9024596E
:1024D000122D00AA82AB83AC51AD52AE538C828DCB
:1024E000838EF0E41224408A828B83D01522A88147
:1024F0001818C6B2E7C602227F85820C85830D8537
:10250000F00E850C82850D8312220185820F858352
:1025100010E50F45107003022669C374FB950A7419
:10252000FF950B50077F0078000226767404250A79
:10253000F50AE4350BF50B850F82851083E0F9A3CE
:10254000E0FA89038A04AD0FAE10EBC39DFBEC9E4D
:10255000FCC3EB950AEC950B4016850F8285108322
:10256000A3A3E50AF0A3E50BF0AF0CA80D022676B5
:10257000E51E451F7003022606AB1EAC1FE9C39B78
:10258000F9EA9CFA851E82851F83A3A3E0FBA3E0E2
:10259000FCE9C39BF9EA9CFAC3E9950AEA950B406A
:1025A00065851E82851F83A3A3E0FAA3E0FBEA25CD
:1025B0001EFAEB351FFB851E82851F83EAF0A3EB15
:1025C000F08A048B057E00850F5985105A755B00D3
:1025D000850F82851083A3A3E0F55CA3E0F55D8CF5
:1025E000828D838EF0C002C0031232ADD003D002C0
:1025F0008A828B83A3A3E50AF0A3E50BF074042A77
:10260000FFE43BF88070E50A24FCF582E50B34FF1B
:10261000F583122367AF82A883EF4860598F028841
:10262000037C007404250FFDE43510FE8D598E5A8D
:10263000755B00850F82851083A3A3E0FDA3E0FEF8
:10264000ED24FCF55CEE34FFF55D8A828B838CF023
:10265000C007C0001233A5850C82850D83850EF05E
:10266000122240D000D007800D850A82850B83128C
:102670002367AF82A8838F8288832212289630D561
:1026800002B2D1BF0009BC000302285802284BBC8B
:102690000003022835E583B4FF0BE582B4FF030293
:1026A0002858022835E582B4FF0302284BC39583DE
:1026B0005007247F400B0228352480145003022841
:1026C0004BF582C3ED9AEE9BEF9C40111582C3EA55
:1026D00033F9EB33FAEC33FBE433FC8005E4CCCB89
:1026E000CAF9C08275F019C3E99DEA9EEB9FEC948C
:1026F00000D5F002802D400EE99DF9EA9EFAEB9F8D
:10270000FBEC9400FCC3B3E833F8E58233F582E5D3
:102710008333F583C3E933F9EA33FAEB33FBEC3364
:10272000FC80C4B3E4F938FAE43582FBE43583FC79
:10273000D082500405827C8012286302282C123338
:10274000FDAA82AB83ACF0FDC002C003C004C0058B
:10275000905BD975F0DE743E122141AA82AB83AC46
:10276000F0FDE58124FCF5818A828B838CF0ED22DB
:102770007901AA82E68F82B5821318E6B5F00E18A9
:10278000E6B5830918E68A82B58202790022B48010
:102790000FE5F0700AE5837006E58270027F00EFB6
:1027A000B6801518B6001018B6000B18B60006084B
:1027B00008087600220808082212372DC3749E9557
:1027C00082403979001228DE30D126E9F42401F55F
:1027D00082EAF43400F583EBF43400F5F0ECF434E1
:1027E00000700AE582458345F0700122E430E70F6E
:1027F00022EC20E71489828A838BF02230D10AE40C
:10280000F582F583F5F074802274FFF582F583F587
:10281000F0747F22B98003EA13B34010EA2401FA6E
:10282000E43BFBE43CFC50047C800582BC000EBB16
:10283000000BBA0008E4F5F0F583F58222A2D1E599
:1028400082138CF092F78B838A8222E4F583F582DF
:1028500075F080F4A2D11322E4F583F58275F0C0FF
:10286000747F227804EC7011E58224F8500AF58216
:10287000E4C9CACBFCD8EF22EC7820058220E7130C
:10288000D5820122C3E933F9EA33FAEB33FBEC33A7
:10289000FCD8EA158222AA82AB83A2F73392D160D8
:1028A00002D2F7F582ACF0E58124F9F8E6FD08E6FE
:1028B000FE0886F008E6A2F73392D56002D2F7F55B
:1028C00083AFF022E582C583F582A2D133A2D592EF
:1028D000D11392D5ECCFFCEBCEFBEACDFA226040CF
:1028E000F82582500274FFF582E824F8501ECCCB04
:1028F000CAF9E4CC24F85014CBCAF9E4CB24F8503C
:102900000BCAF9E4CA24F8500379002224086010A5
:10291000F8C3EC13FCEB13FBEA13FAE913F9D8F153
:1029200022AA827432C0E07429C0E0C03CC03D8A53
:1029300082220543E4B54302054422AA8274302A68
:10294000FA24C6500A74072AFA3000034302208A88
:1029500082022921E582FAC4540FF582C0021229AD
:102960003BD002740F5AF58202293BAA3EAB3FAC22
:1029700040AD41AE42754920EE2EFEED235401FFDD
:102980004206EA2AFAEB33FBEC33FCED33FDC3EEEF
:1029900095454008EEC39545FE430201D549D98AC5
:1029A0003E8B3F8C408D418E42227878E624D07554
:1029B000F00AA4FA7879E624D02AFA78778603BB5D
:1029C0002D04C3E49AFA754501C3E464808AF06378
:1029D000F08095F050297549038A0374F625494023
:1029E0001C0545E54914246CF8E549246CF9870475
:1029F000A604772E1BEBFA6004054980DE8B02EA01
:102A000030E70D786D8603786EA603786D762E0A12
:102A1000E547600AE54704FB2545F5458005300B91
:102A2000020545786C8603E4BB2D0104FB7006208B
:102A300006033007020545300403022AF13005572A
:102A4000EB600C75822DC002122921D002801C304F
:102A5000060C75822BC002122921D002800D30078E
:102A60000A758220C002122921D002786D8604BC2A
:102A70002E0C758230C002122921D0021546AC46B8
:102A80001546C3E5459C4003022B35758230C002D4
:102A9000122921D00280E7AC461546C3E5459C507B
:102AA0000C758220C002122921D00280EA786C863F
:102AB00004BC2D0C75822DC002122921D002801C6D
:102AC00030060C75822BC002122921D002800D30F5
:102AD000070A758220C002122921D002786D86046F
:102AE000BC2E52758230C002122921D002154680B8
:102AF00044EB600E75822DC002122921D0021546CA
:102B0000802030060E75822BC002122921D00215BA
:102B100046800F30070C758220C002122921D00296
:102B20001546786D8603BB2E0C758230C0021229C3
:102B300021D0021546754901C20DE549246CF8867D
:102B400003BB4503022BF2BB2E348A03C3E464802B
:102B50008BF063F08095F0500F758230C00312291E
:102B600021D0031B8B0280E48B02D20DE547703825
:102B7000200B03022BF275822E1229218074300D56
:102B8000278A03EB30E71FC3E464808547F063F0D6
:102B90008095F0500C758230C003122921D00315A6
:102BA000470B8B0280DD8B02300D0EC3E464808501
:102BB00047F063F08095F05021E549246CF88603D6
:102BC0008B82C002122921D002300D0EE549246CFF
:102BD000F88603BB2E02800215471546C3E46480C5
:102BE0008547F063F08095F04003200D050549020C
:102BF0002B3AC3E464808547F063F08095F0500A77
:102C0000758230122921154780E830040FAA461535
:102C100046EA600875822012292180F122E547707A
:102C200003300B0D74072547FAE546C39AF5468035
:102C300006E54624FAF546754900786C8602BA2BFB
:102C40000F20060C786C7620200705754901054693
:102C5000200419AA46C3E464808AF063F08095F0EA
:102C6000500A758220122921154680E7C20DE549D8
:102C7000246CF88602BA00028069BA451F3000024F
:102C80007665C3E464808547F063F08095F0500A70
:102C9000758230122921154780E8D20DC3E5499489
:102CA00002E433FA7014EA700EC3E464808547F0DE
:102CB00063F08095F04003300D16E549246CF886EA
:102CC000028A82122921E54924FD50121547800EFF
:102CD0007402B54909300B0675822E122921054967
:102CE000022C6E300419AA46C3E464808AF063F0B3
:102CF0008095F0500A758220122921154680E7221E
:102D000085823C85833DE4F543F544AA4AAB4BAC50
:102D10004C8A828B838CF01220C1FD74012AF54A03
:102D2000E43BF54B8C4CEDFA70030232A6BA250257
:102D3000800302329EC204C205C206C207C208C294
:102D400009C20AC20BC201C202C203754500754620
:102D5000007547FFAB4AAC4BAD4C8B828C838DF03A
:102D60001220C1FAA3AB82AC838B4A8C4B8D4CBA38
:102D700025078A8212292180928A06BE3000402EC1
:102D80008A06EE24C6402774FFB54713E54675F062
:102D90000AA4FEEA24D02EF54670BFD20580BBE51A
:102DA0004775F00AA4FEEA24D02EF54780ACBA2E6F
:102DB0000A74FFB547A4754700809F8A06BE61006C
:102DC000400E8A06EE248540075302DFD2008002BF
:102DD000C200BA20028075BA2303022E5BBA2A030E
:102DE000022E60BA2B02805FBA2D028055BA4202D1
:102DF000805FBA4303022EA5BA4403022FE0BA450E
:102E000003022FFABA4603022FF6BA4703022FFE37
:102E1000BA4903022FE0BA4C02803BBA4E0302309B
:102E200002BA4F03022FE7BA5003022F79BA5303B5
:102E3000022EC9BA5503022FECBA5803022FF10231
:102E4000302CD204022D5AD206022D5AD207022D5E
:102E50005AD209022D5AD20A022D5AD20B022D5AE9
:102E600074FFB5472030090BE54D14F8884D8646B0
:102E7000022D5AE54D24FEF8884D8606088607186F
:102E80008E46022D5A30090BE54D14F8884D8647C1
:102E9000022D5AE54D24FEF8884D8606088607184F
:102EA0008E47022D5A30090AE54D14F8884D8602E6
:102EB000800FE54D24FEF8884D8603088604188BA4
:102EC000028A82122921023031E54D24FDF8884D15
:102ED000860308860408860518188B3E8C3F8D40B3
:102EE0008B828C838DF012385EAB82AC838B4874FE
:102EF000FFB5470385484720041DC3E54895465064
:102F000016E546C39548F546AB461546EB60087591
:102F1000822012292180F1853E82853F838540F001
:102F20001220C1FBFA6029AB471547C3E464808BCC
:102F3000F063F08095F050188A82122921AB3EACE4
:102F40003FAD400BBB00010C8B3E8C3F8D4080C7DA
:102F5000200403023031C3E5489546400302303176
:102F6000E546C39548F546AB461546EB700302307F
:102F70003175822012292180EEE54D24FDF8884D1F
:102F8000860308860408860518188B3E8C3F8D4002
:102F9000E540FB30E7047A438013EB546060047A29
:102FA00050800AEB30E6047A4980027A588A82C05F
:102FB0000212292175823A122921758230122921A3
:102FC000758278122921D002BA4902800BBA5002C8
:102FD0008006853F82122954853E821229548051F1
:102FE000D20875450A804A754508804575450A80AE
:102FF00040754510803BD2018037D2028033D20326
:10300000802FE54D24FDF8884D8603088604088648
:103010000518188B3E8C3F8D408B828C838DF0E59C
:1030200043122440A3E54412244080058A821229D9
:1030300021200106200203300370E54D24FCF888AE
:103040004D86030886040886050886061818188B1E
:103050003E8C3F8D408E41E53EE53FE540E5418BAE
:10306000828C838DF0EE12373F74FFB547037547AE
:1030700006300327747F5541FB8B42E542EB2BFB67
:103080008B42E54030E70674014542F542E54224B3
:10309000684006749925424002D202300206122C82
:1030A0001D022D0B1229AA022D0BE5457003022DDE
:1030B0000B7B7130092BE54D14F8884DE6FC3395F8
:1030C000E0FDFEFF8C3E8D3F8E408F4120085EACC0
:1030D0003E7D007E007F008C3E8D3F8E408F418084
:1030E0004C300A1FE54D24FCF8884D8604088605FF
:1030F0000886060886071818188C3E8D3F8E408F6C
:1031000041802AE54D24FEF8884D8604088605187E
:10311000ED3395E0FEFF8C3E8D3F8E408F412008C1
:103120000CAC3EAD3F7E007F008E408F41300B43A4
:10313000E53E453F4540454160397408B5450C754D
:103140008230C003122921D00380287410B5452392
:10315000758230C003122921D00330000C758278AB
:10316000C003122921D003800A758258C003122996
:1031700021D003300825AC3EAD3FAE40E541FF30E5
:10318000E717C3E49CFCE49DFDE49EFEE49FFF8CF6
:103190003E8D3F8E408F418002C208754800D20CA0
:1031A0008B00754200C00012296BD000200C0DE589
:1031B00042C4FCE6FD4CF61888038002A64205488E
:1031C000B20CE53E453F4540454170D68803E54693
:1031D000700375460120051A200417E54804FCC356
:1031E0009546500E758220C003122921D003154642
:1031F00080E930080E75822DC003122921D00315F5
:10320000468024E548602030060E75822BC00312EC
:103210002921D0031546800F30070C758220C0038A
:10322000122921D003154620041EAC461546C3E5DD
:10323000489C50273005047C3080027C208C82C062
:1032400003122921D00380E2C3E54895465009E5E1
:1032500046C39548F54680037546008B00AB48157C
:1032600048EB6022B20C200C0A08E6C4540FFB8B1A
:103270004280078603740F5BF542854282C00012CC
:10328000293BD00080D7200403022D0BAB46154606
:10329000EB7003022D0B75822012292180EE8A82A9
:1032A000122921022D0B85438285448322AA82ABF9
:1032B00083ACF08A5E8B5F8C60A859A95A8A678BB1
:1032C00068C3E89567E964808568F063F08095F0ED
:1032D0004003023359E55C28F8E55D39F9AD67AE86
:1032E00068C3ED98EE995071E55C2AFDE55D3BFE03
:1032F0008C07ED24FFF561EE34FFF5628F63E55C2A
:103300002559F8E55D355AF9AD5BE824FFFFE9344E
:10331000FFFE85616985626A85636B855C67855D93
:1033200068A867A968156774FFB567021568E8495A
:1033300060698F828E838DF01220C1F81FBFFF015C
:103340001E856982856A83856BF0E81224401569C1
:1033500074FFB569CC156A80C8AD59AE5AAF5B8DA4
:10336000648E658F66A85CA95D8805890618B8FF1C
:103370000119ED4E60258564828565838566F012AE
:1033800020C1FDA38582648583658A828B838CF04E
:10339000ED122440A3AA82AB8380CE855E82855F36
:1033A000838560F022AA82AB83ACF08A5E8B5F8C4F
:1033B00060A859A95AAD5B886189628D63A85CA930
:1033C0005D8805890618B8FF0119ED4E60258561F5
:1033D000828562838563F01220C1FDA385826185A9
:1033E00083628A828B838CF0ED122440A3AA82AB85
:1033F0008380CE855E82855F838560F022AA82AB62
:1034000083ACF0FDC002C003C004C005E4C0E0C04E
:10341000E0C0E0C0E08A828B838CF0ED1220DDAE4C
:1034200082E58124FCF581D005D004D003D002EEE2
:10343000700D753221E4F533900000E4F5F022754B
:103440005908755A00755B408A828B838CF0ED12A7
:10345000388685822285832385F024F525E4C0E023
:10346000C0E0C0E0743FC0E08522828523838524CC
:10347000F0E5251224EE85821685831785F018F570
:1034800019E58124FCF58174F3C0E07404C0E07494
:1034900035C0E0743FC0E08522828523838524F017
:1034A000E5251220DDAA82E58124FCF581EA60721F
:1034B000E4C0E0C0E0C0E0743FC0E085168285173C
:1034C000838518F0E5191224EE8582168583178509
:1034D000F018F519E58124FCF581C022C023C02431
:1034E000C025900000E4F5F0743F122141AA82ABA0
:1034F00083ACF0FDE58124FCF581E4C0E0C0E0C0D0
:10350000E0743FC0E08A828B838CF0ED12227F85CD
:10351000821185831285F013F514E58124FCF58171
:10352000804F150874FFB508021509C016C017C0F2
:1035300018C019900000E4F5F0743F122141AA82EE
:10354000AB83ACF0FDE58124FCF581E4C0E0C0E094
:10355000C0E0743FC0E08A828B838CF0ED12227F42
:1035600085821185831285F013F514E58124FCF51D
:1035700081C011C012C013C01485168285178385BF
:1035800018F0E51912267B85822E85832F85F03071
:10359000F531E58124FCF581C02EC02FC030C0314B
:1035A000852E82852F838530F0E531122141858279
:1035B0002A85832B85F02CF52DE58124FCF581C02F
:1035C0002AC02BC02CC02D907E3D75F00D74BF120B
:1035D0002141AA82AB83ACF0FDE58124FCF581C0DA
:1035E00002C003C004C005743AC0E0743FC0E07478
:1035F000D4C0E074C0C0E0852A82852B83852CF07E
:10360000E52D12227FAE82AF83A8F0F9E58124FC7C
:10361000F581D005D004D003D002C006C007C00099
:10362000C0018A828B838CF0ED12267BAA82AB8349
:10363000ACF0FDE58124FCF581C002C003C004C0EC
:1036400005852E82852F838530F0E531122141AA30
:1036500082AB83ACF0FDE58124FCF581C002C003A0
:10366000C004C005852E82852F838530F0E5311298
:10367000227F85822685832785F028F529E5812408
:10368000FCF58185088285098312391F85821A8598
:10369000831B85F01CF51DC01AC01BC01CC01D90EB
:1036A000808375F05E74B9122141AA82AB83ACF0BD
:1036B000FDE58124FCF581C026C027C028C0298AE9
:1036C000828B838CF0ED12227FAA82AB83ACF0FD5B
:1036D000E58124FCF581C002C003C004C005C01A06
:1036E000C01BC01CC01D90800075F031743F1221BA
:1036F00041AE82AF83A8F0F9E58124FCF581D005C5
:10370000D004D003D002C006C007C000C0018A8226
:103710008B838CF0ED12227FAA82AB83ACF0FDE5A7
:103720008124FCF5818A828B838CF0ED22AA82AB06
:1037300083A2F73392D16002D2F7F582ACF022C0B7
:10374000E0F84582458345F07009F5F0FBFCFDFE8D
:1037500002380DE823A2F792E0F8A982AA83D2F7F3
:10376000ABF07C007E07C3749798404074FF2EFE38
:10377000740A89F0A4F985F082740A8AF0A4FA85A3
:10378000F083740A8BF0A4FB740529F9EA3582FAF8
:10379000EB3583FB740035F0FCC3EC13FCEB13FB3F
:1037A000EA13FAE913F908EC70EF80BAE8C3947FE2
:1037B000F88B838EF0E4FBFCFDFEFF08C3E933F9D0
:1037C000EA33FAE58333F583EB3BD4FBEC3CD4FCE2
:1037D000ED3DD4FDEE3ED4FEEF3FD4FF602D05F06D
:1037E00074052BD4FBE43CD4FCE43DD4FDE43ED48E
:1037F000FEE43FD4FF758204C3EF13FFEE13FEED2A
:1038000013FDEC13FCEB13FBD582EDD8AF786CD035
:10381000E020E704762B8002762D087906E7C45471
:103820000F4430F608B90603762E08E7540F4430EB
:10383000F60819B902E7764508E5F020E704762B8B
:103840008004762DF4040875F00A844430F608E507
:10385000F04430F608E4F690006C75F04022AA823D
:10386000AB83ACF07D007E008A828B838CF01220CB
:10387000C1FFA3AA82AB83EF60070DBD00EA0E80F3
:10388000E78D828E8322AA82AB83ACF0FD8A5C8BAB
:103890005D8C5E8D5F855C60855D61855E62855F48
:1038A00063AE62E563A2E7CE33CE33CE540130E09F
:1038B0000244FE3395E08E34E4F535F536F537E510
:1038C000342482F534E53534FFF535E53634FFF53B
:1038D00036E53734FFF537AA59AB5AAC5BAD34AE99
:1038E000358A828B838CF0ED122440A3EE122440A3
:1038F000AA60AB61747F5562FC74805563FD8A5C7D
:103900008B5D8C5E8D5F743F455FFD8A5C8B5D8C4B
:103910005E8D5F855C82855D83855EF0E55F22ACB0
:1039200083AB827A007900748E023935FCABF0AA41
:1039300083A982749EF582C2D1EC30E716D2D1E918
:10394000F42401F9EAF43400FAEBF43400FBECF46B
:103950003400FC122863022814000000000000005C
:00000001FF
