:10000000020003758107120159E582600302005462
:10001000758200758300758400758500780079000D
:10002000E8496012E475860093A3758601F0A31871
:10003000B8FFED1980EA7586007582007583007C33
:10004000007D00EC4D600AE4F0A31CBCFFF51D80B0
:10005000F212013C1200B580FEC00078C80000001A
:10006000000000D8F8D000228582D9C2DAD2D9C2E5
:10007000D90200598582D9D2DAD2D9C2D90200591F
:10008000AA82AB83ACF07D00ED2AFEE43BFF8C003E
:100090008E828F8388F012013DFE60188E82C0022E
:1000A000C003C004C005120074D005D004D003D032
:1000B000020D80D4227591FF7592FF7593FF7594A0
:1000C000FF758EFF758FFF7596FF7597FF75E800BA
:1000D000759500759E0075F800D2DB12005975DA2F
:1000E000FFC2D875820C12006875823812006875DC
:1000F00082011200687A64C002120059D002DAF755
:1001000075828012006890011E75F0801200807563
:1001100082C012006890012B75F080020080486553
:100120006C6C6F20576F726C6421005365636F6E47
:1001300064204C4344206C696E652E002220F71425
:1001400030F6148883A88220F507E6A8837583001B
:1001500022E280F7E49322E0227582002200000070
:00000001FF
