:1000000002001E750928E4F50AF50BE4F50CF50D60
:10001000220000000000000000000002037475814F
:10002000E0120D0CE5826003020072780079007A1C
:10003000007B007C007D00EC4D601C88828983E49D
:1000400093A3A882A9838A828B83F0A3AA82AB831D
:100050001CBCFFE31D80E07582007583007C007D81
:1000600000EC4D600AE4F0A31CBCFFF51D80F21209
:1000700000031208AF80FE00000400FF0100000131
:10008000FF00020202FF0001000100010001010265
:1000900000FF000100010001040406FF0001000050
:1000A00001010003030600FF0001FF000001060636
:1000B000010100FF000001FF0005050100FF000134
:1000C00001000001080A050100FF00FF0000FF0910
:1000D000070500FF00010001FF000A0805FF0001FD
:1000E0000001000001070905000100FF00FF0100F9
:1000F0000C0E030100FF00FF0000010D0B0300FFC9
:100100000001000101000E0C03FF000100010000CE
:10011000FF0B0D03000100FF00FFFF00101207009E
:10012000FF0001FF000200110F07FF00010000FFA8
:100130000002121007000100FF0100FE000F11076E
:100140000100FF00000100FE4E6F742072756E6E9C
:10015000696E6720756E64657220746865206465D9
:10016000627567676572210A001B5B25643B256425
:1001700048001B5B3325646DDBDB001B5B303B33CE
:10018000303B34376D00000032006400C80090013D
:100190001B5B324A1B5B3F3235681B5B303B3330A5
:1001A0003B34376D001B5B324A1B5B3F32356C00C2
:1001B0001B5B25643B2564485445545249532062D7
:1001C0007920416C657865692050617A6869746E40
:1001D0006F76001B5B25643B2564484F7269676935
:1001E0006E616C6C79206279204368726973204774
:1001F00069657365001B5B25643B256448383035B1
:10020000322F43353120706F7274206279204A6535
:100210007375732043616C76696E6F2D46726167EA
:1002200061001B5B25643B256448274B273A526FCE
:10023000746174652C202750273A50617573652CC2
:10024000202751273A51756974001B5B25643B25B3
:100250006448274A273A4C6566742C20274C273A75
:1002600052696768742C20274D273A446F776E00D7
:100270001B5B303B33303B34376D1B5B25643B25C8
:10028000644850726573732027422720746F206280
:100290006567696E001B5B303B33303B34376D1B49
:1002A0005B25643B2564481B5B4B001B5B303B3389
:1002B000303B34376D1B5B25643B25644820474148
:1002C0004D45204F56455220001B5B25643B25645D
:1002D000481B5B4B4C6576656C3A202575001B5BB3
:1002E00025643B2564481B5B4B53636F72653A2062
:1002F000257500E582FAC31375F018A4FB2421FCD0
:10030000AD1AED2CF88604EA20E01F5304F0EB242C
:1003100021FAED2AF87407551B4CFAE51B30E70467
:100320007E0880027E00EE4AF62253040FEB242161
:10033000FBED2BF8E51BC454F0FA74705A420474B8
:1003400080551B4CF622E582FAC31375F018A424DD
:1003500021FBE51C2BF88603EA30E005EBC4540FC3
:10036000FB74075BFAEB30E3047B8080027B00EBDD
:100370004AF58222C020C0E0C0F0C082C083C00223
:10038000C003C004C005C006C007C000C001C0D083
:1003900075D0007448C0E07401C0E0120BD3158121
:1003A000158180FED0D0D001D000D007D006D00576
:1003B000D004D003D002D083D082D0F0D0E0D020BF
:1003C0003275BD0075BF0075BE3075BD037598529E
:1003D000759100759200C28C758902758AA5758C1D
:1003E000A5D28C75820022AA82BA0A0810990280CE
:1003F000FB75990D10990280FB8A99227A00C3EA55
:100400006480949840030204D47B00C3EB6480941E
:100410008F40030204D08A1C8B82C002C0031203E7
:1004200046E582D003D0025480FCBC8002800302E7
:1004300004CC8A1C8B82C002C003120346E582D022
:1004400003D002547FF51B8A1A8B82C002C00312AC
:1004500002F3D003D002C2D575F002EB30E704B24C
:10046000D5F404A430D50AF42401C5F0F43400C551
:10047000F02401FCE435F0FDEAFE3395E0FF0EBE0A
:1004800000010FC002C003C004C005C006C007744D
:1004900069C0E07401C0E0120BD3E58124FAF58154
:1004A000D003D0028A1C8B82C002C003120346AC68
:1004B000827D00C004C0057472C0E07401C0E01207
:1004C0000BD3E58124FCF581D003D0020B02040B91
:1004D0000A0203FE747BC0E07401C0E0120BD31566
:1004E00081158122AA82C3EA6480948F40027A0E29
:1004F000C3E50E648094984003750E17850E1A7438
:1005000080450FF51B8A820202F385101C120346F8
:10051000E582547FF58222AA82E51275F00BA4FBD6
:100520002477FCE43400FD74032CFCE43DFD7E00E4
:10053000C3EE648094845051EB2477FFE43400F8D8
:100540008F828883A3A3E493F50F85110E8A82C05E
:1005500002C003C004C005C0061204E4D006D005E2
:10056000D004D003D002EE2EFF2CF582E43DF583BB
:10057000E4932AFAEF2CFFE43DF88F828883A3E40A
:1005800093FF2511F5110E80A7EB2477FBE43400CF
:10059000FC8B828C83A3A3E493F50F85110E8A82D2
:1005A0000204E4AA82E51475F00BA42477FBE4347A
:1005B00000FC74032BFBE43CFC7D00C3ED648094E1
:1005C00084503E85130E750F008A82C002C003C09E
:1005D00004C0051204E4D005D004D003D002ED2DF0
:1005E000FE2BF582E43CF583E4932AFAEE2BFEE43D
:1005F0003CFF8E828F83A3E493FE2513F5130D80B9
:10060000BA85130E750F008A820204E4AA82E516E9
:1006100075F00BA42477FBE43400FC74032BFBE49B
:100620003CFC7D00C3ED6480948450438515108AA2
:1006300082C002C003C004C00512050AE582D005CD
:10064000D004D003D002600475820122ED2DFE2B70
:10065000F582E43CF583E4932AFAEE2BFEE43CFFBA
:100660008E828F83A3E493FE2515F5150D80B58545
:1006700015108A8212050AE58260047582012275CE
:100680008200227A00BA1800503D7B01BB0E005058
:10069000158A1A751B808B82C002C0031202F3D028
:1006A00003D0020B80E68A1A751B84758200C00293
:1006B0001202F3D0028A1A751B8475820EC00212D0
:1006C00002F3D0020A80BE7A00BA0F005021751AD8
:1006D00000751B848A82C0021202F3D002751A17B9
:1006E000751B848A82C0021202F3D0020A80DA22C9
:1006F0007A007B01C3EB64809497504F7C007D01AE
:10070000C3ED6480948E50218B1C8D82C002C00387
:10071000C004C005120346E582D005D004D003D042
:1007200002547F60010C0D80D7BC0D1C8B1A751B09
:1007300084758200C002C0031202F3D003D0020A03
:10074000050AE4B50A02050B0B80A9EA700122EA4A
:100750002AFA90018693CAA393FBEA250CF50CEBC9
:10076000350DF50D7A167B16C3E464808BF063F0CB
:100770008095F040030207FF8A048C1C758200C03C
:1007800003C004120346E582D004D00330E7051C01
:100790008C0280E68C02C3EC6480948150237C013F
:1007A000C3EC6480948E50528B1A751B808C82C06F
:1007B00002C003C0041202F3D004D003D0020C80A4
:1007C000DF7C01C3EC6480948E502F8A1C8C82C025
:1007D00002C003C004120346E582D004D003F5F042
:1007E000748045F0F51B8B1A8C82C003C004120282
:1007F000F3D004D003D0020C80C91B1A0207680290
:1008000003FC20980475820022C298859982120CFC
:10081000DCE5826007AA995302DF8002AA99BA2C0C
:10082000028045BA42028044BA49028037BA4A027D
:10083000802ABA4B02801DBA4C028024BA4D028035
:1008400027BA5002802ABA51028005BA552780087B
:100850007582012275820322758202227582052229
:10086000758204227582062275820722758208220B
:1008700010980280FB75820022AA82AB838A048BC7
:10088000051ABAFF011BEC4D601120980E7C00C3C5
:10089000EC950950E82098E50C80F4227490C0E0B3
:1008A0007401C0E0120BD31581158112001B2212B6
:1008B00003C174A5C0E07401C0E0120BD31581150B
:1008C000817420C0E0E4C0E07401C0E0E4C0E074E2
:1008D000B0C0E07401C0E0120BD3E58124FAF581C9
:1008E0007420C0E0E4C0E07402C0E0E4C0E074D36F
:1008F000C0E07401C0E0120BD3E58124FAF58174E5
:1009000020C0E0E4C0E07403C0E0E4C0E074F5C0DF
:10091000E07401C0E0120BD3E58124FAF581742064
:10092000C0E0E4C0E07405C0E0E4C0E07422C0E0D0
:100930007402C0E0120BD3E58124FAF5817420C063
:10094000E0E4C0E07406C0E0E4C0E0744AC0E074D3
:1009500002C0E0120BD3E58124FAF581120683125E
:1009600003FC7420C0E0E4C0E07408C0E0E4C0E030
:100970007470C0E07402C0E0120BD3E58124FAF574
:1009800081120802AA82BA0107C00212089CD00292
:10099000BA08EE120683750A01E4F50BE4F50CF5CE
:1009A0000D7420C0E0E4C0E07408C0E0E4C0E0746E
:1009B00095C0E07402C0E0120BD3E58124FAF58102
:1009C000020B0B7B00AC17AD18AE19C003C004C0FE
:1009D00005C006120802AA82D006D005D004D003B2
:1009E000EA704BE51904FE7B01C3E50A942AE50B86
:1009F00094005006AF0AA80B80047F2A78008F1A53
:100A0000881B900032C002C003C004C005C006129B
:100A10000BB6AF82A88374C4C39FF582740998F59E
:100A200083120879D006D005D004D003D0023098C4
:100A300015C003C004C005C006120802AA82D00671
:100A4000D005D004D003EA6063AE19BA0103020BEB
:100A5000B3BA030DE51775F00BA490007793FC80F3
:100A600049BA0217E51775F00BA42477FFE43400A8
:100A7000F88F828883A3E493FC802FBA050AE518D7
:100A80006028E51814FD8022BA040FC3E5186480BD
:100A9000948E5016E51804FD8010BA070DC3E519B1
:100AA000648094975004E51904FE7B00EDB5180BA3
:100AB000EEB51907ECB517030209C385191385179D
:100AC00014851882C003C004C005C0061205A3D057
:100AD00006D005D0048E158C168D82C004C005C0CA
:100AE0000612060CE582D006D005D004D0037009AA
:100AF0008D188E198C17020BA1EB7003020BA185C8
:100B000019118517128518821205177519037518A2
:100B10000775F013E58A8485F0171206F075150342
:100B200085171675820712060CE5826022740AC0CA
:100B3000E0E4C0E0740CC0E0E4C0E074ABC0E0747A
:100B400002C0E0120BD3E58124FAF581020962E5C7
:100B50000A250CF50CE50B350DF50DC00AC00B741C
:100B600020C0E0E4C0E0740FC0E0E4C0E074C9C09D
:100B7000E07402C0E0120BD3E58124F8F581C00CCB
:100B8000C00D7420C0E0E4C0E07410C0E0E4C0E038
:100B900074DEC0E07402C0E0120BD3E58124F8F5E6
:100BA000818519118517128518821205171203FC09
:100BB0000209C302089CE582851AF0A4C582C0F030
:100BC000851BF0A4D0F025F0C583851AF0A42583F9
:100BD000F58322C008858108E50824FDF88683187E
:100BE000868218E493A324DB600C24256005120C94
:100BF000C180F0020CD9D2D5E493A3C083C082B4E3
:100C0000731486F018868318868218120CF06054CC
:100C1000A3120CC180F5B4630818E618120CC18049
:100C200043B46447E630E74618E6F42401F608E6E4
:100C3000F43400F6742D120CC18033B4782D868301
:100C400018868218E4120CB2E583120CB1E5831207
:100C50000CB2E582120CB1E582120CB230D50574EB
:100C600030120CC1D082D083020BE3B475F6E6FAE1
:100C700018E6F9187C107D27120C9CFF7CE87D0398
:100C8000120C9CC4F5837C647D00120C9C4283E9A9
:100C900075F00A84C445F0F582EF80A97B000BC390
:100CA000E99CF9EA9DFA50F61BE92CF9EA3DFAEBCA
:100CB00022C4540F700320D51FC2D52490D43440D1
:100CC000D4C083C082C0F0F582E8C0E01203E7D050
:100CD000E0F8D0F0D082D08322D00822AA82BA6174
:100CE000004009EA248540047582012275820022B1
:100CF00020F71430F6148883A88220F507E6A8832D
:100D000075830022E280F7E49322E02275820022BC
:00000001FF
