:100000000200037581281200FAE582600302006F86
:10001000780079007A007B007C007D00EC4D601C4C
:1000200088828983E493A3A882A9838A828B83F040
:10003000A3AA82AB831CBCFFE31D80E07582007520
:1000400083007C007D00EC4D600AE4F0A31CBCFF43
:10005000F51D80F27582007583007C007D00EC4DFB
:10006000600AE4F0A31CBCFFF51D80F21200F91237
:10007000058180FE5025642E2564204641494C456B
:100080004420284F50454E290A005025642E2564EF
:10009000204641494C4544202853484F5254290A90
:1000A000005025642E25642C20005025642E2564E4
:1000B00020697320636F6E6E656374656420746F6E
:1000C0002067726F756E640A000A0A45464D382033
:1000D000626F617264206175746F746573740A0075
:1000E0000A000A0A53756363657373210A003C4E64
:1000F0004F20464C4F41543E002275A7007597DEB5
:100100007597AD75A71075C11075A70075A9007515
:10011000A900E5A930E7FB75A90775A907E5A9308E
:10012000E7FB43A41075E10175E20075E3407598A3
:1001300010438E08758D30858D8B53890F43892030
:10014000D28ED29975820022AA82438E407592D0B7
:100150007593FF8592948593957591047B00C3EB0D
:100160009A500BE59130E7FB53917F0B80F075912E
:100170000022AA82AB83BA0004BB0001227582F977
:10018000C002C0031201487582F91201487582F954
:100190001201487582FA120148D003D0021ABAFF40
:1001A000011B80D27A002080027A012081010A207E
:1001B00082010A2083010A2086010A2087010A2081
:1001C00090010A2091010A2092010A2093010A203D
:1001D00094010A2095010A2096010A2097010A201D
:1001E000A0010A20A1010A20A2010A20A3010A20DD
:1001F000A4010A20A5010A20A6010A20B0010A20B4
:10020000B1010A20B2010A20B3010A20B7010A8A0B
:100210008222AA8274075AF5F005F0740180022543
:10022000E0D5F0FBFBEAC4540FFA24FC4022EA2A92
:100230002A9002357302024102024502024902027B
:100240004DEB42A422EB42A522EB42A622EB429CBC
:1002500022AA8274075AF5F005F07401800225E0A5
:10026000D5F0FBF4FBEAC4540FFA24FC4022EA2A3E
:100270002A9002757302028102028502028902023B
:100280008DEB52A422EB52A522EB52A622EB529CFC
:1002900022AA8274075AF5F005F07401800225E065
:1002A000D5F0FBFBEAC4540FFA24FC4022EA2A2AC8
:1002B0009002B4730202C00202C40202C80202CC5D
:1002C000EB428022EB429022EB42A022EB42B02292
:1002D000AA8274075AF5F005F07401800225E0D572
:1002E000F0FBF4FBEAC4540FFA24FC4022EA2A2A69
:1002F0009002F47302030002030402030802030CD9
:10030000EB528022EB529022EB52A022EB52B02211
:10031000AA8274075AF5F005F07401800225E0D531
:10032000F0FBFBEAC4540FFA24FC4013EA2A2A909B
:1003300003337302033F02034502034B020351EBF5
:100340005580FA8010EB5590FA800AEB55A0FA80A0
:1003500004EB55B0FAEA24FF22AA8274075AFB7C08
:1003600000EAC4540FFA7D00C003C004C002C005F7
:100370007474C0E07400C0E07480C0E0120695E5BB
:100380008124F9F58180FEAA8274075AFB7C00EA79
:10039000C4540FFA7D00C003C004C002C005748AB3
:1003A000C0E07400C0E07480C0E0120695E58124CE
:1003B000F9F58180FEAA8274075AFB7C00EAC454D6
:1003C0000FFA7D00C003C004C002C00574A1C0E0E4
:1003D0007400C0E07480C0E0120695E58124F9F550
:1003E0008122AA82C002120212850982120251D011
:1003F000028A82C0021202D09000021201728509A4
:1004000082120310E433FBD002BB010A850982C0CB
:1004100002120359D002C0021201A4AB82D002BB67
:100420000202800A850982C002120387D002850970
:1004300082C0021203B5850982120212D0028A829A
:10044000C0021202518509821202D09000021201EC
:1004500072D0028A82C002120310E433FBD002BBC6
:1004600001098A82C002120359D002C0021201A4FB
:10047000AB82D002BB020280098A82C002120387CB
:10048000D0028A82C0021203B5D0028A82C0021250
:100490000291850982120291D0028A82120251854C
:1004A0000982020251AA82C002120310D002402A1D
:1004B00074075AFB7C00EAC4540FFA7D00C003C0E5
:1004C00004C002C00574AAC0E07400C0E07480C01B
:1004D000E0120695E58124F9F581221201A4E58256
:1004E0007001227582001204A57582011204A5759F
:1004F00082021204A57582031204A57582061204F5
:10050000A57582071204A57582101204A5758211C3
:100510001204A57582121204A57582131204A57522
:1005200082141204A57582151204A5758216120490
:10053000A57582171204A57582201204A575822163
:100540001204A57582221204A57582231204A575D2
:1005500082241204A57582251204A5758226120430
:10056000A57582301204A57582311204A5758232F8
:100570001204A57582331204A57582371204A58072
:10058000FE9001F412017274C9C0E07400C0E074FE
:1005900080C0E01206951581158115811204DB7566
:1005A00009017582001203E27509037582021203C4
:1005B000E27509067582371203E275090775823301
:1005C0001203E274E0C0E07400C0E07480C0E01286
:1005D00006951581158115817509107582321203F2
:1005E000E27509117582311203E2750912758230C4
:1005F0001203E27509137582261203E274E0C0E06B
:100600007400C0E07480C0E0120695158115811554
:10061000817509147582251203E275091575822406
:100620001203E27509167582231203E27509177524
:1006300082221203E274E0C0E07400C0E07480C063
:10064000E0120695158115811581750920758221A5
:100650001203E274E2C0E07400C0E07480C0E012F3
:100660000695158115811581758221120212C2A18C
:100670009001F4120172D2A19001F412017280EE85
:10068000020CD685821985831A85F01B850A1C9079
:10069000068002073FC008858108E50824FBF51C99
:1006A000E50824FBF8861908861A08861B90068040
:1006B00012073FD00822AA8274C7C0E07406C0E0C7
:1006C000C00BC00C8A82220512E4B5120205132267
:1006D000AA8274302AFA24C6500A74072AFA300013
:1006E000034302208A820206B6E582FAC4540FF55B
:1006F00082C0021206D0D002740F5AF5820206D0D0
:10070000AA0DAB0EAC0FAD10AE11751820EE2EFE7B
:10071000ED235401FF4206EA2AFAEB33FBEC33FCEB
:10072000ED33FDC3EE95144008EEC39514FE43026D
:1007300001D518D98A0D8B0E8C0F8D108E11228544
:10074000820B85830CE4F512F513AA19AB1AAC1BC6
:100750008A828B838CF0120CEBFD74012AF519E46C
:100760003BF51A8C1BEDFA7003020CCFBA25028000
:1007700003020CC7C204C205C206C207C208C209EE
:10078000C20AC20BC201C202C20375140075150071
:100790007516FFAB19AC1AAD1B8B828C838DF012D2
:1007A0000CEBFAA3AB82AC838B198C1A8D1BBA2588
:1007B000078A821206B680928A06BE3000402E8AD0
:1007C00006EE24C6402774FFB51613E51575F00A2A
:1007D000A4FEEA24D02EF51570BFD20580BBE51625
:1007E00075F00AA4FEEA24D02EF51680ACBA2E0AC3
:1007F00074FFB516A4751600809F8A06BE6100407E
:100800000E8A06EE248540075302DFD2008002C222
:1008100000BA20028075BA230302089ABA2A03029A
:10082000089FBA2B02805FBA2D028055BA4202801F
:100830005FBA43030208E4BA4403020A1FBA45033D
:10084000020A39BA4603020A35BA4703020A3DBA18
:100850004903020A1FBA4C02803BBA4E03020A4106
:10086000BA4F03020A26BA50030209B8BA53030268
:100870000908BA5503020A2BBA5803020A30020AC1
:100880006BD204020799D206020799D20702079990
:10089000D209020799D20A020799D20B020799746A
:1008A000FFB5162030090BE51C14F8881C861502CC
:1008B0000799E51C24FEF8881C8606088607188E12
:1008C0001502079930090BE51C14F8881C861602DE
:1008D0000799E51C24FEF8881C8606088607188EF2
:1008E0001602079930090AE51C14F8881C86028054
:1008F0000FE51C24FEF8881C8603088604188B026A
:100900008A821206B6020A70E51C24FDF8881C864D
:100910000308860408860518188B0D8C0E8D0F8B26
:10092000828C838DF0120D20AB82AC838B1774FF09
:10093000B5160385171620041DC3E5179515501627
:10094000E515C39517F515AB151515EB6008758200
:10095000201206B680F1850D82850E83850FF01278
:100960000CEBFBFA6029AB161516C3E464808BF020
:1009700063F08095F050188A821206B6AB0DAC0E6B
:10098000AD0F0BBB00010C8B0D8C0E8D0F80C720A3
:100990000403020A70C3E51795154003020A70E5C7
:1009A00015C39517F515AB151515EB7003020A70F5
:1009B0007582201206B680EEE51C24FDF8881C86A0
:1009C0000308860408860518188B0D8C0E8D0FE51C
:1009D0000FFB30E7047A438013EB546060047A50D5
:1009E000800AEB30E6047A4980027A588A82C00293
:1009F0001206B675823A1206B67582301206B675C0
:100A000082781206B6D002BA4902800BBA50028030
:100A100006850E821206E9850D821206E98051D202
:100A20000875140A804A751408804575140A8040B8
:100A3000751410803BD2018037D2028033D20380FC
:100A40002FE51C24FDF8881C86030886040886050B
:100A500018188B0D8C0E8D0F8B828C838DF0E51208
:100A6000120D07A3E513120D0780058A821206B640
:100A700020010620020330035AE51C24FCF8881CE0
:100A800086030886040886050886061818188B0D44
:100A90008C0E8D0F8E10750DEE750E00750F808506
:100AA0000D1D850E1E850F1F7401251DFEE4351ECC
:100AB000FFAB1F8E0D8F0E8B0F851D82851E8385CC
:100AC0001FF0120CEBFBFA700302074A8A8212062F
:100AD000B680CCE514700302074A7B2830092BE569
:100AE0001C14F8881CE6FC3395E0FDFEFF8C0D8D90
:100AF0000E8E0F8F1020085EAC0D7D007E007F00F3
:100B00008C0D8D0E8E0F8F10804C300A1FE51C242B
:100B1000FCF8881C860408860508860608860718DF
:100B200018188C0D8D0E8E0F8F10802AE51C24FE58
:100B3000F8881C860408860518ED3395E0FEFF8CC6
:100B40000D8D0E8E0F8F1020080CAC0DAD0E7E009B
:100B50007F008E0F8F10300B43E50D450E450F457E
:100B60001060397408B5140C758230C0031206B6D3
:100B7000D00380287410B51423758230C003120688
:100B8000B6D00330000C758278C0031206B6D003CD
:100B9000800A758258C0031206B6D003300825AC0F
:100BA0000DAD0EAE0FE510FF30E717C3E49CFCE47B
:100BB0009DFDE49EFEE49FFF8C0D8D0E8E0F8F1029
:100BC0008002C208751700D20C8B00751100C0009E
:100BD000120700D000200C0DE511C4FCE6FD4CF618
:100BE0001888038002A6110517B20CE50D450E45C5
:100BF0000F451070D68803E51570037515012005A3
:100C00001A200417E51704FCC39515500E758220B1
:100C1000C0031206B6D003151580E930080E7582A0
:100C20002DC0031206B6D00315158024E5176020E9
:100C300030060E75822BC0031206B6D00315158040
:100C40000F30070C758220C0031206B6D0031515AD
:100C500020041EAC151515C3E5179C50273005045C
:100C60007C3080027C208C82C0031206B6D00380C8
:100C7000E2C3E51795155009E515C39517F51580DD
:100C8000037515008B00AB171517EB6022B20C2013
:100C90000C0A08E6C4540FFB8B1180078603740FFF
:100CA0005BF511851182C0001206D0D00080D720DC
:100CB000040302074AAB151515EB700302074A75CA
:100CC00082201206B680EE8A821206B602074A8594
:100CD000128285138322AA82BA0A0810990280FB25
:100CE00075990D10990280FB8A992220F71430F62D
:100CF000148883A88220F507E6A88375830022E282
:100D000080F7E49322E02220F71030F6118883A8C0
:100D10008220F507F6A88375830022F280F7F0227F
:100D2000AA82AB83ACF07D007E008A828B838CF03C
:100D3000120CEBFFA3AA82AB83EF60070DBD00EAA4
:100D40000E80E78D828E83220000000000000000EC
:00000001FF
