:10000000020003758163120100E582600302006F44
:10001000780079007A007B007C007D00EC4D601C4C
:1000200088828983E493A3A882A9838A828B83F040
:10003000A3AA82AB831CBCFFE31D80E07582007520
:1000400083007C007D00EC4D600AE4F0A31CBCFF43
:10005000F51D80F27582007583007C007D00EC4DFB
:10006000600AE4F0A31CBCFFF51D80F21200FF1231
:10007000037A80FE1B5B324A0045464D38204672AB
:10008000657175656E6379206D6561737572656DF7
:10009000656E74207573696E672054696D65722F83
:1000A000436F756E74657220302E0A46696C653A2E
:1000B0002025730A436F6D70696C65643A2025735F
:1000C0002C2025730A0A004672657145464D382E6C
:1000D00063004665622032392032303234003034D9
:1000E0003A30363A353100433D256C752E256C7516
:1000F000206D46003C4E4F20464C4F41543E00225E
:1001000075A7007597DE7597AD43FF8075EF027593
:10011000A71075C12075A70075A90075A900E5A9EC
:1001200030E7FB75A90375A903E5A930E7FB43A4F4
:100130001075E10175E21075E340759810858E8E9B
:10014000758DE6858D8B53890F438920D28ED29988
:1001500075820022AA82438E407592B87593FF85FE
:1001600092948593957591047B00C3EB9A5012E5A8
:100170009130E7FB53917F108D02800205220B80A6
:10018000E975910022AA82AB83BA0004BB00012268
:100190007582F9C002C0031201547582F91201542C
:1001A0007582F91201547582FA120154D003D002FB
:1001B0001ABAFF011B80D25389F0438905C28C22F1
:1001C000D2A0758228120154C2A022AA828AE0A27B
:1001D000E79290A2E69291A2E59292A2E49293C055
:1001E000021201C0758228120154D0028AE0A2E3F3
:1001F0009290A2E29291A2E19292A2E092930201E5
:10020000C0AA82D2978A821201CB90000202018595
:10021000AA82C2978A821201CB900005020185C290
:10022000A09000141201857582331202107582337A
:100230001202107582321202107582281202107595
:10024000820C120210758201120210900014020139
:1002500085AA82AB83ACF07402B523047DC0800212
:100260007D808D82C002C003C00412021090000580
:10027000120185D004D003D0027D007E00ED2AFF5C
:10028000EE3BF88C018F82888389F0120592FF6023
:10029000208F82C002C003C004C005C00612020144
:1002A000D006D005D004D003D0020DBD00CF0E8003
:1002B000CC3000248D028E03C3EA9410EB6480944A
:1002C000805015758220C002C003120201D003D0F5
:1002D000020ABA00E30B80E0228582268583278507
:1002E000F028E4F529F52AE52424FFFFE52534FF6D
:1002F000F879007A00C3E99FEA648088F063F080AF
:1003000095F05059C002C007C000C001120791AB60
:1003100082D001D000D007D002BB0A028003BB0DFF
:100320001DE5292526FCE52A3527FDAE288C828D82
:10033000838EF0E41207A4852982852A8322E92589
:1003400026FCEA3527FDAE288C828D838EF0EB12D9
:1003500007A409B900010A89298A2A8098E5292574
:1003600026FAE52A3527FBAC288A828B838CF0E4B9
:100370001207A485248285258322E4F52BF52CF52C
:100380002DF52EF52FF53075314875326575336CC6
:1003900075346C75356F7536001201B79001F41223
:1003A00001857474C0E07400C0E07480C0E012077E
:1003B0003615811581158174DEC0E07400C0E074CB
:1003C00080C0E074D2C0E07400C0E07480C0E0740B
:1003D000C7C0E07400C0E07480C0E07479C0E0740D
:1003E00000C0E07480C0E0120736E58124F4F58196
:1003F00012021F752301D20090003175F0401202E5
:1004000051758A00758C00752200C28DD28C9003C4
:10041000E8120185C28CAA227B008B4E8A4D754C56
:1004200000754B00AE8C7F007A008A038F028E0726
:100430007E00EE254BF54BEF354CF54CEA354DF58E
:100440004DEB354EF54EAC8AE4FD3395E0FAFBEC0E
:10045000254BF511ED354CF512EA354DF513EB351D
:100460004EF514902DB4E4F5F01205AE12077EAAF5
:1004700082AB83ACF0FDC002C003C004C00590A9EC
:100480005075F0AB744E120852AA82AB83ACF0FDEB
:10049000E58124FCF5818A828B838CF0ED1207576D
:1004A000AA82AB83ACF0FDEA252BF52BEB352CF5BE
:1004B0002CEC352DF52DED352EF52E052FE4B52F31
:1004C000020530852F1185301275130075140085D3
:1004D0002B82852C83852DF0E52E12061C7511E8E4
:1004E00075120375130075140012069E85824B85E4
:1004F000834C85F04DF54E852F118530129003E821
:10050000120681AE82AF838E118F1275130075149F
:1005100000852B82852C83852DF0E52E12061CAEDE
:1005200082AF83AAF0FBC04BC04CC04DC04EC0068A
:10053000C007C002C00374E7C0E07400C0E074806C
:10054000C0E07437C0E07400C0E07440C0E012083E
:100550000CE58124F2F581C37414952FE495305095
:1005600020E52EC313F52EE52D13F52DE52C13F5FF
:100570002CE52B13F52BE530C313C52F13C52FF531
:1005800030752302D20090003775F04012025102FC
:10059000040120F71430F6148883A88220F507E6BA
:1005A000A88375830022E280F7E49322E022AAF078
:1005B000FBE5828511F0A4FCADF0E5838511F0A484
:1005C0002DFDE435F0FEE5828512F0A42DFDE5F069
:1005D0003EFEE433FFEA8511F0A42EFEE5F03FFF76
:1005E000E5838512F0A42EFEE5F03FFFE58285133A
:1005F000F0A42EFEE5F03FFFEB8511F0A42FFFEAFB
:100600008512F0A42FFFE5838513F0A42FFFE58268
:100610008514F0A42F8EF08D838C8222FB7A20E447
:10062000FCFDFEFFE5822582F582E58333F583E557
:10063000F033F5F0EB33FB4017DAE98042E5822531
:1006400082F582E58333F583E5F033F5F0EB33FB98
:10065000EC33FCED33FDEE33FEEF33FFEC9511EDA3
:100660009512EE9513EF95144013EC9511FCED9552
:1006700012FDEE9513FEEF9514FF438201DABEEBF7
:1006800022E5828511F0A4C582C0F08512F0A4D0C5
:10069000F025F0C5838511F0A42583F58322F9E5C3
:1006A0001145124513451460777800C308E51420FE
:1006B000E73BE51125E0F511E51233F512E51333BB
:1006C000F513E51433F514E5829511E5839512E5EC
:1006D000F09513E9951450D4C3E51413F514E513FC
:1006E00013F513E51213F512E51113F511E58295D3
:1006F00011FCE5839512FDE5F09513FEE995144094
:1007000007F98EF08D838C82C3E51413F514E5137D
:1007100013F513E51213F512E51113F511D8CEE90F
:1007200022020F9185825D85835E85F05F85106072
:100730009007210209FAC008858108E50824FBF525
:1007400060E50824FBF8865D08865E08865F9007F2
:10075000211209FAD008227F9E120FA630D103027F
:100760000FD9C3EF9582500974FFF5F0F583F58238
:1007700022790012100789828A838BF0EC22FCAB6D
:10078000F0AA83A982749EC2D1F58212104A020F88
:10079000B810980280FBAA998A82C002120F91D0E9
:1007A000028A822220F71030F6118883A88220F571
:1007B00007F6A88375830022F280F7F022AA82ABA5
:1007C00009AC0AAD0B8B828C838DF0EA1207A4056D
:1007D00009E4B50902050A2285820985830A85F0A4
:1007E0000B850C5D850D5E850E5F850F609007BDE6
:1007F0001209FAAA82AB83AC09AD0AAE0B8C828DCA
:10080000838EF0E41207A48A828B8322C00885813C
:1008100008E50824F8F560E50824FBF88609088651
:100820000A08860BE50824F8F8865D08865E0886C7
:100830005F9007BD1209FAAA82AB83AC09AD0AAE7C
:100840000B8C828D838EF0E41207A48A828B83D076
:10085000082212107D30D502B2D1BF0009BC0003BE
:10086000020FFC020FEFBC0003020FD9E583B4FFB7
:100870000BE582B4FF03020FFC020FD9E582B4FF3F
:1008800003020FEFC395835007247F400B020FD95B
:100890002480145003020FEFC0E0E4CCCBCAF98DE2
:1008A000118E128F13EF54F0C4F51475830685145E
:1008B000F0EB84F582E9C4F9EAC4FAEBC4FBEC542A
:1008C0000FC47803D6FC18EBD6FB18EAD6FA85825B
:1008D000F0EDA4A8F0FD8582F0EEA428FEE435F04A
:1008E000F88582F0EFA428FFE435F0F8E99DF9EAF5
:1008F0009EFAEB9FFBEC98FCAD11AE12AF1330E704
:10090000101582E92DF9EA3EFAEB3FFBE43CFC804E
:10091000EDC082D58398C3E933F9EA33FAEB33FBB0
:10092000EC33FCC3E99DEA9EEB9FEC9400B3E41327
:10093000F9D002D0E0C44AFAD003D0E0C44BFBD0D7
:1009400004D0E0F5F0540FC44CFCD082158230F492
:100950000FD3EC13FCEB13FBEA13FAE913F905824E
:10096000E930E70A74012AFAE43BFBE43CFC020F9D
:10097000D0AA827482C0E07409C0E0C04FC0508A1F
:1009800082220556E4B55602055722AA8274302AFF
:10099000FA24C6500A74072AFA3001034302208A57
:1009A00082020971E582FAC4540FF582C00212096D
:1009B0008BD002740F5AF58202098BAA51AB52AC4C
:1009C00053AD54AE55755C20EE2EFEED235401FF61
:1009D0004206EA2AFAEB33FBEC33FCED33FDC3EEBF
:1009E00095584008EEC39558FE430201D55CD98A5C
:1009F000518B528C538D548E552285824F85835056
:100A0000E4F556F557AA5DAB5EAC5F8A828B838CAA
:100A1000F0120592FD74012AF55DE43BF55E8C5FF2
:100A2000EDFA7003020F8ABA25028003020F82C218
:100A300005C206C207C208C209C20AC20BC20CC262
:100A400002C203C204755800755900755AFFAB5DA8
:100A5000AC5EAD5F8B828C838DF0120592FAA3ABF6
:100A600082AC838B5D8C5E8D5FBA25078A8212090A
:100A70007180928A06BE3000402E8A06EE24C6405F
:100A80002774FFB55A13E55975F00AA4FEEA24D07D
:100A90002EF55970BFD20680BBE55A75F00AA4FE48
:100AA000EA24D02EF55A80ACBA2E0A74FFB55AA4A7
:100AB000755A00809F8A06BE6100400E8A06EE24A9
:100AC0008540075302DFD2018002C201BA200280B2
:100AD00075BA2303020B55BA2A03020B5ABA2B022A
:100AE000805FBA2D028055BA4202805FBA4303028A
:100AF0000B9FBA4403020CDABA4503020CF4BA465F
:100B000003020CF0BA4703020CF8BA4903020CDAEC
:100B1000BA4C02803BBA4E03020CFCBA4F03020CE3
:100B2000E1BA5003020C73BA5303020BC3BA550364
:100B3000020CE6BA5803020CEB020D26D205020A9B
:100B400054D207020A54D208020A54D20A020A54A2
:100B5000D20B020A54D20C020A5474FFB55A203048
:100B60000A0BE56014F888608659020A54E560248F
:100B7000FEF888608606088607188E59020A5430E7
:100B80000A0BE56014F88860865A020A54E560246E
:100B9000FEF888608606088607188E5A020A5430C6
:100BA0000A0AE56014F888608602800FE56024FE7A
:100BB000F888608603088604188B028A82120971FD
:100BC000020D2BE56024FDF8886086030886040882
:100BD000860518188B518C528D538B828C838DF027
:100BE0001210ABAB82AC838B5B74FFB55A03855B91
:100BF0005A20051DC3E55B95595016E559C3955B11
:100C0000F559AB591559EB600875822012097180AE
:100C1000F18551828552838553F0120592FBFA606B
:100C200029AB5A155AC3E464808BF063F08095F0C9
:100C300050188A82120971AB51AC52AD530BBB00F4
:100C4000010C8B518C528D5380C7200503020D2B54
:100C5000C3E55B95594003020D2BE559C3955BF540
:100C600059AB591559EB7003020D2B7582201209EF
:100C70007180EEE56024FDF888608603088604082C
:100C8000860518188B518C528D53E553FB30E704C1
:100C90007A438013EB546060047A50800AEB30E6AC
:100CA000047A4980027A588A82C0021209717582D8
:100CB0003A120971758230120971758278120971C0
:100CC000D002BA4902800BBA5002800685528212C5
:100CD00009A48551821209A48051D20975580A804D
:100CE0004A755808804575580A8040755810803BF1
:100CF000D2028037D2038033D204802FE56024FDF6
:100D0000F88860860308860408860518188B518CBD
:100D1000528D538B828C838DF0E5561207A4A3E588
:100D2000571207A480058A82120971200206200347
:100D30000330045AE56024FCF888608603088604C2
:100D40000886050886061818188B518C528D538E0C
:100D5000547551F475520075538085516185526206
:100D600085536374012561FEE43562FFAB638E51E8
:100D70008F528B538561828562838563F012059261
:100D8000FBFA7003020A058A8212097180CCE558C9
:100D90007003020A057B1A300A2BE56014F888609C
:100DA000E6FC3395E0FDFEFF8C518D528E538F543F
:100DB00020095EAC517D007E007F008C518D528EEB
:100DC000538F54804C300B1FE56024FCF8886086FC
:100DD000040886050886060886071818188C518DA1
:100DE000528E538F54802AE56024FEF88860860472
:100DF00008860518ED3395E0FEFF8C518D528E5319
:100E00008F5420090CAC51AD527E007F008E538F61
:100E100054300C43E55145524553455460397408EC
:100E2000B5580C758230C003120971D00380287444
:100E300010B55823758230C003120971D0033001F8
:100E40000C758278C003120971D003800A7582582C
:100E5000C003120971D003300925AC51AD52AE5315
:100E6000E554FF30E717C3E49CFCE49DFDE49EFEDF
:100E7000E49FFF8C518D528E538F548002C20975AE
:100E80005B00D20D8B00755500C0001209BBD0006D
:100E9000200D0DE555C4FCE6FD4CF61888038002D4
:100EA000A655055BB20DE55145524553455470D6E4
:100EB0008803E559700375590120061A200517E5C6
:100EC0005B04FCC39559500E758220C00312097152
:100ED000D003155980E930090E75822DC00312091F
:100EE00071D00315598024E55B602030070E7582B0
:100EF0002BC003120971D0031559800F30080C75EF
:100F00008220C003120971D003155920051EAC5967
:100F10001559C3E55B9C50273006047C3080027C69
:100F2000208C82C003120971D00380E2C3E55B9577
:100F3000595009E559C3955BF55980037559008BE4
:100F400000AB5B155BEB6022B20D200D0A08E6C416
:100F5000540FFB8B5580078603740F5BF555855541
:100F600082C00012098BD00080D7200503020A0539
:100F7000AB591559EB7003020A05758220120971ED
:100F800080EE8A82120971020A058556828557838E
:100F900022AA82BA0A0810990280FB75990D10994D
:100FA0000280FB8A9922AA82AB83A2F73392D16096
:100FB00002D2F7F582ACF022B98003EA13B34010F5
:100FC000EA2401FAE43BFBE43CFC50047C8005820B
:100FD000BC000EBB000BBA0008E4F5F0F583F58207
:100FE00022A2D1E582138CF092F78B838A8222E4CD
:100FF000F583F58275F080F4A2D11322E4F583F530
:101000008275F0C0747F226040F82582500274FF20
:10101000F582E824F8501ECCCBCAF9E4CC24F85071
:1010200014CBCAF9E4CB24F8500BCAF9E4CA24F86B
:10103000500379002224086010F8C3EC13FCEB1372
:10104000FBEA13FAE913F9D8F1227804EC7011E500
:101050008224F8500AF582E4C9CACBFCD8EF22EC0E
:101060007820058220E713D5820122C3E933F9EA0B
:1010700033FAEB33FBEC33FCD8EA158222AA82ABBD
:1010800083A2F73392D16002D2F7F582ACF0E5810A
:1010900024F9F8E6FD08E6FE0886F008E6A2F73334
:1010A00092D56002D2F7F583AFF022AA82AB83AC6F
:1010B000F07D007E008A828B838CF0120592FFA364
:1010C000AA82AB83EF60070DBD00EA0E80E78D8238
:1010D0008E832200000000000000000000000000DD
:00000001FF
