:100000000200037581281200FCE582600302006F84
:10001000780079007A007B007C007D00EC4D601C4C
:1000200088828983E493A3A882A9838A828B83F040
:10003000A3AA82AB831CBCFFE31D80E07582007520
:1000400083007C007D00EC4D600AE4F0A31CBCFF43
:10005000F51D80F27582007583007C007D00EC4DFB
:10006000600AE4F0A31CBCFFF51D80F21200FB1235
:1000700001B580FE1B5B324A0045464D3820506575
:1000800072696F64206D6561737572656D656E74FC
:100090002061742070696E2050302E312075736994
:1000A0006E672054696D657220302E0A46696C6552
:1000B0003A2025730A436F6D70696C65643A202598
:1000C000732C2025730A0A0071742E630046656242
:1000D00020323820323032340032323A30323A3044
:1000E00033000D543D256C66206D732020202000C8
:1000F0003C4E4F20464C4F41543E002275A70075A0
:1001000097DE7597AD43FF8075EF0275A71075C137
:100110002075A70075A90075A900E5A930E7FB7552
:10012000A90375A903E5A930E7FB43A41075E10114
:1001300075E20075E340759810858E8E758DE685A5
:100140008D8B53890F438920D28ED29975820022DC
:10015000AA82438E407592B87593FF8592948593D9
:10016000957591047B00C3EB9A500BE59130E7FB4A
:1001700053917F0B80F075910022AA82AB83BA0065
:1001800004BB0001227582F9C002C0031201507540
:1001900082F91201507582F91201507582FA12012A
:1001A00050D003D0021ABAFF011B80D25389F0430A
:1001B0008901C28C221201AC9001F412017A74748C
:1001C000C0E07400C0E07480C0E012047F158115A7
:1001D00081158174D9C0E07400C0E07480C0E074FF
:1001E000CDC0E07400C0E07480C0E074C8C0E074AA
:1001F00000C0E07480C0E07479C0E07400C0E074B6
:1002000080C0E012047FE58124F4F581758A0075D1
:100210008C00C28D7509002081FD3081FDD28C30AB
:100220008109108D0280F8050980F4208109108D64
:100230000280F8050980F4C28C850982120406AA9E
:1002400082AB83ACF0FDC002C003C004C0059000C7
:100250000075F0807447120363AA82AB83ACF0FD93
:10026000E58124FCF581858C82C002C003C004C0F6
:1002700005120406AE82AF83A8F0F9C006C007C01D
:1002800000C00190000075F0807443120363AE82D9
:10029000AF83A8F0F9E58124FCF581D005D004D026
:1002A00003D002C006C007C000C0018A828B838CC5
:1002B000F0ED120411AA82AB83ACF0FDE58124FCC1
:1002C000F581AE8A7F008E828F83C002C003C00496
:1002D000C0051204A0AE82AF83A8F0F9D005D00407
:1002E000D003D002C006C007C000C0018A828B8341
:1002F0008CF0ED120411AA82AB83ACF0FDE58124F1
:10030000FCF581C002C003C004C00590F4FC75F088
:10031000327434120363AA82AB83ACF0FDE581240E
:10032000FCF581C002C003C004C00590000075F058
:100330007A7444120363AA82AB83ACF0FDE5812496
:10034000FCF581C002C003C004C00574E2C0E074C3
:1003500000C0E07480C0E012047FE58124F9F581DB
:1003600002020C12052FBC00030204CEEF60FA302B
:10037000D502B2D1E583B4FF030204E4E582B4FF01
:10038000030204E4258340072482400B0204CE24A8
:10039000831450030204E4F582EA8DF0A4A8F0EA85
:1003A0008EF0A428F8E435F0F9EB8DF0A428E935B7
:1003B000F0F9E433CA8FF0A429F9EA35F0FAEBF842
:1003C0008EF0A429F9EA35F0FAE433FBEC8DF0A4C1
:1003D00029F9EA35F0FAE43BFBE88FF0A42AFAEBBE
:1003E00035F0FBE433CCFD8EF0A42AFAEB35F0FBBC
:1003F000E43CFCED8FF0A42BFBEC35F0FC20E70394
:100400001204FC0204ADE4AC82FBFAF97486020526
:100410006612052F7900E583B58202800D50031224
:100420000570E583C3958212058AE5D0C465D020A6
:10043000E117EA2DFAEB3EFBEC3FFC500974011288
:10044000058AEC4480FC0204ADC3EA9DFAEB9EFBF6
:10045000EC9FFC500FC3E499F9E49AFAE49BFBE4A7
:100460009CFCB2D11204FC0204AD020BED85821992
:1004700085831A85F01B850A1C90046A020656C003
:1004800008858108E50824FBF51CE50824FBF886AF
:100490001908861A08861B90046A120656D008228C
:1004A000AC83AB827A007900748E020C0BB98003A6
:1004B000EA13B34010EA2401FAE43BFBE43CFC50AD
:1004C000047C800582BC000EBB000BBA0008E4F57A
:1004D000F0F583F58222A2D1E582138CF092F78B9E
:1004E000838A8222E4F583F58275F080F4A2D11329
:1004F00022E4F583F58275F0C0747F227804EC70F5
:1005000011E58224F8500AF582E4C9CACBFCD8EF81
:1005100022EC7820058220E713D5820122C3E9333B
:10052000F9EA33FAEB33FBEC33FCD8EA158222AA62
:1005300082AB83A2F73392D16002D2F7F582ACF09E
:10054000E58124F9F8E6FD08E6FE0886F008E6A253
:10055000F73392D56002D2F7F583AFF022FCABF00F
:10056000AA83A982749EC2D1F5821204FC0204AD52
:10057000E582C583F582A2D133A2D592D11392D55B
:10058000ECCFFCEBCEFBEACDFA226040F82582509E
:100590000274FFF582E824F8501ECCCBCAF9E4CCF3
:1005A00024F85014CBCAF9E4CB24F8500BCAF9E470
:1005B000CA24F8500379002224086010F8C3EC1311
:1005C000FCEB13FBEA13FAE913F9D8F122AA8274BF
:1005D000DEC0E07405C0E0C00BC00C8A82220512A8
:1005E000E4B51202051322AA8274302AFA24C650F6
:1005F0000A74072AFA3000034302208A820205CDDA
:10060000E582FAC4540FF582C0021205E7D00274E5
:100610000F5AF5820205E7AA0DAB0EAC0FAD10AE76
:1006200011751820EE2EFEED235401FF4206EA2A32
:10063000FAEB33FBEC33FCED33FDC3EE95144008CD
:10064000EEC39514FE430201D518D98A0D8B0E8C8A
:100650000F8D108E112285820B85830CE4F512F527
:1006600013AA19AB1AAC1B8A828B838CF0120C2F45
:10067000FD74012AF519E43BF51A8C1BEDFA7003A1
:10068000020BE6BA25028003020BDEC204C205C2D9
:1006900006C207C208C209C20AC20BC201C202C214
:1006A000037514007515007516FFAB19AC1AAD1B58
:1006B0008B828C838DF0120C2FFAA3AB82AC838BD0
:1006C000198C1A8D1BBA25078A821205CD80928A51
:1006D00006BE3000402E8A06EE24C6402774FFB5C1
:1006E0001613E51575F00AA4FEEA24D02EF5157050
:1006F000BFD20580BBE51675F00AA4FEEA24D02E11
:10070000F51680ACBA2E0A74FFB516A475160080D3
:100710009F8A06BE6100400E8A06EE24854007537C
:1007200002DFD2008002C200BA20028075BA230321
:100730000207B1BA2A030207B6BA2B02805FBA2DAC
:10074000028055BA4202805FBA43030207FBBA44F3
:1007500003020936BA4503020950BA460302094C9E
:10076000BA4703020954BA4903020936BA4C028057
:100770003BBA4E03020958BA4F0302093DBA50036F
:100780000208CFBA530302081FBA5503020942BA3E
:100790005803020947020982D2040206B0D20602B7
:1007A00006B0D2070206B0D2090206B0D20A02068B
:1007B000B0D20B0206B074FFB5162030090BE51C51
:1007C00014F8881C86150206B0E51C24FEF8881C67
:1007D0008606088607188E150206B030090BE51C40
:1007E00014F8881C86160206B0E51C24FEF8881C46
:1007F0008606088607188E160206B030090AE51C20
:1008000014F8881C8602800FE51C24FEF8881C86DC
:1008100003088604188B028A821205CD020987E537
:100820001C24FDF8881C8603088604088605181811
:100830008B0D8C0E8D0F8B828C838DF0120C64AB24
:1008400082AC838B1774FFB5160385171620041D21
:10085000C3E51795155016E515C39517F515AB1596
:100860001515EB60087582201205CD80F1850D828B
:10087000850E83850FF0120C2FFBFA6029AB16153D
:1008800016C3E464808BF063F08095F050188A8280
:100890001205CDAB0DAC0EAD0F0BBB00010C8B0DDB
:1008A0008C0E8D0F80C7200403020987C3E51795BE
:1008B000154003020987E515C39517F515AB151506
:1008C00015EB70030209877582201205CD80EEE5D5
:1008D0001C24FDF8881C8603088604088605181861
:1008E0008B0D8C0E8D0FE50FFB30E7047A438013E0
:1008F000EB546060047A50800AEB30E6047A498059
:10090000027A588A82C0021205CD75823A1205CD4C
:100910007582301205CD7582781205CDD002BA49A4
:1009200002800BBA50028006850E82120600850DE9
:10093000821206008051D20875140A804A75140884
:10094000804575140A8040751410803BD2018037B1
:10095000D2028033D203802FE51C24FDF8881C8648
:100960000308860408860518188B0D8C0E8D0F8BD6
:10097000828C838DF0E512120C4BA3E513120C4B05
:1009800080058A821205CD20010620020330035A19
:10099000E51C24FCF8881C860308860408860508E4
:1009A00086061818188B0D8C0E8D0F8E10750DF095
:1009B000750E00750F80850D1D850E1E850F1F7429
:1009C00001251DFEE4351EFFAB1F8E0D8F0E8B0F14
:1009D000851D82851E83851FF0120C2FFBFA700384
:1009E0000206618A821205CD80CCE51470030206EE
:1009F000617B2830092BE51C14F8881CE6FC339534
:100A0000E0FDFEFF8C0D8D0E8E0F8F1020085EAC6A
:100A10000D7D007E007F008C0D8D0E8E0F8F10805F
:100A20004C300A1FE51C24FCF8881C860408860547
:100A30000886060886071818188C0D8D0E8E0F8FE5
:100A400010802AE51C24FEF8881C860408860518F8
:100A5000ED3395E0FEFF8C0D8D0E8E0F8F1020086C
:100A60000CAC0DAD0E7E007F008E0F8F10300B434F
:100A7000E50D450E450F451060397408B5140C7529
:100A80008230C0031205CDD00380287410B5142322
:100A9000758230C0031205CDD00330000C7582780A
:100AA000C0031205CDD003800A758258C003120519
:100AB000CDD003300825AC0DAD0EAE0FE510FF30E4
:100AC000E717C3E49CFCE49DFDE49EFEE49FFF8CDD
:100AD0000D8D0E8E0F8F108002C208751700D20C7C
:100AE0008B00751100C000120617D000200C0DE518
:100AF00011C4FCE6FD4CF61888038002A611051708
:100B0000B20CE50D450E450F451070D68803E5156E
:100B1000700375150120051A200417E51704FCC39E
:100B20009515500E758220C0031205CDD003151502
:100B300080E930080E75822DC0031205CDD0031553
:100B4000158024E517602030060E75822BC0031235
:100B500005CDD0031515800F30070C758220C0031A
:100B60001205CDD003151520041EAC151515C3E5CF
:100B7000179C50273005047C3080027C208C82C07A
:100B8000031205CDD00380E2C3E51795155009E5A2
:100B900015C39517F51580037515008B00AB171558
:100BA00017EB6022B20C200C0A08E6C4540FFB8B32
:100BB0001180078603740F5BF511851182C0001246
:100BC00005E7D00080D7200403020661AB15151598
:100BD000EB70030206617582201205CD80EE8A82D9
:100BE0001205CD02066185128285138322AA82BA7C
:100BF0000A0810990280FB75990D10990280FB8AF2
:100C00009922FCABF0AA83A982749EF582C2D1EC32
:100C100030E716D2D1E9F42401F9EAF43400FAEB12
:100C2000F43400FBECF43400FC1204FC0204AD20AC
:100C3000F71430F6148883A88220F507E6A8837598
:100C4000830022E280F7E49322E02220F71030F6BE
:100C5000118883A88220F507F6A88375830022F205
:100C600080F7F022AA82AB83ACF07D007E008A82FE
:100C70008B838CF0120C2FFFA3AA82AB83EF60074B
:100C80000DBD00EA0E80E78D828E832200000000F9
:00000001FF
