:1000000002001E7509FAE4F50AF50BE4F50CF50D8E
:10001000220000000000000000000002036E758155
:10002000E01203BBE5826003020072780079007A77
:10003000007B007C007D00EC4D601C88828983E49D
:1000400093A3A882A9838A828B83F0A3AA82AB831D
:100050001CBCFFE31D80E07582007583007C007D81
:1000600000EC4D600AE4F0A31CBCFFF51D80F21209
:1000700000031208A480FE00000400FF010000013C
:10008000FF00020202FF0001000100010001010265
:1000900000FF000100010001040406FF0001000050
:1000A00001010003030600FF0001FF000001060636
:1000B000010100FF000001FF0005050100FF000134
:1000C00001000001080A050100FF00FF0000FF0910
:1000D000070500FF00010001FF000A0805FF0001FD
:1000E0000001000001070905000100FF00FF0100F9
:1000F0000C0E030100FF00FF0000010D0B0300FFC9
:100100000001000101000E0C03FF000100010000CE
:10011000FF0B0D03000100FF00FFFF00101207009E
:10012000FF0001FF000200110F07FF00010000FFA8
:100130000002121007000100FF0100FE000F11076E
:100140000100FF00000100FE4E6F742072756E6E9C
:10015000696E6720756E64657220434D4F4E353170
:10016000210A001B5B25643B256448001B5B33258B
:10017000646DDBDB001B5B303B33303B34376D00A1
:10018000000032006400C80090011B5B324A1B5B18
:100190003F3235681B5B303B33303B34376D001BDF
:1001A0005B324A1B5B3F32356C001B5B25643B2591
:1001B000644854455452495320627920416C657813
:1001C00065692050617A6869746E6F76001B5B25E3
:1001D000643B2564484F726967696E616C6C792075
:1001E0006279204368726973204769657365001BF3
:1001F0005B25643B256448383035322F4335312048
:10020000706F7274206279204A6573757320436140
:100210006C76696E6F2D4672616761001B5B2564A9
:100220003B256448274B273A526F746174652C2034
:100230002750273A50617573652C202751273A5172
:10024000756974001B5B25643B256448274A273A7F
:100250004C6566742C20274C273A52696768742CC9
:1002600020274D273A446F776E001B5B303B3330BD
:100270003B34376D1B5B25643B25644850726573C6
:10028000732027422720746F20626567696E001B08
:100290005B303B33303B34376D1B5B25643B25645F
:1002A000481B5B4B001B5B303B33303B34376D1BD3
:1002B0005B25643B2564482047414D45204F56450A
:1002C0005220001B5B25643B2564481B5B4B4C653F
:1002D00076656C3A202575001B5B25643B256448D8
:1002E0001B5B4B53636F72653A20257500E582FAFC
:1002F000C31375F018A4FB2421FCAD1AED2CF8866D
:1003000004EA20E01F5304F0EB2421FAED2AF874EC
:1003100007551B4CFAE51B30E7047E0880027E007F
:10032000EE4AF62253040FEB2421FBED2BF8E51BDC
:10033000C454F0FA74705A42047480551B4CF6226F
:10034000E582FAC31375F018A42421FBE51C2BF8F1
:100350008603EA30E005EBC4540FFB74075BFAEB4D
:1003600030E3047B8080027B00EB4AF58222C020D0
:10037000C0E0C0F0C082C083C002C003C004C0059A
:10038000C006C007C000C001C0D075D0007448C00E
:10039000E07401C0E0120BC51581158180FED0D03C
:1003A000D001D000D007D006D005D004D003D002B1
:1003B000D083D082D0F0D0E0D02032C28EC28C75F3
:1003C0008922438780758BFF758DFF758AA5758C93
:1003D000A5D28ED28C75985275820022AA82BA0A52
:1003E0000810990280FB75990D10990280FB8A997B
:1003F000227A00C3EA6480949840030204C97B0017
:10040000C3EB6480948F40030204C58A1C8B82C0B6
:1004100002C003120340E582D003D0025480FCBC2A
:10042000800280030204C18A1C8B82C002C00312B6
:100430000340E582D003D002547FF51B8A1A8B82D9
:10044000C002C0031202EDD003D002C2D575F00283
:10045000EB30E704B2D5F404A430D50AF42401C586
:10046000F0F43400C5F02401FCE435F0FDEAFE337D
:1004700095E0FF0EBE00010FC002C003C004C0051E
:10048000C006C0077463C0E07401C0E0120BC5E58C
:100490008124FAF581D003D0028A1C8B82C002C06D
:1004A00003120340AC827D00C004C005746CC0E040
:1004B0007401C0E0120BC5E58124FCF581D003D0A6
:1004C000020B0204000A0203F37475C0E07401C059
:1004D000E0120BC51581158122AA82C3EA648094BB
:1004E0008F40027A0EC3E50E648094984003750E27
:1004F00017850E1A7480450FF51B8A820202ED855E
:10050000101C120340E582547FF58222AA82E51274
:1005100075F00BA4FB2477FCE43400FD74032CFC81
:10052000E43DFD7E00C3EE648094845051EB24775B
:10053000FFE43400F88F828883A3A3E493F50F854A
:10054000110E8A82C002C003C004C005C006120496
:10055000D9D006D005D004D003D002EE2EFF2CF562
:1005600082E43DF583E4932AFAEF2CFFE43DF88F13
:10057000828883A3E493FF2511F5110E80A7EB2455
:1005800077FBE43400FC8B828C83A3A3E493F50F08
:1005900085110E8A820204D9AA82E51475F00BA493
:1005A0002477FBE43400FC74032BFBE43CFC7D006B
:1005B000C3ED64809484503E85130E750F008A82CB
:1005C000C002C003C004C0051204D9D005D004D0B5
:1005D00003D002ED2DFE2BF582E43CF583E4932A53
:1005E000FAEE2BFEE43CFF8E828F83A3E493FE257C
:1005F00013F5130D80BA85130E750F008A8202045D
:10060000D9AA82E51675F00BA42477FBE43400FC2C
:1006100074032BFBE43CFC7D00C3ED6480948450A8
:10062000438515108A82C002C003C004C0051204AD
:10063000FFE582D005D004D003D0026004758201AA
:1006400022ED2DFE2BF582E43CF583E4932AFAEEAD
:100650002BFEE43CFF8E828F83A3E493FE2515F5E9
:10066000150D80B58515108A821204FFE58260049D
:1006700075820122758200227A00BA1800503D7BF3
:1006800001BB0E0050158A1A751B808B82C002C0F8
:10069000031202EDD003D0020B80E68A1A751B8488
:1006A000758200C0021202EDD0028A1A751B847591
:1006B000820EC0021202EDD0020A80BE7A00BA0F8A
:1006C000005021751A00751B848A82C0021202ED47
:1006D000D002751A17751B848A82C0021202EDD0EF
:1006E000020A80DA227A007B01C3EB64809497507F
:1006F0004F7C007D01C3ED6480948E50218B1C8D56
:1007000082C002C003C004C005120340E582D005C8
:10071000D004D003D002547F60010C0D80D7BC0DF3
:100720001C8B1A751B84758200C002C0031202ED77
:10073000D003D0020A050AE4B50A02050B0B80A912
:10074000EA700122EA2AFA90018093CAA393FBEA95
:10075000250CF50CEB350DF50D7A167B16C3E4640C
:10076000808BF063F08095F040030207F48A048CDC
:100770001C758200C003C004120340E582D004D07F
:100780000330E7051C8C0280E68C02C3EC64809485
:100790008150237C01C3EC6480948E50528B1A7577
:1007A0001B808C82C002C003C0041202EDD004D0B2
:1007B00003D0020C80DF7C01C3EC6480948E502F48
:1007C0008A1C8C82C002C003C004120340E582D0A0
:1007D00004D003F5F0748045F0F51B8B1A8C82C0B1
:1007E00003C0041202EDD004D003D0020C80C91B58
:1007F0001A02075D0203F120980475820022C29854
:10080000859982120CCEE5826007AA995302DF8097
:1008100002AA99BA2C028045BA42028044BA49021F
:100820008037BA4A02802ABA4B02801DBA4C028035
:1008300024BA4D028027BA5002802ABA510280059C
:10084000BA552780087582012275820322758202BB
:10085000227582052275820422758206227582071E
:10086000227582082210980280FB75820022AA82DB
:10087000AB838A048B051ABAFF011BEC4D60112073
:10088000980E7C00C3EC950950E82098E50C80F4A4
:1008900022748AC0E07401C0E0120BC51581158175
:1008A00002001B22749FC0E07401C0E0120BC5154A
:1008B0008115817420C0E0E4C0E07401C0E0E4C0B0
:1008C000E074AAC0E07401C0E0120BC5E58124FA0F
:1008D000F5817420C0E0E4C0E07402C0E0E4C0E050
:1008E00074CDC0E07401C0E0120BC5E58124FAF5B7
:1008F000817420C0E0E4C0E07403C0E0E4C0E074B0
:10090000EFC0E07401C0E0120BC5E58124FAF58167
:100910007420C0E0E4C0E07405C0E0E4C0E0741CF2
:10092000C0E07402C0E0120BC5E58124FAF58174C1
:1009300020C0E0E4C0E07406C0E0E4C0E07444C05D
:10094000E07402C0E0120BC5E58124FAF5811206BD
:10095000781203F17420C0E0E4C0E07408C0E0E461
:10096000C0E0746AC0E07402C0E0120BC5E58124E7
:10097000FAF5811207F7AA82BA0107C0021208919C
:10098000D002BA08EE120678750A01E4F50BE4F518
:100990000CF50D7420C0E0E4C0E07408C0E0E4C0D1
:1009A000E0748FC0E07402C0E0120BC5E58124FA48
:1009B000F581020AFD7B00AC17AD18AE19C003C06B
:1009C00004C005C0061207F7AA82D006D005D004DD
:1009D000D003EA704BE51904FE7B01C3E50A942AB3
:1009E000E50B94005006AF0AA80B80047F2A78001C
:1009F0008F1A881B900032C002C003C004C005C01B
:100A000006120BA8AF82A88374C4C39FF582740931
:100A100098F58312086ED006D005D004D003D0021A
:100A2000309815C003C004C005C0061207F7AA829B
:100A3000D006D005D004D003EA6063AE19BA010332
:100A4000020BA5BA030DE51775F00BA49000779380
:100A5000FC8049BA0217E51775F00BA42477FFE470
:100A60003400F88F828883A3E493FC802FBA050AB0
:100A7000E5186028E51814FD8022BA040FC3E518B4
:100A80006480948E5016E51804FD8010BA070DC3DB
:100A9000E519648094975004E51904FE7B00EDB5D8
:100AA000180BEEB51907ECB517030209B585191334
:100AB000851714851882C003C004C005C00612053E
:100AC00098D006D005D0048E158C168D82C004C037
:100AD00005C006120601E582D006D005D004D00379
:100AE00070098D188E198C17020B93EB7003020B93
:100AF0009385191185171285188212050C75190333
:100B000075180775F013E58A8485F0171206E575E8
:100B10001503851716758207120601E58260227497
:100B20000AC0E0E4C0E0740CC0E0E4C0E074A5C01A
:100B3000E07402C0E0120BC5E58124FAF5810209D8
:100B400054E50A250CF50CE50B350DF50DC00AC072
:100B50000B7420C0E0E4C0E0740FC0E0E4C0E074B7
:100B6000C3C0E07402C0E0120BC5E58124F8F58132
:100B7000C00CC00D7420C0E0E4C0E07410C0E0E41C
:100B8000C0E074D8C0E07402C0E0120BC5E5812457
:100B9000F8F58185191185171285188212050C1236
:100BA00003F10209B5020891E582851AF0A4C58215
:100BB000C0F0851BF0A4D0F025F0C583851AF0A401
:100BC0002583F58322C008858108E50824FDF88681
:100BD0008318868218E493A324DB600C2425600527
:100BE000120CB380F0020CCBD2D5E493A3C083C027
:100BF00082B4731486F018868318868218120CE269
:100C00006054A3120CB380F5B4630818E618120CF4
:100C1000B38043B46447E630E74618E6F42401F6AF
:100C200008E6F43400F6742D120CB38033B4782D3A
:100C3000868318868218E4120CA4E583120CA3E5BF
:100C400083120CA4E582120CA3E582120CA430D509
:100C5000057430120CB3D082D083020BD5B475F674
:100C6000E6FA18E6F9187C107D27120C8EFF7CE856
:100C70007D03120C8EC4F5837C647D00120C8E42C1
:100C800083E975F00A84C445F0F582EF80A97B0002
:100C90000BC3E99CF9EA9DFA50F61BE92CF9EA3DF1
:100CA000FAEB22C4540F700320D51FC2D52490D470
:100CB0003440D4C083C082C0F0F582E8C0E01203A3
:100CC000DCD0E0F8D0F0D082D08322D00822AA82F3
:100CD000BA61004009EA24854004758201227582C8
:100CE000002220F71430F6148883A88220F507E646
:100CF000A88375830022E280F7E49322E0220000BB
:00000001FF
