:100000000200037581431200D3E582600302006F92
:10001000780079007A007B007C007D00EC4D601C4C
:1000200088828983E493A3A882A9838A828B83F040
:10003000A3AA82AB831CBCFFE31D80E07582007520
:1000400083007C007D00EC4D600AE4F0A31CBCFF43
:10005000F51D80F27582007583007C007D00EC4DFB
:10006000600AE4F0A31CBCFFF51D80F21200D2125E
:10007000030E80FE1B5B324A0041444320746573CB
:10008000742070726F6772616D0A46696C653A2000
:1000900025730A436F6D70696C65643A2025732C73
:1000A0002025730A0A0045464D385F4144432E63BC
:1000B000004D617220203720323032340030333A24
:1000C00035323A323100506572696F643A202566E4
:1000D0000D002275A7007597DE7597AD75FF8075C9
:1000E000EF0675A71075C12075A70075A90075A941
:1000F00000E5A930E7FB75A90375A903E5A930E779
:10010000FB43A41075E10175E20075E3407598109A
:10011000758DE6858D8B53890F438921D28ED299B7
:100120007582002275A700C2EF75B28075BC20757C
:10013000B91E75E80075DF3F75B300D2EF22AA82C1
:10014000438E407592B87593FF859294859395750B
:1001500091047B00C3EB9A500BE59130E7FB539180
:100160007F0B80F075910022AA82AB837C007D001A
:10017000C3EC9AED9B502B7E00BE0400501D75828F
:10018000FAC002C003C004C005C00612013ED0067A
:10019000D005D004D003D0020E80DE0CBC00D10DFF
:1001A00080CE22AA828516F005F07401800225E037
:1001B000D5F0FBFB75A720BA0002800ABA010280C5
:1001C0000FBA021E8014EBF4FA52F1EB42D4801203
:1001D000EBF4FA52F2EB42D58008EBF4FA52F3EB6F
:1001E00042CC75A700228582BBC2EDD2EC30EDFD7A
:1001F00085BD8285BE83221201E612045AAA82AB13
:1002000083ACF0FDC002C003C004C005906C8B75C8
:10021000F0537440120466AA82AB83ACF0FDE58112
:1002200024FCF581E4C0E074FCC0E0747FC0E0749D
:1002300046C0E08A828B838CF0ED1205BBAA82ABAC
:1002400083ACF0FDE58124FCF5818A828B838CF000
:10025000ED22C2EDD2EC30EDFD85BD8285BE83225C
:1002600075BB11C2EDD2EC30EDFD758A00758C00C6
:10027000120252E5828583F045F070F4120252E5D5
:10028000828583F045F060F4D28C120252E58285BB
:1002900083F045F070F4C28C858C82120509AA8225
:1002A000AB83ACF0FDC002C003C004C005900000E9
:1002B00075F0807443120466AA82AB83ACF0FDE54E
:1002C0008124FCF581AE8A7F008E828F83C002C0BC
:1002D00003C004C0051205AEAE82AF83A8F0F9D00A
:1002E00005D004D003D002C006C007C000C0018AF8
:1002F000828B838CF0ED120514AA82AB83ACF0FDE7
:10030000E58124FCF5818A828B838CF0ED229001BB
:10031000F41201687474C0E07400C0E07480C0E03E
:1003200012058215811581158174BDC0E07400C06D
:10033000E07480C0E074B1C0E07400C0E07480C0BC
:10034000E074A6C0E07400C0E07480C0E07479C0BE
:10035000E07400C0E07480C0E0120582E58124F4FE
:10036000F5817516047582021201A3751605758252
:10037000021201A31201247582111201F7AA82ABA5
:1003800083ACF0FD8A098B0A8C0B8D0C75821212DE
:1003900001F7AA82AB83ACF0FD8A0D8B0E8C0F8D1A
:1003A0001012026085821185831285F013F514C046
:1003B00011C012C013C01490800075F0BB744612B7
:1003C0000466AE82AF83AAF0FBE58124FCF581745C
:1003D00040C0E07454C0E07489C0E0744CC0E08E4A
:1003E000828F838AF0EB1205BBAA82AB83ACF0FD4F
:1003F000E58124FCF581C002C003C004C00574C6B9
:10040000C0E07400C0E07480C0E0120582E5812481
:10041000F9F581120252E5828583F045F070F4C04F
:10042000E0C0E0C0E07440C0E085118285128385A1
:1004300013F0E5141205BBAA82AB83ACF0FDE58195
:1004400024FCF5818A828B838CF0ED1205A31201C6
:10045000689001F4120168020377E4AC83AB82FA7E
:10046000F9748E0206E312076FBC000302070EEF59
:1004700060FA30D502B2D1E583B4FF03020724E568
:1004800082B4FF03020724258340072482400B0225
:10049000070E2483145003020724F582EA8DF0A48A
:1004A000A8F0EA8EF0A428F8E435F0F9EB8DF0A47A
:1004B00028E935F0F9E433CA8FF0A429F9EA35F0D8
:1004C000FAEBF88EF0A429F9EA35F0FAE433FBEC04
:1004D0008DF0A429F9EA35F0FAE43BFBE88FF0A4AB
:1004E0002AFAEB35F0FBE433CCFD8EF0A42AFAEBCC
:1004F00035F0FBE43CFCED8FF0A42BFBEC35F0FC7D
:1005000020E70312073C0206EDE4AC82FBFAF97423
:10051000860206E312076F7900E583B58202800D3B
:10052000500312079DE583C395821207B7E5D0C437
:1005300065D020E117EA2DFAEB3EFBEC3FFC5009B9
:1005400074011207B7EC4480FC0206EDC3EA9DFA81
:10055000EB9EFBEC9FFC500FC3E499F9E49AFAE49C
:100560009BFBE49CFCB2D112073C0206ED02118613
:1005700085823085833185F03285153390056D0293
:100580000BD9C008858108E50824FBF533E508246C
:10059000FBF8863008863108863290056D120BD93B
:1005A000D008227F8E12119DF58385F08222AC83C4
:1005B000AB827A007900748E0211CB12076F30D5AE
:1005C00002B2D1BF0009BC0003020731020724BCFC
:1005D000000302070EE583B4FF0BE582B4FF0302BC
:1005E000073102070EE582B4FF03020724C3958397
:1005F0005007247F400B02070E248014500302078B
:1006000024C0E0E4CCCBCAF98D168E178F18EF54B6
:10061000F0C4F5197583068519F0EB84F582E9C4F9
:10062000F9EAC4FAEBC4FBEC540FC47803D6FC1807
:10063000EBD6FB18EAD6FA8582F0EDA4A8F0FD858A
:1006400082F0EEA428FEE435F0F88582F0EFA428CD
:10065000FFE435F0F8E99DF9EA9EFAEB9FFBEC9890
:10066000FCAD16AE17AF1830E7101582E92DF9EA88
:100670003EFAEB3FFBE43CFC80EDC082D58398C39F
:10068000E933F9EA33FAEB33FBEC33FCC3E99DEAD7
:100690009EEB9FEC9400B3E413F9D002D0E0C44A7F
:1006A000FAD003D0E0C44BFBD004D0E0F5F0540FF7
:1006B000C44CFCD082158230F40FD3EC13FCEB1346
:1006C000FBEA13FAE913F90582E930E70A74012A13
:1006D000FAE43BFBE43CFC020705FCABF0AA83A96F
:1006E00082749EC2D1F58212073C0206EDB98003E6
:1006F000EA13B34010EA2401FAE43BFBE43CFC506B
:10070000047C800582BC000EBB000BBA0008E4F537
:10071000F0F583F58222A2D1E582138CF092F78B5B
:10072000838A8222E4F583F58275F080F4A2D113E6
:1007300022E4F583F58275F0C0747F227804EC70B2
:1007400011E58224F8500AF582E4C9CACBFCD8EF3F
:1007500022EC7820058220E713D5820122C3E933F9
:10076000F9EA33FAEB33FBEC33FCD8EA158222AA20
:1007700082AB83A2F73392D16002D2F7F582ACF05C
:10078000E58124F9F8E6FD08E6FE0886F008E6A211
:10079000F73392D56002D2F7F583AFF022E582C538
:1007A00083F582A2D133A2D592D11392D5ECCFFC9E
:1007B000EBCEFBEACDFA226040F82582500274FFAE
:1007C000F582E824F8501ECCCBCAF9E4CC24F850CA
:1007D00014CBCAF9E4CB24F8500BCAF9E4CA24F8C4
:1007E000500379002224086010F8C3EC13FCEB13CB
:1007F000FBEA13FAE913F9D8F122AA82740BC0E0DC
:100800007408C0E0C022C0238A82220529E4B529E9
:1008100002052A22AA8274302AFA24C6500A7407D2
:100820002AFA3000034302208A820207FAE582FA9C
:10083000C4540FF582C002120814D002740F5AF586
:1008400082020814AA24AB25AC26AD27AE28752F4A
:1008500020EE2EFEED235401FF4206EA2AFAEB3386
:10086000FBEC33FCED33FDC3EE952B4008EEC39556
:100870002BFE430201D52FD98A248B258C268D2768
:100880008E28227840E624D075F00AA4FA7841E652
:1008900024D02AFA783F8603BB2D04C3E49AFA7564
:1008A0002B01C3E464808AF063F08095F0502975D1
:1008B0002F038A0374F6252F401C052BE52F1424E3
:1008C00034F8E52F2434F98704A604772E1BEBFABD
:1008D0006004052F80DE8B02EA30E70D7835860351
:1008E0007836A6037835762E0AE52D600AE52D04C4
:1008F000FB252BF52B8005300B02052B7834860366
:10090000E4BB2D0104FB7006200603300702052B13
:100910003004030209CA300557EB600C75822DC004
:10092000021207FAD002801C30060C75822BC0021E
:100930001207FAD002800D30070A758220C0021219
:1009400007FAD00278358604BC2E0C758230C002BE
:100950001207FAD002152CAC2C152CC3E52B9C40A9
:1009600003020A0E758230C0021207FAD00280E735
:10097000AC2C152CC3E52B9C500C758220C00212A8
:1009800007FAD00280EA78348604BC2D0C75822DDB
:10099000C0021207FAD002801C30060C75822BC0F0
:1009A000021207FAD002800D30070A758220C002B9
:1009B0001207FAD00278358604BC2E52758230C0F8
:1009C000021207FAD002152C8044EB600E75822DBE
:1009D000C0021207FAD002152C802030060E758254
:1009E0002BC0021207FAD002152C800F30070C75AD
:1009F0008220C0021207FAD002152C78358603BB7C
:100A00002E0C758230C0021207FAD002152C752FF9
:100A100001C20DE52F2434F88603BB4503020ACB3F
:100A2000BB2E348A03C3E464808BF063F08095F0BE
:100A3000500F758230C0031207FAD0031B8B02805F
:100A4000E48B02D20DE52D7038200B03020ACB7522
:100A5000822E1207FA8074300D278A03EB30E71FCD
:100A6000C3E46480852DF063F08095F0500C7582AE
:100A700030C0031207FAD003152D0B8B0280DD8BDB
:100A800002300D0EC3E46480852DF063F08095F094
:100A90005021E52F2434F886038B82C0021207FA16
:100AA000D002300D0EE52F2434F88603BB2E0280D1
:100AB00002152D152CC3E46480852DF063F080951C
:100AC000F04003200D05052F020A13C3E46480855E
:100AD0002DF063F08095F0500A7582301207FA15F8
:100AE0002D80E830040FAA2C152CEA6008758220AE
:100AF0001207FA80F122E52D7003300B0D740725E3
:100B00002DFAE52CC39AF52C8006E52C24FAF52C59
:100B1000752F0078348602BA2B0F20060C783476B5
:100B200020200705752F01052C200419AA2CC3E4E9
:100B300064808AF063F08095F0500A758220120775
:100B4000FA152C80E7C20DE52F2434F88602BA008E
:100B5000028069BA451F3000027665C3E46480856F
:100B60002DF063F08095F0500A7582301207FA1567
:100B70002D80E8D20DC3E52F9402E433FA7014EA15
:100B8000700EC3E46480852DF063F08095F040031F
:100B9000300D16E52F2434F886028A821207FAE512
:100BA0002F24FD5012152D800E7402B52F09300B25
:100BB0000675822E1207FA052F020B47300419AA78
:100BC0002CC3E464808AF063F08095F0500A75824B
:100BD000201207FA152C80E722858222858323E4E0
:100BE000F529F52AAA30AB31AC328A828B838CF09E
:100BF0001211EFFD74012AF530E43BF5318C32ED32
:100C0000FA700302117FBA25028003021177C20431
:100C1000C205C206C207C208C209C20AC20BC2018B
:100C2000C202C203752B00752C00752DFFAB30ACD2
:100C300031AD328B828C838DF01211EFFAA3AB822F
:100C4000AC838B308C318D32BA25078A821207FA39
:100C500080928A06BE3000402E8A06EE24C64027C7
:100C600074FFB52D13E52C75F00AA4FEEA24D02EEE
:100C7000F52C70BFD20580BBE52D75F00AA4FEEA05
:100C800024D02EF52D80ACBA2E0A74FFB52DA47594
:100C90002D00809F8A06BE6100400E8A06EE2485E4
:100CA00040075302DFD2008002C200BA20028075E2
:100CB000BA2303020D34BA2A03020D39BA2B02807B
:100CC0005FBA2D028055BA4202805FBA4303020D1B
:100CD0007EBA4403020EB9BA4503020ED3BA4603E4
:100CE000020ECFBA4703020ED7BA4903020EB9BAB1
:100CF0004C02803BBA4E03020EDBBA4F03020EC019
:100D0000BA5003020E52BA5303020DA2BA5503029F
:100D10000EC5BA5803020ECA020F05D204020C33E4
:100D2000D206020C33D207020C33D209020C33D2A2
:100D30000A020C33D20B020C3374FFB52D2030099C
:100D40000BE53314F88833862C020C33E53324FE8C
:100D5000F888338606088607188E2C020C33300973
:100D60000BE53314F88833862D020C33E53324FE6B
:100D7000F888338606088607188E2D020C33300952
:100D80000AE53314F888338602800FE53324FEF831
:100D900088338603088604188B028A821207FA02B7
:100DA0000F0AE53324FDF888338603088604088695
:100DB0000518188B248C258D268B828C838DF01240
:100DC0001343AB82AC838B2E74FFB52D03852E2D80
:100DD00020041DC3E52E952C5016E52CC3952EF549
:100DE0002CAB2C152CEB60087582201207FA80F1D1
:100DF0008524828525838526F01211EFFBFA602970
:100E0000AB2D152DC3E464808BF063F08095F0501A
:100E1000188A821207FAAB24AC25AD260BBB000161
:100E20000C8B248C258D2680C7200403020F0AC357
:100E3000E52E952C4003020F0AE52CC3952EF52CC8
:100E4000AB2C152CEB7003020F0A7582201207FAE7
:100E500080EEE53324FDF88833860308860408868F
:100E60000518188B248C258D26E526FB30E7047A9F
:100E7000438013EB546060047A50800AEB30E60440
:100E80007A4980027A588A82C0021207FA75823A39
:100E90001207FA7582301207FA7582781207FAD0B3
:100EA00002BA4902800BBA500280068525821208D8
:100EB0002D85248212082D8051D208752B0A804A74
:100EC000752B088045752B0A8040752B10803BD20E
:100ED000018037D2028033D203802FE53324FDF81E
:100EE0008833860308860408860518188B248C2509
:100EF0008D268B828C838DF0E52912132AA3E52A97
:100F000012132A80058A821207FA200106200203A2
:100F1000300370E53324FCF8883386030886040820
:100F200086050886061818188B248C258D268E2792
:100F3000E524E525E526E5278B828C838DF0EE12EE
:100F4000120B74FFB52D03752D06300327747F55E2
:100F500027FB8B28E528EB2BFB8B28E52630E706C3
:100F600074014528F528E528246840067499252849
:100F70004002D202300206120AF6020BE412088383
:100F8000020BE4E52B7003020BE47B3930092BE5FF
:100F90003314F88833E6FC3395E0FDFEFF8C248D96
:100FA000258E268F2720085EAC247D007E007F00E2
:100FB0008C248D258E268F27804C300A1FE5332404
:100FC000FCF8883386040886050886060886071814
:100FD00018188C248D258E268F27802AE53324FE31
:100FE000F88833860408860518ED3395E0FEFF8CFB
:100FF000248D258E268F2720080CAC24AD257E005D
:101000007F008E268F27300B43E524452545264556
:101010002760397408B52B0C758230C0031207FAAB
:10102000D00380287410B52B23758230C0031207BB
:10103000FAD00330000C758278C0031207FAD0038F
:10104000800A758258C0031207FAD003300825AC15
:1010500024AD25AE26E527FF30E717C3E49CFCE46A
:101060009DFDE49EFEE49FFF8C248D258E268F2718
:101070008002C208752E00D20C8B00752800C000BB
:10108000120844D000200C0DE528C4FCE6FD4CF607
:101090001888038002A628052EB20CE524452545B4
:1010A00026452770D68803E52C7003752C01200592
:1010B0001A200417E52E04FCC3952C500E758220CF
:1010C000C0031207FAD003152C80E930080E758290
:1010D0002DC0031207FAD003152C8024E52E6020C2
:1010E00030060E75822BC0031207FAD003152C8030
:1010F0000F30070C758220C0031207FAD003152C9D
:1011000020041EAC2C152CC3E52E9C502730050462
:101110007C3080027C208C82C0031207FAD00380CE
:10112000E2C3E52E952C5009E52CC3952EF52C80B5
:1011300003752C008B00AB2E152EEB6022B20C2019
:101140000C0A08E6C4540FFB8B2880078603740F33
:101150005BF528852882C000120814D00080D720B3
:101160000403020BE4AB2C152CEB7003020BE475AB
:1011700082201207FA80EE8A821207FA020BE485B7
:101180002982852A8322AA82BA0A0810990280FB42
:1011900075990D10990280FB8A99227F9E12136B1C
:1011A00030D10302070EC3EF9582500974FFF5F0AA
:1011B000F583F5822279001207B789828A838BF042
:1011C000EC22FCABF0AA83A982749EF582C2D1EC1A
:1011D00030E716D2D1E9F42401F9EAF43400FAEB4D
:1011E000F43400FBECF43400FC12073C0206ED2062
:1011F000F71430F6148883A88220F507E6A88375D3
:10120000830022E280F7E49322E022C0E0F84582E6
:10121000458345F07009F5F0FBFCFDFE0212D9E8AC
:1012200023A2F792E0F8A982AA83D2F7ABF07C0060
:101230007E07C3749798404074FF2EFE740A89F0AD
:10124000A4F985F082740A8AF0A4FA85F083740AFE
:101250008BF0A4FB740529F9EA3582FAEB3583FBA0
:10126000740035F0FCC3EC13FCEB13FBEA13FAE952
:1012700013F908EC70EF80BAE8C3947FF88B838E83
:10128000F0E4FBFCFDFEFF08C3E933F9EA33FAE5BD
:101290008333F583EB3BD4FBEC3CD4FCED3DD4FD38
:1012A000EE3ED4FEEF3FD4FF602D05F074052BD445
:1012B000FBE43CD4FCE43DD4FDE43ED4FEE43FD466
:1012C000FF758204C3EF13FFEE13FEED13FDEC1365
:1012D000FCEB13FBD582EDD8AF7834D0E020E704E7
:1012E000762B8002762D087906E7C4540F4430F639
:1012F00008B90603762E08E7540F4430F60819B9EA
:1013000002E7764508E5F020E704762B8004762D89
:10131000F4040875F00A844430F608E5F04430F629
:1013200008E4F690003475F0402220F71030F611F2
:101330008883A88220F507F6A88375830022F280AF
:10134000F7F022AA82AB83ACF07D007E008A828B0C
:10135000838CF01211EFFFA3AA82AB83EF60070D1D
:10136000BD00EA0E80E78D828E8322AA82AB83A223
:10137000F73392D16002D2F7F582ACF02200000080
:00000001FF
