:100000000200037581431200D3E582600302006F92
:10001000780079007A007B007C007D00EC4D601C4C
:1000200088828983E493A3A882A9838A828B83F040
:10003000A3AA82AB831CBCFFE31D80E07582007520
:1000400083007C007D00EC4D600AE4F0A31CBCFF43
:10005000F51D80F27582007583007C007D00EC4DFB
:10006000600AE4F0A31CBCFFF51D80F21200D2125E
:1000700003BF80FE1B5B324A00414443207465731A
:10008000742070726F6772616D0A46696C653A2000
:1000900025730A436F6D70696C65643A2025732C73
:1000A0002025730A0A0045464D385F4144432E63BC
:1000B000004D617220203720323032340030363A21
:1000C00031393A343300506572696F643A202566DD
:1000D0000D002275A7007597DE7597AD75FF8075C9
:1000E000EF0675A71075C12075A70075A90075A941
:1000F00000E5A930E7FB75A90375A903E5A930E779
:10010000FB43A41075E10175E20075E3407598109A
:10011000758DE6858D8B53890F438921D28ED299B7
:100120007582002275A700C2EF75B28075BC20757C
:10013000B91E75E80075DF3F75B300D2EF22AA82C1
:10014000438E407592B87593FF859294859395750B
:1001500091047B00C3EB9A500BE59130E7FB539180
:100160007F0B80F075910022AA82AB837C007D001A
:10017000C3EC9AED9B502B7E00BE0400501D75828F
:10018000FAC002C003C004C005C00612013ED0067A
:10019000D005D004D003D0020E80DE0CBC00D10DFF
:1001A00080CE22AA828516F005F07401800225E037
:1001B000D5F0FBFB75A720BA0002800ABA010280C5
:1001C0000FBA021E8014EBF4FA52F1EB42D4801203
:1001D000EBF4FA52F2EB42D58008EBF4FA52F3EB6F
:1001E00042CC75A700228582BBC2EDD2EC30EDFD7A
:1001F00085BD8285BE83221201E61204D1AA82AB9C
:1002000083ACF0FDC002C003C004C005906C8B75C8
:10021000F05374401204DDAA82AB83ACF0FDE5819B
:1002200024FCF581E4C0E074FCC0E0747FC0E0749D
:1002300046C0E08A828B838CF0ED120627AA82AB3F
:1002400083ACF0FDE58124FCF5818A828B838CF000
:10025000ED22C2EDD2EC30EDFD85BD8285BE83225C
:1002600075BB11C2EDD2EC30EDFD758A00758C00C6
:10027000120252E5828583F045F070F4120252E5D5
:10028000828583F045F060F4D28C120252E58285BB
:1002900083F045F070F4C28C858C82120580AA82AE
:1002A000AB83ACF0FDC002C003C004C005900000E9
:1002B00075F08074431204DDAA82AB83ACF0FDE5D7
:1002C0008124FCF581AE8A7F008E828F83C002C0BC
:1002D00003C004C00512061AAE82AF83A8F0F9D09D
:1002E00005D004D003D002C006C007C000C0018AF8
:1002F000828B838CF0ED12058BAA82AB83ACF0FD70
:10030000E58124FCF5818A828B838CF0ED2275BB1C
:1003100011C2EDD2EC30EDFD758A00758C00120231
:1003200052E5828583F045F070F4120252E5828531
:1003300083F045F060F4D28C75BB12120252E58254
:100340008583F045F070F4C28C858C82120580AAFA
:1003500082AB83ACF0FDC002C003C004C0059000B6
:100360000075F08074431204DDAA82AB83ACF0FD0B
:10037000E58124FCF581AE8A7F008E828F83C002E6
:10038000C003C004C00512061AAE82AF83A8F0F9FC
:10039000D005D004D003D002C006C007C000C00101
:1003A0008A828B838CF0ED12058BAA82AB83ACF032
:1003B000FDE58124FCF5818A828B838CF0ED22900F
:1003C00001F41201687474C0E07400C0E07480C06D
:1003D000E01205F915811581158174BDC0E0740026
:1003E000C0E07480C0E074B1C0E07400C0E074800C
:1003F000C0E074A6C0E07400C0E07480C0E074790E
:10040000C0E07400C0E07480C0E01205F9E581240A
:10041000F4F5817516047582021201A3751605752F
:1004200082021201A31201247582111201F7AA821D
:10043000AB83ACF0FD8A098B0A8C0B8D0C75821294
:100440001201F7AA82AB83ACF0FD8A0D8B0E8C0FE4
:100450008D10120260AA82AB83ACF0FDC002C00313
:10046000C004C00590800075F0BB74461204DD85A1
:10047000821185831285F013F514E58124FCF58142
:100480007440C0E07454C0E07489C0E0744CC0E0B3
:100490008511828512838513F0E514120627AA823E
:1004A000AB83ACF0FDE58124FCF581C002C003C044
:1004B00004C00574C6C0E07400C0E07480C0E012DF
:1004C00005F9E58124F9F5819001F412016802042F
:1004D00028E4AC83AB82FAF9748E02074F1207DB73
:1004E000BC000302077AEF60FA30D502B2D1E5838F
:1004F000B4FF03020790E582B4FF0302079025834F
:1005000040072482400B02077A2483145003020719
:1005100090F582EA8DF0A4A8F0EA8EF0A428F8E421
:1005200035F0F9EB8DF0A428E935F0F9E433CA8F02
:10053000F0A429F9EA35F0FAEBF88EF0A429F9EAEB
:1005400035F0FAE433FBEC8DF0A429F9EA35F0FA42
:10055000E43BFBE88FF0A42AFAEB35F0FBE433CC64
:10056000FD8EF0A42AFAEB35F0FBE43CFCED8FF0B5
:10057000A42BFBEC35F0FC20E7031207A802075977
:10058000E4AC82FBFAF9748602074F1207DB7900AC
:10059000E583B58202800D5003120809E583C395F7
:1005A00082120823E5D0C465D020E117EA2DFAEBCA
:1005B0003EFBEC3FFC50097401120823EC4480FC24
:1005C000020759C3EA9DFAEB9EFBEC9FFC500FC358
:1005D000E499F9E49AFAE49BFBE49CFCB2D112079B
:1005E000A80207590211F285823085833185F032E5
:1005F0008515339005E4020C45C008858108E5089F
:1006000024FBF533E50824FBF8863008863108869C
:10061000329005E4120C45D00822AC83AB827A00FC
:100620007900748E0212101207DB30D502B2D1BFEE
:100630000009BC000302079D020790BC00030207EB
:100640007AE583B4FF0BE582B4FF0302079D02073E
:100650007AE582B4FF03020790C395835007247F95
:10066000400B02077A2480145003020790C0E0E494
:10067000CCCBCAF98D168E178F18EF54F0C4F5192C
:100680007583068519F0EB84F582E9C4F9EAC4FAAA
:10069000EBC4FBEC540FC47803D6FC18EBD6FB1864
:1006A000EAD6FA8582F0EDA4A8F0FD8582F0EEA4EA
:1006B00028FEE435F0F88582F0EFA428FFE435F059
:1006C000F8E99DF9EA9EFAEB9FFBEC98FCAD16AEBB
:1006D00017AF1830E7101582E92DF9EA3EFAEB3F23
:1006E000FBE43CFC80EDC082D58398C3E933F9EA92
:1006F00033FAEB33FBEC33FCC3E99DEA9EEB9FEC52
:100700009400B3E413F9D002D0E0C44AFAD003D085
:10071000E0C44BFBD004D0E0F5F0540FC44CFCD047
:1007200082158230F40FD3EC13FCEB13FBEA13FABF
:10073000E913F90582E930E70A74012AFAE43BFB80
:10074000E43CFC020771FCABF0AA83A982749EC250
:10075000D1F5821207A8020759B98003EA13B34002
:1007600010EA2401FAE43BFBE43CFC50047C8005E5
:1007700082BC000EBB000BBA0008E4F5F0F583F56F
:100780008222A2D1E582138CF092F78B838A822297
:10079000E4F583F58275F080F4A2D11322E4F583A9
:1007A000F58275F0C0747F227804EC7011E5822424
:1007B000F8500AF582E4C9CACBFCD8EF22EC7820C5
:1007C000058220E713D5820122C3E933F9EA33FA1F
:1007D000EB33FBEC33FCD8EA158222AA82AB83A26E
:1007E000F73392D16002D2F7F582ACF0E58124F9BB
:1007F000F8E6FD08E6FE0886F008E6A2F73392D593
:100800006002D2F7F583AFF022E582C583F582A2BC
:10081000D133A2D592D11392D5ECCFFCEBCEFBEA2B
:10082000CDFA226040F82582500274FFF582E82458
:10083000F8501ECCCBCAF9E4CC24F85014CBCAF93A
:10084000E4CB24F8500BCAF9E4CA24F85003790029
:100850002224086010F8C3EC13FCEB13FBEA13FA34
:10086000E913F9D8F122AA827477C0E07408C0E0D5
:10087000C022C0238A82220529E4B52902052A2242
:10088000AA8274302AFA24C6500A74072AFA300061
:10089000034302208A82020866E582FAC4540FF5F7
:1008A00082C002120880D002740F5AF582020880BA
:1008B000AA24AB25AC26AD27AE28752F20EE2EFE40
:1008C000ED235401FF4206EA2AFAEB33FBEC33FC3A
:1008D000ED33FDC3EE952B4008EEC3952BFE43028E
:1008E00001D52FD98A248B258C268D278E28227816
:1008F00040E624D075F00AA4FA7841E624D02AFA1A
:10090000783F8603BB2D04C3E49AFA752B01C3E438
:1009100064808AF063F08095F05029752F038A0374
:1009200074F6252F401C052BE52F142434F8E52FF1
:100930002434F98704A604772E1BEBFA6004052FF4
:1009400080DE8B02EA30E70D783586037836A60321
:100950007835762E0AE52D600AE52D04FB252BF56A
:100960002B8005300B02052B78348603E4BB2D0168
:1009700004FB7006200603300702052B3004030237
:100980000A36300557EB600C75822DC002120866DE
:10099000D002801C30060C75822BC002120866D073
:1009A00002800D30070A758220C002120866D0024C
:1009B00078358604BC2E0C758230C002120866D0D1
:1009C00002152CAC2C152CC3E52B9C4003020A7A93
:1009D000758230C002120866D00280E7AC2C152C5C
:1009E000C3E52B9C500C758220C002120866D00211
:1009F00080EA78348604BC2D0C75822DC002120862
:100A000066D002801C30060C75822BC0021208666C
:100A1000D002800D30070A758220C002120866D00D
:100A20000278358604BC2E52758230C002120866E8
:100A3000D002152C8044EB600E75822DC002120886
:100A400066D002152C802030060E75822BC0021253
:100A50000866D002152C800F30070C758220C0026A
:100A6000120866D002152C78358603BB2E0C7582D1
:100A700030C002120866D002152C752F01C20DE598
:100A80002F2434F88603BB4503020B37BB2E348A70
:100A900003C3E464808BF063F08095F0500F75829F
:100AA00030C003120866D0031B8B0280E48B02D295
:100AB0000DE52D7038200B03020B3775822E1208BE
:100AC000668074300D278A03EB30E71FC3E464802F
:100AD000852DF063F08095F0500C758230C00312C4
:100AE0000866D003152D0B8B0280DD8B02300D0EB6
:100AF000C3E46480852DF063F08095F05021E52FEC
:100B00002434F886038B82C002120866D002300DAE
:100B10000EE52F2434F88603BB2E028002152D1516
:100B20002CC3E46480852DF063F08095F0400320B1
:100B30000D05052F020A7FC3E46480852DF063F064
:100B40008095F0500A758230120866152D80E830C5
:100B5000040FAA2C152CEA60087582201208668002
:100B6000F122E52D7003300B0D7407252DFAE52CCD
:100B7000C39AF52C8006E52C24FAF52C752F007805
:100B8000348602BA2B0F20060C7834762020070515
:100B9000752F01052C200419AA2CC3E464808AF067
:100BA00063F08095F0500A758220120866152C803B
:100BB000E7C20DE52F2434F88602BA00028069BA34
:100BC000451F3000027665C3E46480852DF063F034
:100BD0008095F0500A758230120866152D80E8D293
:100BE0000DC3E52F9402E433FA7014EA700EC3E4E7
:100BF0006480852DF063F08095F04003300D16E59C
:100C00002F2434F886028A82120866E52F24FD50CC
:100C100012152D800E7402B52F09300B0675822E29
:100C2000120866052F020BB3300419AA2CC3E46422
:100C3000808AF063F08095F0500A75822012086671
:100C4000152C80E722858222858323E4F529F52A65
:100C5000AA30AB31AC328A828B838CF0121234FD15
:100C600074012AF530E43BF5318C32EDFA70030261
:100C700011EBBA250280030211E3C204C205C206C9
:100C8000C207C208C209C20AC20BC201C202C20321
:100C9000752B00752C00752DFFAB30AC31AD328B50
:100CA000828C838DF0121234FAA3AB82AC838B302A
:100CB0008C318D32BA25078A8212086680928A06A4
:100CC000BE3000402E8A06EE24C6402774FFB52DA4
:100CD00013E52C75F00AA4FEEA24D02EF52C70BF83
:100CE000D20580BBE52D75F00AA4FEEA24D02EF5CE
:100CF0002D80ACBA2E0A74FFB52DA4752D00809FEF
:100D00008A06BE6100400E8A06EE24854007530223
:100D1000DFD2008002C200BA20028075BA2303022B
:100D20000DA0BA2A03020DA5BA2B02805FBA2D02CC
:100D30008055BA4202805FBA4303020DEABA440307
:100D4000020F25BA4503020F3FBA4603020F3BBA12
:100D50004703020F43BA4903020F25BA4C02803BF6
:100D6000BA4E03020F47BA4F03020F2CBA500302C8
:100D70000EBEBA5303020E0EBA5503020F31BA5813
:100D800003020F36020F71D204020C9FD206020C2E
:100D90009FD207020C9FD209020C9FD20A020C9F1D
:100DA000D20B020C9F74FFB52D2030090BE53314D4
:100DB000F88833862C020C9FE53324FEF8883386AE
:100DC00006088607188E2C020C9F30090BE5331499
:100DD000F88833862D020C9FE53324FEF88833868D
:100DE00006088607188E2D020C9F30090AE5331479
:100DF000F888338602800FE53324FEF888338603B3
:100E0000088604188B028A82120866020F76E53380
:100E100024FDF88833860308860408860518188B95
:100E2000248C258D268B828C838DF0121388AB82C7
:100E3000AC838B2E74FFB52D03852E2D20041DC38E
:100E4000E52E952C5016E52CC3952EF52CAB2C15C4
:100E50002CEB600875822012086680F1852482855B
:100E600025838526F0121234FBFA6029AB2D152D4F
:100E7000C3E464808BF063F08095F050188A82128E
:100E80000866AB24AC25AD260BBB00010C8B248C73
:100E9000258D2680C7200403020F76C3E52E952CEE
:100EA0004003020F76E52CC3952EF52CAB2C152CA8
:100EB000EB7003020F7675822012086680EEE53330
:100EC00024FDF88833860308860408860518188BE5
:100ED000248C258D26E526FB30E7047A438013EB2E
:100EE000546060047A50800AEB30E6047A4980024C
:100EF0007A588A82C00212086675823A12086675AC
:100F00008230120866758278120866D002BA4902E9
:100F1000800BBA50028006852582120899852482AA
:100F20001208998051D208752B0A804A752B0880C7
:100F300045752B0A8040752B10803BD2018037D23B
:100F4000028033D203802FE53324FDF888338603F3
:100F500008860408860518188B248C258D268B821C
:100F60008C838DF0E52912136FA3E52A12136F808D
:100F7000058A82120866200106200203300370E50C
:100F80003324FCF88833860308860408860508861F
:100F9000061818188B248C258D268E27E524E52528
:100FA000E526E5278B828C838DF0EE12125074FFBC
:100FB000B52D03752D06300327747F5527FB8B282D
:100FC000E528EB2BFB8B28E52630E7067401452846
:100FD000F528E52824684006749925284002D202A5
:100FE000300206120B62020C501208EF020C50E5A0
:100FF0002B7003020C507B3930092BE53314F88831
:1010000033E6FC3395E0FDFEFF8C248D258E268F84
:101010002720085EAC247D007E007F008C248D2577
:101020008E268F27804C300A1FE53324FCF8883346
:1010300086040886050886060886071818188C2472
:101040008D258E268F27802AE53324FEF888338667
:101050000408860518ED3395E0FEFF8C248D258E5F
:10106000268F2720080CAC24AD257E007F008E261D
:101070008F27300B43E524452545264527603974E5
:1010800008B52B0C758230C003120866D003802887
:101090007410B52B23758230C003120866D003305C
:1010A000000C758278C003120866D003800A75822E
:1010B00058C003120866D003300825AC24AD25AE15
:1010C00026E527FF30E717C3E49CFCE49DFDE49E82
:1010D000FEE49FFF8C248D258E268F278002C20878
:1010E000752E00D20C8B00752800C0001208B0D0FD
:1010F00000200C0DE528C4FCE6FD4CF618880380A2
:1011000002A628052EB20CE5244525452645277064
:10111000D68803E52C7003752C0120051A200417CE
:10112000E52E04FCC3952C500E758220C0031208D6
:1011300066D003152C80E930080E75822DC003128D
:101140000866D003152C8024E52E602030060E752D
:10115000822BC003120866D003152C800F30070CB9
:10116000758220C003120866D003152C20041EAC23
:101170002C152CC3E52E9C50273005047C308002B2
:101180007C208C82C003120866D00380E2C3E52E67
:10119000952C5009E52CC3952EF52C8003752C0059
:1011A0008B00AB2E152EEB6022B20C200C0A08E649
:1011B000C4540FFB8B2880078603740F5BF52885CA
:1011C0002882C000120880D00080D7200403020CBF
:1011D00050AB2C152CEB7003020C507582201208BA
:1011E0006680EE8A82120866020C50852982852A62
:1011F0008322AA82BA0A0810990280FB75990D1001
:10120000990280FB8A9922FCABF0AA83A982749E82
:10121000F582C2D1EC30E716D2D1E9F42401F9EA23
:10122000F43400FAEBF43400FBECF43400FC120765
:10123000A802075920F71430F6148883A88220F5F5
:1012400007E6A88375830022E280F7E49322E02278
:10125000C0E0F84582458345F07009F5F0FBFCFDE0
:10126000FE02131EE823A2F792E0F8A982AA83D215
:10127000F7ABF07C007E07C3749798404074FF2E54
:10128000FE740A89F0A4F985F082740A8AF0A4FA3F
:1012900085F083740A8BF0A4FB740529F9EA358282
:1012A000FAEB3583FB740035F0FCC3EC13FCEB1355
:1012B000FBEA13FAE913F908EC70EF80BAE8C3947B
:1012C0007FF88B838EF0E4FBFCFDFEFF08C3E9335F
:1012D000F9EA33FAE58333F583EB3BD4FBEC3CD4FA
:1012E000FCED3DD4FDEE3ED4FEEF3FD4FF602D0576
:1012F000F074052BD4FBE43CD4FCE43DD4FDE43E87
:10130000D4FEE43FD4FF758204C3EF13FFEE13FE57
:10131000ED13FDEC13FCEB13FBD582EDD8AF783465
:10132000D0E020E704762B8002762D087906E7C40A
:10133000540F4430F608B90603762E08E7540F44DC
:1013400030F60819B902E7764508E5F020E704769B
:101350002B8004762DF4040875F00A844430F608D6
:10136000E5F04430F608E4F690003475F0402220B1
:10137000F71030F6118883A88220F507F6A8837548
:10138000830022F280F7F022AA82AB83ACF07D00CA
:101390007E008A828B838CF0121234FFA3AA82AB68
:1013A00083EF60070DBD00EA0E80E78D828E8322F9
:00000001FF
