:1000000002000375817712013AE582600302006FF6
:10001000780079007A007B007C007D00EC4D601C4C
:1000200088828983E493A3A882A9838A828B83F040
:10003000A3AA82AB831CBCFFE31D80E07582007520
:1000400083007C247D00EC4D600AE4F0A31CBCFF1F
:10005000F51D80F27582007583007C007D00EC4DFB
:10006000600AE4F0A31CBCFFF51D80F212013912F6
:1000700005E080FE1B5B324A0041444320746573F7
:10008000742070726F6772616D0A46696C653A2000
:1000900025730A436F6D70696C65643A2025732C73
:1000A0002025730A0A0045464D385F4144432E63BC
:1000B000004D617220203720323032340031333A23
:1000C00030373A333300506572696F643A202566E1
:1000D0000D005065616B20566F6C74616765204F31
:1000E000746865723A2025660D005068617365205A
:1000F000646966666572656E636520696E206D73FE
:100100003A2025660D00506861736520646567724A
:100110006565733A2025660D0050686173653A2560
:100120002E326620646567005065723A252E30666F
:100130002056743A252E3266002275A7007597DE88
:100140007597AD75FF8075EF0675A71075C12075A1
:10015000A70075A90075A900E5A930E7FB75A903FB
:1001600075A903E5A930E7FB43A41075E10175E229
:100170000075E340759810758DE6858D8B53890F5A
:10018000438921D28ED2997582002275A700C2EFD1
:1001900075B28075BC2075B91E75E80075DF3F75B6
:1001A000B300D2EF22AA82438E407592B87593FFB6
:1001B0008592948593957591047B00C3EB9A500BBF
:1001C000E59130E7FB53917F0B80F075910022AAF7
:1001D00082AB837C007D00C3EC9AED9B502B7E00AC
:1001E000BE0400501D7582FAC002C003C004C005E1
:1001F000C0061201A5D006D005D004D003D0020E4F
:1002000080DE0CBC00D10D80CE22AA828511F005C3
:10021000F07401800225E0D5F0FBFB75A720BA0041
:1002200002800ABA0102800FBA021E8014EBF4FAAF
:1002300052F1EB42D48012EBF4FA52F2EB42D58049
:1002400008EBF4FA52F3EB42CC75A700228582BB8F
:10025000C2EDD2EC30EDFD85BD8285BE8322120257
:100260004D1209D1AA82AB83ACF0FDC002C003C01D
:1002700004C005906C8B75F0537440120A2AAA8250
:10028000AB83ACF0FDE58124FCF581E4C0E074FCB7
:10029000C0E0747FC0E07446C0E08A828B838CF03B
:1002A000ED120C76AA82AB83ACF0FDE58124FCF55F
:1002B000818A828B838CF0ED22C2EDD2EC30EDFD91
:1002C00085BD8285BE832275BB11C2EDD2EC30EDB7
:1002D000FD758A00758C001202B9E5828583F045B0
:1002E000F070F41202B9E5828583F045F060F4D233
:1002F0008C1202B9E5828583F045F070F4C28C85DA
:100300008C82120ACDAA82AB83ACF0FDC002C0037E
:10031000C004C00590000075F0807443120A2AAA38
:1003200082AB83ACF0FDE58124FCF581AE8A7F00D1
:100330008E828F83C002C003C004C005120C69AE58
:1003400082AF83A8F0F9D005D004D003D002C00654
:10035000C007C000C0018A828B838CF0ED120AD8DE
:10036000AA82AB83ACF0FDE58124FCF5818A828B07
:10037000838CF0ED2275BB11C2EDD2EC30EDFD7532
:100380008A00758C001202B9E5828583F045F07011
:10039000F41202B9E5828583F045F060F4D28C75E1
:1003A000BB121202B9E5828583F045F070F4C28C6D
:1003B000858C82120ACDAA82AB83ACF0FDC002C04C
:1003C00003C004C00590000075F0807443120A2A2F
:1003D000AA82AB83ACF0FDE58124FCF581AE8A7F77
:1003E000008E828F83C002C003C004C005120C6956
:1003F000AE82AF83A8F0F9D005D004D003D002C0FC
:1004000006C007C000C0018A828B838CF0ED120AFF
:10041000D8AA82AB83ACF0FDE58124FCF5818A8209
:100420008B838CF0ED22D2A07582281201A5C2A088
:1004300022AA828AE0A2E79290A2E69291A2E59295
:1004400092A2E49293C0021204267582281201A59A
:10045000D0028AE0A2E39290A2E29291A2E192926B
:10046000A2E09293020426AA82D2978A82120431D1
:100470009000020201CFAA82C2978A8212043190B0
:1004800000050201CFC2A09000141201CF75823383
:1004900012047675823312047675823212047675F0
:1004A000822812047675820C120476758201120479
:1004B000769000140201CFAA82AB83ACF07402B52F
:1004C00022047DC080027D808D82C002C003C004F2
:1004D0001204769000051201CFD004D003D0027D23
:1004E000007E00ED2AFFEE3BF88C018F8288838925
:1004F000F01209B5FF60208F82C002C003C004C0A3
:1005000005C006120467D006D005D004D003D0027F
:100510000DBD00CF0E80CC3000248D028E03C3EAC7
:100520009410EB648094805015758220C002C00343
:10053000120467D003D0020ABA00E30B80E02285E0
:10054000822585832685F027E4F528F529E52324EF
:10055000FFFFE52434FFF879007A00C3E99FEA64DD
:100560008088F063F08095F05059C002C007C00049
:10057000C001120B9DAB82D001D000D007D002BBCE
:100580000A028003BB0D1DE5282525FCE52935263B
:10059000FDAE278C828D838EF0E4120BB08528820D
:1005A00085298322E92525FCEA3526FDAE278C82A4
:1005B0008D838EF0EB120BB009B900010A89288AED
:1005C000298098E5282525FAE5293526FBAC278AD8
:1005D000828B838CF0E4120BB085238285248322E6
:1005E0001204859001F41201CF7474C0E07400C04D
:1005F000E07480C0E0120B4615811581158174BD31
:10060000C0E07400C0E07480C0E074B1C0E0740069
:10061000C0E07480C0E074A6C0E07400C0E07480E4
:10062000C0E07479C0E07400C0E07480C0E0120BD8
:1006300046E58124F4F58175110475820212020ADF
:1006400075110575820212020A12018BE4F52AF572
:100650002BC3E52A9464E52B6480948050EE12024B
:10066000C785822C85832D85F02EF52FC02CC02DBB
:10067000C02EC02F90800075F0BB7446120A2AA8C5
:1006800082A983AAF0FBE58124FCF5817440C0E0D7
:100690007454C0E07489C0E0744CC0E088828983DF
:1006A0008AF0EB120C7685822C85832D85F02EF551
:1006B0002FE58124FCF581751103E4F512852A826A
:1006C000852B83120B67AA82E583CA25E0CA33CA49
:1006D00025E0CA33FBEA2418F582EB3400F583E504
:1006E0002CF0A3E52DF0A3E52EF0A3E52FF0C02C10
:1006F000C02DC02EC02F74C6C0E07400C0E074804E
:10070000C0E0120B46E58124F9F5811202B9E582B9
:100710008583F045F070F41202B9E5828583F045D7
:10072000F060F4E4C0E0C0E074C0C0E07440C0E039
:10073000852C82852D83852EF0E52F120C76AA82DA
:10074000AB83A8F0F9E58124FCF5818A828B83884C
:10075000F0E9120C5E1201CFD2A175821212025E74
:1007600085823085833185F032F533C2A1C030C037
:1007700031C032C03374D2C0E07400C0E07480C0B5
:10078000E0120B46E58124F9F581751103E4F512B9
:10079000852A82852B83120B67AA82AB838A54EB4E
:1007A000C55425E0C55433C55425E0C55433F5552B
:1007B000E554240CF582E5553400F583E530F0A3CB
:1007C000E531F0A3E532F0A3E533F0120375A8821A
:1007D000A983ACF0FDC000C001C004C0059080003A
:1007E00075F03B7446120A2AAE82AF83AAF0FBE58D
:1007F0008124FCF5817440C0E07454C0E07489C069
:10080000E0744CC0E08E828F838AF0EB120C76A8E5
:1008100082A983ACF0FDE58124FCF581C004C0050C
:10082000C000C001C000C001C004C00574EAC0E03F
:100830007400C0E07480C0E0120B46E58124F9F535
:1008400081D001D000D005D004C000C001C004C0D8
:100850000590000075F0A07441120A2AAA82AB83A9
:10086000AEF0FFE58124FCF581C02CC02DC02EC068
:100870002F8A828B838EF0EF120C76A882A983AC2C
:10088000F0FDE58124FCF5817442C0E07460C0E0B5
:100890007465C0E074BDC0E0888289838CF0ED127D
:1008A0000C76AA82AB83ACF0FDE58124FCF581E4F3
:1008B000C0E0C0E07433C0E07443C0E08A828B8340
:1008C0008CF0ED120AD8AA82AB83ACF0FDE581244E
:1008D000FCF581C002C003C004C005C002C003C053
:1008E00004C0057406C0E07401C0E07480C0E0126A
:1008F0000B46E58124F9F581D005D004D003D00260
:10090000E5542400F582E5553400F583EAF0A3EBC5
:10091000F0A3ECF0A3EDF0C002C003C004C0057466
:1009200019C0E07401C0E07480C0E07434C0E074A9
:1009300000C0E07440C0E0120C18E58124F6F58197
:10094000E5542418F582E5553400F583E0FAA3E078
:10095000FBA3E0FCA3E0FDC030C031C032C033C017
:1009600002C003C004C0057428C0E07401C0E07474
:1009700080C0E07444C0E07400C0E07440C0E01285
:100980000C18E58124F2F581752201D20090003423
:1009900075F0401204B7752202D20090004475F041
:1009A000401204B79001F41201CF052AE4B52A02DF
:1009B000052B02065120F71430F6148883A88220F4
:1009C000F507E6A88375830022E280F7E49322E02E
:1009D00022E4AC83AB82FAF9748E020D9EE51145D8
:1009E0001260467A01E51125E0F511E51233401257
:1009F000F512E5829511E583951240030A80E6C35E
:100A0000E51213F512E51113F511C3E5829511F501
:100A1000F0E58395124005F58385F082C3E5121356
:100A2000F512E51113F511DAE122120E2ABC0003CA
:100A3000020DC9EF60FA30D502B2D1E583B4FF03ED
:100A4000020DDFE582B4FF03020DDF25834007249A
:100A500082400B020DC92483145003020DDFF5827E
:100A6000EA8DF0A4A8F0EA8EF0A428F8E435F0F9B5
:100A7000EB8DF0A428E935F0F9E433CA8FF0A4290E
:100A8000F9EA35F0FAEBF88EF0A429F9EA35F0FA34
:100A9000E433FBEC8DF0A429F9EA35F0FAE43BFBF2
:100AA000E88FF0A42AFAEB35F0FBE433CCFD8EF0AE
:100AB000A42AFAEB35F0FBE43CFCED8FF0A42BFB11
:100AC000EC35F0FC20E703120DF7020DA8E4AC8230
:100AD000FBFAF97486020D9E120E2A7900E583B5A1
:100AE0008202800D5003120E58E583C39582120EC8
:100AF00072E5D0C465D020E117EA2DFAEB3EFBEC9D
:100B00003FFC50097401120E72EC4480FC020DA8E7
:100B1000C3EA9DFAEB9EFBEC9FFC500FC3E499F9EE
:100B2000E49AFAE49BFBE49CFCB2D1120DF7020DAF
:100B3000A802184185826485836585F06685106703
:100B4000900B31021294C008858108E50824FBF55A
:100B500067E50824FBF88664088665088666900BBE
:100B600031121294D00822C2D5E58330E70DD2D5D8
:100B7000E4C39582F582E49583F583E51230E70BB3
:100B8000E4C39511F511E49512F5121209DD30D583
:100B90000BE4C39582F582E49583F58322109802D5
:100BA00080FBAA998A82C002121841D0028A82224E
:100BB00020F71030F6118883A88220F507F6A88365
:100BC00075830022F280F7F022AA82AB09AC0AAD4D
:100BD0000B8B828C838DF0EA120BB00509E4B5090A
:100BE00002050A2285820985830A85F00B850C643B
:100BF000850D65850E66850F67900BC9121294AA44
:100C000082AB83AC09AD0AAE0B8C828D838EF0E48F
:100C1000120BB08A828B8322C008858108E50824E4
:100C2000F8F567E50824FBF8860908860A08860BAC
:100C3000E50824F8F88664088665088666900BC97E
:100C4000121294AA82AB83AC09AD0AAE0B8C828DD2
:100C5000838EF0E4120BB08A828B83D008227F8EC1
:100C6000121858F58385F08222AC83AB827A007922
:100C700000748E021886120E2A30D502B2D1BF003F
:100C800009BC0003020DEC020DDFBC0003020DC91C
:100C9000E583B4FF0BE582B4FF03020DEC020DC93E
:100CA000E582B4FF03020DDFC395835007247F4024
:100CB0000B020DC92480145003020DDFC0E0E4CC08
:100CC000CBCAF98D118E128F13EF54F0C4F5147541
:100CD00083068514F0EB84F582E9C4F9EAC4FAEBE3
:100CE000C4FBEC540FC47803D6FC18EBD6FB18EA0F
:100CF000D6FA8582F0EDA4A8F0FD8582F0EEA42856
:100D0000FEE435F0F88582F0EFA428FFE435F0F832
:100D1000E99DF9EA9EFAEB9FFBEC98FCAD11AE124F
:100D2000AF1330E7101582E92DF9EA3EFAEB3FFBED
:100D3000E43CFC80EDC082D58398C3E933F9EA3303
:100D4000FAEB33FBEC33FCC3E99DEA9EEB9FEC949A
:100D500000B3E413F9D002D0E0C44AFAD003D0E0E3
:100D6000C44BFBD004D0E0F5F0540FC44CFCD0824F
:100D7000158230F40FD3EC13FCEB13FBEA13FAE902
:100D800013F90582E930E70A74012AFAE43BFBE42F
:100D90003CFC020DC0FCABF0AA83A982749EC2D1B8
:100DA000F582120DF7020DA8B98003EA13B34010C3
:100DB000EA2401FAE43BFBE43CFC50047C8005821D
:100DC000BC000EBB000BBA0008E4F5F0F583F58219
:100DD00022A2D1E582138CF092F78B838A8222E4DF
:100DE000F583F58275F080F4A2D11322E4F583F542
:100DF0008275F0C0747F227804EC7011E58224F8CB
:100E0000500AF582E4C9CACBFCD8EF22EC78200561
:100E10008220E713D5820122C3E933F9EA33FAEBE2
:100E200033FBEC33FCD8EA158222AA82AB83A2F70B
:100E30003392D16002D2F7F582ACF0E58124F9F863
:100E4000E6FD08E6FE0886F008E6A2F73392D560D4
:100E500002D2F7F583AFF022E582C583F582A2D1F5
:100E600033A2D592D11392D5ECCFFCEBCEFBEACDD9
:100E7000FA226040F82582500274FFF582E824F8D7
:100E8000501ECCCBCAF9E4CC24F85014CBCAF9E4F8
:100E9000CB24F8500BCAF9E4CA24F8500379002295
:100EA00024086010F8C3EC13FCEB13FBEA13FAE917
:100EB00013F9D8F122AA8274C6C0E0740EC0E0C053
:100EC00056C0578A8222055DE4B55D02055E22AAFE
:100ED0008274302AFA24C6500A74072AFA300103B1
:100EE0004302208A82020EB5E582FAC4540FF582CD
:100EF000C002120ECFD002740F5AF582020ECFAA92
:100F000058AB59AC5AAD5BAE5C756320EE2EFEED6E
:100F1000235401FF4206EA2AFAEB33FBEC33FCEDE3
:100F200033FDC3EE955F4008EEC3955FFE430201BB
:100F3000D563D98A588B598C5A8D5B8E5C22787414
:100F4000E624D075F00AA4FA7875E624D02AFA7857
:100F5000738603BB2D04C3E49AFA755F01C3E4648E
:100F6000808AF063F08095F050297563038A0374DA
:100F7000F62563401C055FE563142468F8E56324E7
:100F800068F98704A604772E1BEBFA6004056380DA
:100F9000DE8B02EA30E70D78698603786AA603786B
:100FA00069762E0AE561600AE56104FB255FF55F5D
:100FB0008005300C02055F78688603E4BB2D0104D0
:100FC000FB7006200703300802055F30050302109E
:100FD00085300657EB600C75822DC002120EB5D01D
:100FE00002801C30070C75822BC002120EB5D00295
:100FF000800D30080A758220C002120EB5D002782A
:10100000698604BC2E0C758230C002120EB5D00267
:101010001560AC601560C3E55F9C40030210C975A4
:101020008230C002120EB5D00280E7AC601560C3FA
:10103000E55F9C500C758220C002120EB5D0028074
:10104000EA78688604BC2D0C75822DC002120EB59C
:10105000D002801C30070C75822BC002120EB5D056
:1010600002800D30080A758220C002120EB5D0022F
:1010700078698604BC2E52758230C002120EB5D03B
:101080000215608044EB600E75822DC002120EB511
:10109000D0021560802030070E75822BC002120E20
:1010A000B5D0021560800F30080C758220C0021286
:1010B0000EB5D002156078698603BB2E0C758230A0
:1010C000C002120EB5D0021560756301C20EE56351
:1010D0002468F88603BB4503021186BB2E348A03BD
:1010E000C3E464808BF063F08095F0500F7582301C
:1010F000C003120EB5D0031B8B0280E48B02D20E0C
:10110000E5617038200C0302118675822E120EB52F
:101110008074300E278A03EB30E71FC3E4648085B8
:1011200061F063F08095F0500C758230C003120EB0
:10113000B5D00315610B8B0280DD8B02300E0EC320
:10114000E464808561F063F08095F05021E56324CC
:1011500068F886038B82C002120EB5D002300E0EE4
:10116000E5632468F88603BB2E02800215611560D2
:10117000C3E464808561F063F08095F04003200E45
:101180000505630210CEC3E464808561F063F080DE
:1011900095F0500A758230120EB5156180E8300561
:1011A0000FAA601560EA6008758220120EB580F102
:1011B00022E5617003300C0D74072561FAE560C308
:1011C0009AF5608006E56024FAF56075630078683A
:1011D0008602BA2B0F20070C786876202008057548
:1011E00063010560200519AA60C3E464808AF06386
:1011F000F08095F0500A758220120EB5156080E7D8
:10120000C20EE5632468F88602BA00028069BA4516
:101210001F3001027665C3E464808561F063F0806D
:1012200095F0500A758230120EB5156180E8D20E25
:10123000C3E5639402E433FA7014EA700EC3E46405
:10124000808561F063F08095F04003300E16E56311
:101250002468F886028A82120EB5E56324FD5012D6
:101260001561800E7402B56309300C0675822E126A
:101270000EB50563021202300519AA60C3E464804A
:101280008AF063F08095F0500A758220120EB51531
:101290006080E722858256858357E4F55DF55EAA76
:1012A00064AB65AC668A828B838CF01209B5FD74E1
:1012B000012AF564E43BF5658C66EDFA70030218CB
:1012C0003ABA25028003021832C205C206C207C21A
:1012D00008C209C20AC20BC20CC202C203C2047510
:1012E0005F007560007561FFAB64AC65AD668B82B5
:1012F0008C838DF01209B5FAA3AB82AC838B648C1E
:10130000658D66BA25078A82120EB580928A06BE5E
:101310003000402E8A06EE24C6402774FFB56113C4
:10132000E56075F00AA4FEEA24D02EF56070BFD205
:101330000680BBE56175F00AA4FEEA24D02EF561B3
:1013400080ACBA2E0A74FFB561A4756100809F8AD3
:1013500006BE6100400E8A06EE248540075302DF78
:10136000D2018002C201BA20028075BA230302139F
:10137000EFBA2A030213F4BA2B02805FBA2D02805F
:1013800055BA4202805FBA4303021439BA440302D9
:101390001574BA450302158EBA460302158ABA4778
:1013A00003021592BA4903021574BA4C02803BBA83
:1013B0004E03021596BA4F0302157BBA500302156D
:1013C0000DBA530302145DBA5503021580BA5803CF
:1013D0000215850215C0D2050212EED2070212EEE6
:1013E000D2080212EED20A0212EED20B0212EED292
:1013F0000C0212EE74FFB56120300A0BE56714F899
:10140000886786600212EEE56724FEF88867860624
:10141000088607188E600212EE300A0BE56714F892
:10142000886786610212EEE56724FEF88867860603
:10143000088607188E610212EE300A0AE56714F872
:1014400088678602800FE56724FEF88867860308B0
:101450008604188B028A82120EB50215C5E5672430
:10146000FDF88867860308860408860518188B58D7
:101470008C598D5A8B828C838DF01219C9AB82AC3A
:10148000838B6274FFB5610385626120051DC3E52E
:101490006295605016E560C39562F560AB601560BB
:1014A000EB6008758220120EB580F185588285594F
:1014B00083855AF01209B5FBFA6029AB611561C347
:1014C000E464808BF063F08095F050188A82120EED
:1014D000B5AB58AC59AD5A0BBB00010C8B588C59AD
:1014E0008D5A80C72005030215C5C3E5629560408B
:1014F000030215C5E560C39562F560AB601560EB4E
:1015000070030215C5758220120EB580EEE56724C2
:10151000FDF88867860308860408860518188B5826
:101520008C598D5AE55AFB30E7047A438013EB540B
:101530006060047A50800AEB30E6047A4980027ACF
:10154000588A82C002120EB575823A120EB57582A3
:1015500030120EB5758278120EB5D002BA490280EB
:101560000BBA50028006855982120EE88558821205
:101570000EE88051D209755F0A804A755F08804580
:10158000755F0A8040755F10803BD2028037D203BE
:101590008033D204802FE56724FDF888678603082E
:1015A000860408860518188B588C598D5A8B828CA6
:1015B000838DF0E55D120BB0A3E55E120BB08005E4
:1015C0008A82120EB5200206200303300470E567FC
:1015D00024FCF888678603088604088605088606C2
:1015E0001818188B588C598D5A8E5BE558E559E5BB
:1015F0005AE55B8B828C838DF0EE1218AA74FFB5CE
:101600006103756106300427747F555BFB8B5CE5D5
:101610005CEB2BFB8B5CE55A30E7067401455CF50F
:101620005CE55C246840067499255C4002D2033076
:1016300003061211B102129F120F3E02129FE55FC4
:10164000700302129F7B6D300A2BE56714F88867E0
:10165000E6FC3395E0FDFEFF8C588D598E5A8F5B6A
:1016600020095EAC587D007E007F008C588D598E1D
:101670005A8F5B804C300B1FE56724FCF888678627
:10168000040886050886060886071818188C588DE1
:10169000598E5A8F5B802AE56724FEF88867860496
:1016A00008860518ED3395E0FEFF8C588D598E5A4B
:1016B0008F5B20090CAC58AD597E007F008E5A8F8D
:1016C0005B300C43E5584559455A455B6039740811
:1016D000B55F0C758230C003120EB5D0038028743C
:1016E00010B55F23758230C003120EB5D0033001F0
:1016F0000C758278C003120EB5D003800A7582582B
:10170000C003120EB5D003300925AC58AD59AE5AFE
:10171000E55BFF30E717C3E49CFCE49DFDE49EFE1F
:10172000E49FFF8C588D598E5A8F5B8002C20975D9
:101730006200D20D8B00755C00C000120EFFD0005D
:10174000200D0DE55CC4FCE6FD4CF6188803800214
:10175000A65C0562B20DE5584559455A455B70D601
:101760008803E560700375600120061A200517E5FF
:101770006204FCC39560500E758220C003120EB542
:10178000D003156080E930090E75822DC003120E5A
:10179000B5D00315608024E562602030070E7582A5
:1017A0002BC003120EB5D0031560800F30080C75E6
:1017B0008220C003120EB5D003156020051EAC6058
:1017C0001560C3E5629C50273006047C3080027CA3
:1017D000208C82C003120EB5D00380E2C3E562956F
:1017E000605009E560C39562F56080037560008B09
:1017F00000AB621562EB6022B20D200D0A08E6C450
:10180000540FFB8B5C80078603740F5BF55C855C73
:1018100082C000120ECFD00080D720050302129F95
:10182000AB601560EB700302129F758220120EB53B
:1018300080EE8A82120EB502129F855D82855E83DC
:1018400022AA82BA0A0810990280FB75990D109994
:101850000280FB8A99227F9E1219F130D103020D7A
:10186000C9C3EF9582500974FFF5F0F583F5822224
:101870007900120E7289828A838BF0EC22FCABF025
:10188000AA83A982749EF582C2D1EC30E716D2D128
:10189000E9F42401F9EAF43400FAEBF43400FBEC47
:1018A000F43400FC120DF7020DA8C0E0F8458245A3
:1018B0008345F07009F5F0FBFCFDFE021978E82382
:1018C000A2F792E0F8A982AA83D2F7ABF07C007E5F
:1018D00007C3749798404074FF2EFE740A89F0A4E1
:1018E000F985F082740A8AF0A4FA85F083740A8B71
:1018F000F0A4FB740529F9EA3582FAEB3583FB7411
:101900000035F0FCC3EC13FCEB13FBEA13FAE9130C
:10191000F908EC70EF80BAE8C3947FF88B838EF0FF
:10192000E4FBFCFDFEFF08C3E933F9EA33FAE58383
:1019300033F583EB3BD4FBEC3CD4FCED3DD4FDEE26
:101940003ED4FEEF3FD4FF602D05F074052BD4FB91
:10195000E43CD4FCE43DD4FDE43ED4FEE43FD4FFBB
:10196000758204C3EF13FFEE13FEED13FDEC13FCC1
:10197000EB13FBD582EDD8AF7868D0E020E7047692
:101980002B8002762D087906E7C4540F4430F60800
:10199000B90603762E08E7540F4430F60819B90249
:1019A000E7764508E5F020E704762B8004762DF4F1
:1019B000040875F00A844430F608E5F04430F6086F
:1019C000E4F690006875F04022AA82AB83ACF07D0B
:1019D000007E008A828B838CF01209B5FFA3AA8255
:1019E000AB83EF60070DBD00EA0E80E78D828E832A
:1019F00022AA82AB83A2F73392D16002D2F7F5829A
:101A0000ACF0220000000000000000000000000018
:00000001FF
