:10000000020003758143120136E582600302006F2E
:10001000780079007A007B007C007D00EC4D601C4C
:1000200088828983E493A3A882A9838A828B83F040
:10003000A3AA82AB831CBCFFE31D80E07582007520
:1000400083007C007D00EC4D600AE4F0A31CBCFF43
:10005000F51D80F27582007583007C007D00EC4DFB
:10006000600AE4F0A31CBCFFF51D80F212013512FA
:10007000042280FE1B5B324A0041444320746573B6
:10008000742070726F6772616D0A46696C653A2000
:1000900025730A436F6D70696C65643A2025732C73
:1000A0002025730A0A0045464D385F4144432E63BC
:1000B000004D617220203720323032340030383A1F
:1000C00030383A323600506572696F643A202566DE
:1000D0000D005065616B20566F6C7461676520522E
:1000E00065666572656E63653A2025660D0050652C
:1000F000616B20566F6C74616765204F7468657220
:100100003A2025660D005068617365206469666653
:100110006572656E636520696E206D733A20256691
:100120000D00506861736520646567726565733A98
:100130002025660D002275A7007597DE7597AD75B1
:10014000FF8075EF0675A71075C12075A70075A90A
:100150000075A900E5A930E7FB75A90375A903E5BA
:10016000A930E7FB43A41075E10175E20075E34097
:10017000759810758DE6858D8B53890F438921D233
:100180008ED2997582002275A700C2EF75B2807574
:10019000BC2075B91E75E80075DF3F75B300D2EF5E
:1001A00022AA82438E407592B87593FF85929485FA
:1001B00093957591047B00C3EB9A500BE59130E762
:1001C000FB53917F0B80F075910022AA82AB837C58
:1001D000007D00C3EC9AED9B502B7E00BE040050C6
:1001E0001D7582FAC002C003C004C005C00612011A
:1001F000A1D006D005D004D003D0020E80DE0CBC06
:1002000000D10D80CE22AA82851AF005F0740180FB
:100210000225E0D5F0FBFB75A720BA0002800ABAE0
:100220000102800FBA021E8014EBF4FA52F1EB4285
:10023000D48012EBF4FA52F2EB42D58008EBF4FAD8
:1002400052F3EB42CC75A700228582BBC2EDD2EC03
:1002500030EDFD85BD8285BE832212024912079AC8
:10026000AA82AB83ACF0FDC002C003C004C00590FD
:100270006C8B75F05374401207B7AA82AB83ACF055
:10028000FDE58124FCF581E4C0E074FCC0E0747FEE
:10029000C0E07446C0E08A828B838CF0ED12090CBA
:1002A000AA82AB83ACF0FDE58124FCF5818A828BC8
:1002B000838CF0ED22C2EDD2EC30EDFD85BD828560
:1002C000BE832275BB11C2EDD2EC30EDFD758A0004
:1002D000758C001202B5E5828583F045F070F4124A
:1002E00002B5E5828583F045F060F4D28C1202B548
:1002F000E5828583F045F070F4C28C858C8212080B
:100300005AAA82AB83ACF0FDC002C003C004C00592
:1003100090000075F08074431207B7AA82AB83ACDB
:10032000F0FDE58124FCF581AE8A7F008E828F830B
:10033000C002C003C004C0051208FFAE82AF83A88C
:10034000F0F9D005D004D003D002C006C007C00029
:10035000C0018A828B838CF0ED120865AA82AB8380
:10036000ACF0FDE58124FCF5818A828B838CF0ED75
:100370002275BB11C2EDD2EC30EDFD758A00758C93
:10038000001202B5E5828583F045F070F41202B5E3
:10039000E5828583F045F060F4D28C75BB121202C1
:1003A000B5E5828583F045F070F4C28C858C8212AD
:1003B000085AAA82AB83ACF0FDC002C003C004C0DF
:1003C0000590000075F08074431207B7AA82AB83D2
:1003D000ACF0FDE58124FCF581AE8A7F008E828F32
:1003E00083C002C003C004C0051208FFAE82AF8301
:1003F000A8F0F9D005D004D003D002C006C007C0D1
:1004000000C0018A828B838CF0ED120865AA82AB52
:1004100083ACF0FDE58124FCF5818A828B838CF02E
:10042000ED229001F41201CB7474C0E07400C0E0BE
:100430007480C0E01208D315811581158174BDC088
:10044000E07400C0E07480C0E074B1C0E07400C02B
:10045000E07480C0E074A6C0E07400C0E07480C0A6
:10046000E07479C0E07400C0E07480C0E01208D38A
:10047000E58124F4F581751A04758202120206756D
:100480001A05758202120206120187758211120284
:100490005AAA82AB83ACF0FD8A098B0A8C0B8D0CB7
:1004A00075821212025AAA82AB83ACF0FD8A0D8BC0
:1004B0000E8C0F8D101202C385821185831285F078
:1004C00013F514C011C012C013C01490800075F051
:1004D000BB74461207B785821585831685F017F51C
:1004E00018E58124FCF5817440C0E07454C0E074C8
:1004F00089C0E0744CC0E08515828516838517F0AD
:10050000E51812090C85821185831285F013F51404
:10051000E58124FCF581C011C012C013C01474C65B
:10052000C0E07400C0E07480C0E01208D3E581240C
:10053000F9F58175821112025AAE82AF83AAF0FBDF
:10054000EE4F4A8BF0C2F745F070E8758211120247
:100550005AAA82AB83ACF0FDE4C0E0C0E07480C076
:10056000E0743FC0E08A828B838CF0ED1207A6AA6C
:1005700082E58124FCF581EA70D1C0E0C0E074809E
:10058000C0E07440C0E08511828512838513F0E5D8
:100590001412090CAA82AB83ACF0FDE58124FCF5B2
:1005A000818A828B838CF0ED1208F4AA82AB83C01F
:1005B00002C0031201CB75821112025AAC82AD83C4
:1005C000AEF0FFC004C005C006C00774D2C0E0741E
:1005D00000C0E07480C0E01208D3E58124F9F58101
:1005E000D003D002758212C002C00312025AAC823C
:1005F000AD83AEF0FFD003D002EC4D4E8FF0C2F7CA
:1006000045F070E0758212C002C00312025AAC823B
:10061000AD83AEF0FFE4C0E0C0E07480C0E0743FA2
:10062000C0E08C828D838EF0EF1207A6AC82E5814C
:1006300024FCF581D003D002EC70C98A828B83122E
:1006400001CB75821212025AAA82AB83ACF0FDC0B4
:1006500002C003C004C00574EEC0E07400C0E074C2
:1006600080C0E01208D3E58124F9F581120371AA54
:1006700082AB83ACF0FDC002C003C004C005908013
:100680000075F03B74461207B78582158583168581
:10069000F017F518E58124FCF5817440C0E074542E
:1006A000C0E07489C0E0744CC0E085158285168373
:1006B0008517F0E51812090CAA82AB83ACF0FDE5B2
:1006C0008124FCF581C002C003C004C005C002C083
:1006D00003C004C0057406C0E07401C0E07480C0AB
:1006E000E01208D3E58124F9F58190000075F0A0AF
:1006F00074411207B785821585831685F017F518A2
:10070000E58124FCF581C011C012C013C014851509
:10071000828516838517F0E51812090CAA82AB832F
:10072000ACF0FDE58124FCF5817442C0E07460C04A
:10073000E07465C0E074BDC0E08A828B838CF0ED0C
:1007400012090CAA82AB83ACF0FDE58124FCF58193
:10075000E4C0E0C0E07433C0E07443C0E08A828B40
:10076000838CF0ED120865AA82AB83ACF0FDE581C5
:1007700024FCF581C002C003C004C0057422C0E09F
:100780007401C0E07480C0E01208D3E58124F9F55B
:10079000819001F41201CB02048BE4AC83AB82FAAA
:1007A000F9748E020A34FFA8811818120A5C120A22
:1007B0003EE96401F58222120B09BC0003020AA87B
:1007C000EF60FA30D502B2D1E583B4FF03020ABE6E
:1007D000E582B4FF03020ABE258340072482400B52
:1007E000020AA82483145003020ABEF582EA8DF09F
:1007F000A4A8F0EA8EF0A428F8E435F0F9EB8DF027
:10080000A428E935F0F9E433CA8FF0A429F9EA35D0
:10081000F0FAEBF88EF0A429F9EA35F0FAE433FBAC
:10082000EC8DF0A429F9EA35F0FAE43BFBE88FF00F
:10083000A42AFAEB35F0FBE433CCFD8EF0A42AFABF
:10084000EB35F0FBE43CFCED8FF0A42BFBEC35F03A
:10085000FC20E703120AD6020A87E4AC82FBFAF90D
:100860007486020A34120B097900E583B58202808E
:100870000D5003120B37E583C39582120B51E5D05F
:10088000C465D020E117EA2DFAEB3EFBEC3FFC50AB
:10089000097401120B51EC4480FC020A87C3EA9DE3
:1008A000FAEB9EFBEC9FFC500FC3E499F9E49AFA33
:1008B000E49BFBE49CFCB2D1120AD6020A87021523
:1008C0002085823085833185F0328519339008BECA
:1008D000020F73C008858108E50824FBF533E5089D
:1008E00024FBF886300886310886329008BE120F45
:1008F00073D008227F8E121537F58385F08222ACE3
:1009000083AB827A007900748E021565120B093070
:10091000D502B2D1BF0009BC0003020ACB020ABE55
:10092000BC0003020AA8E583B4FF0BE582B4FF0311
:10093000020ACB020AA8E582B4FF03020ABEC395ED
:10094000835007247F400B020AA82480145003021E
:100950000ABEC0E0E4CCCBCAF98D1A8E1B8F1CEF07
:1009600054F0C4F51D758306851DF0EB84F582E90E
:10097000C4F9EAC4FAEBC4FBEC540FC47803D6FC08
:1009800018EBD6FB18EAD6FA8582F0EDA4A8F0FDA4
:100990008582F0EEA428FEE435F0F88582F0EFA41D
:1009A00028FFE435F0F8E99DF9EA9EFAEB9FFBECAD
:1009B00098FCAD1AAE1BAF1C30E7101582E92DF97B
:1009C000EA3EFAEB3FFBE43CFC80EDC082D5839825
:1009D000C3E933F9EA33FAEB33FBEC33FCC3E99DAB
:1009E000EA9EEB9FEC9400B3E413F9D002D0E0C48C
:1009F0004AFAD003D0E0C44BFBD004D0E0F5F05469
:100A00000FC44CFCD082158230F40FD3EC13FCEBF6
:100A100013FBEA13FAE913F90582E930E70A7401D6
:100A20002AFAE43BFBE43CFC020A9FFCABF0AA83FD
:100A3000A982749EC2D1F582120AD6020A87790170
:100A4000AA82E68F82B5821318E6B5F00E18E6B5D5
:100A5000830918E68A82B58202790022B4800FE504
:100A6000F0700AE5837006E58270027F00EFB680C1
:100A70001518B6001018B6000B18B60006080808BE
:100A800076002208080822B98003EA13B34010EA6E
:100A90002401FAE43BFBE43CFC50047C800582BC6E
:100AA000000EBB000BBA0008E4F5F0F583F58222D6
:100AB000A2D1E582138CF092F78B838A8222E4F52F
:100AC00083F58275F080F4A2D11322E4F583F582D8
:100AD00075F0C0747F227804EC7011E58224F85020
:100AE0000AF582E4C9CACBFCD8EF22EC7820058253
:100AF00020E713D5820122C3E933F9EA33FAEB3355
:100B0000FBEC33FCD8EA158222AA82AB83A2F7332E
:100B100092D16002D2F7F582ACF0E58124F9F8E6D3
:100B2000FD08E6FE0886F008E6A2F73392D56002DB
:100B3000D2F7F583AFF022E582C583F582A2D133E7
:100B4000A2D592D11392D5ECCFFCEBCEFBEACDFA35
:100B5000226040F82582500274FFF582E824F850A4
:100B60001ECCCBCAF9E4CC24F85014CBCAF9E4CBA0
:100B700024F8500BCAF9E4CA24F85003790022245F
:100B8000086010F8C3EC13FCEB13FBEA13FAE9134B
:100B9000F9D8F122AA8274A5C0E0740BC0E0C0228B
:100BA000C0238A82220529E4B52902052A22AA82C5
:100BB00074302AFA24C6500A74072AFA3000034314
:100BC00002208A82020B94E582FAC4540FF582C097
:100BD00002120BAED002740F5AF582020BAEAA2499
:100BE000AB25AC26AD27AE28752F20EE2EFEED23CB
:100BF0005401FF4206EA2AFAEB33FBEC33FCED33F7
:100C0000FDC3EE952B4008EEC3952BFE430201D5A4
:100C10002FD98A248B258C268D278E28227840E692
:100C200024D075F00AA4FA7841E624D02AFA783F55
:100C30008603BB2D04C3E49AFA752B01C3E46480D8
:100C40008AF063F08095F05029752F038A0374F6BB
:100C5000252F401C052BE52F142434F8E52F2434D0
:100C6000F98704A604772E1BEBFA6004052F80DEBB
:100C70008B02EA30E70D783586037836A60378359F
:100C8000762E0AE52D600AE52D04FB252BF52B8039
:100C900005300B02052B78348603E4BB2D0104FBE1
:100CA0007006200603300702052B300403020D6492
:100CB000300557EB600C75822DC002120B94D002E8
:100CC000801C30060C75822BC002120B94D002805F
:100CD0000D30070A758220C002120B94D0027835BD
:100CE0008604BC2E0C758230C002120B94D0021503
:100CF0002CAC2C152CC3E52B9C4003020DA875824F
:100D000030C002120B94D00280E7AC2C152CC3E546
:100D10002B9C500C758220C002120B94D00280EAEA
:100D200078348604BC2D0C75822DC002120B94D031
:100D300002801C30060C75822BC002120B94D0026C
:100D4000800D30070A758220C002120B94D0027801
:100D5000358604BC2E52758230C002120B94D0022C
:100D6000152C8044EB600E75822DC002120B94D0BE
:100D700002152C802030060E75822BC002120B94B7
:100D8000D002152C800F30070C758220C002120B88
:100D900094D002152C78358603BB2E0C758230C09A
:100DA00002120B94D002152C752F01C20DE52F24D1
:100DB00034F88603BB4503020E65BB2E348A03C399
:100DC000E464808BF063F08095F0500F758230C042
:100DD00003120B94D0031B8B0280E48B02D20DE52F
:100DE0002D7038200B03020E6575822E120B948035
:100DF00074300D278A03EB30E71FC3E46480852D30
:100E0000F063F08095F0500C758230C003120B94A3
:100E1000D003152D0B8B0280DD8B02300D0EC3E449
:100E20006480852DF063F08095F05021E52F243407
:100E3000F886038B82C002120B94D002300D0EE5AF
:100E40002F2434F88603BB2E028002152D152CC3E7
:100E5000E46480852DF063F08095F04003200D055B
:100E6000052F020DADC3E46480852DF063F08095FD
:100E7000F0500A758230120B94152D80E830040F63
:100E8000AA2C152CEA6008758220120B9480F1229E
:100E9000E52D7003300B0D7407252DFAE52CC39A50
:100EA000F52C8006E52C24FAF52C752F0078348675
:100EB00002BA2B0F20060C78347620200705752FF8
:100EC00001052C200419AA2CC3E464808AF063F085
:100ED0008095F0500A758220120B94152C80E7C281
:100EE0000DE52F2434F88602BA00028069BA451F46
:100EF0003000027665C3E46480852DF063F0809550
:100F0000F0500A758230120B94152D80E8D20DC373
:100F1000E52F9402E433FA7014EA700EC3E464809F
:100F2000852DF063F08095F04003300D16E52F24F9
:100F300034F886028A82120B94E52F24FD50121594
:100F40002D800E7402B52F09300B0675822E120B00
:100F500094052F020EE1300419AA2CC3E464808AA0
:100F6000F063F08095F0500A758220120B94152CD6
:100F700080E722858222858323E4F529F52AAA3099
:100F8000AB31AC328A828B838CF0121589FD7401EF
:100F90002AF530E43BF5318C32EDFA700302151975
:100FA000BA25028003021511C204C205C206C20797
:100FB000C208C209C20AC20BC201C202C203752B17
:100FC00000752C00752DFFAB30AC31AD328B828CAF
:100FD000838DF0121589FAA3AB82AC838B308C31F0
:100FE0008D32BA25078A82120B9480928A06BE300F
:100FF00000402E8A06EE24C6402774FFB52D13E567
:101000002C75F00AA4FEEA24D02EF52C70BFD20570
:1010100080BBE52D75F00AA4FEEA24D02EF52D80C4
:10102000ACBA2E0A74FFB52DA4752D00809F8A06D8
:10103000BE6100400E8A06EE248540075302DFD2CF
:10104000008002C200BA20028075BA23030210CECB
:10105000BA2A030210D3BA2B02805FBA2D02805540
:10106000BA4202805FBA4303021118BA4403021263
:1010700053BA450302126DBA4603021269BA470316
:10108000021271BA4903021253BA4C02803BBA4EA3
:1010900003021275BA4F0302125ABA50030211EC3E
:1010A000BA530302113CBA550302125FBA58030245
:1010B000126402129FD204020FCDD206020FCDD2CB
:1010C00007020FCDD209020FCDD20A020FCDD20BEB
:1010D000020FCD74FFB52D2030090BE53314F888CD
:1010E00033862C020FCDE53324FEF88833860608BC
:1010F0008607188E2C020FCD30090BE53314F888C3
:1011000033862D020FCDE53324FEF888338606089A
:101110008607188E2D020FCD30090AE53314F888A2
:10112000338602800FE53324FEF888338603088671
:1011300004188B028A82120B940212A4E53324FD58
:10114000F88833860308860408860518188B248CD3
:10115000258D268B828C838DF01216DDAB82AC83BD
:101160008B2E74FFB52D03852E2D20041DC3E52E77
:10117000952C5016E52CC3952EF52CAB2C152CEB8D
:101180006008758220120B9480F185248285258366
:101190008526F0121589FBFA6029AB2D152DC3E4C5
:1011A00064808BF063F08095F050188A82120B9463
:1011B000AB24AC25AD260BBB00010C8B248C258DFC
:1011C0002680C72004030212A4C3E52E952C4003F9
:1011D0000212A4E52CC3952EF52CAB2C152CEB702C
:1011E000030212A4758220120B9480EEE53324FDD5
:1011F000F88833860308860408860518188B248C23
:10120000258D26E526FB30E7047A438013EB5460F6
:1012100060047A50800AEB30E6047A4980027A58FA
:101220008A82C002120B9475823A120B9475823036
:10123000120B94758278120B94D002BA4902800B7B
:10124000BA50028006852582120BC7852482120BB4
:10125000C78051D208752B0A804A752B08804575C6
:101260002B0A8040752B10803BD2018037D2028040
:1012700033D203802FE53324FDF8883386030886B4
:101280000408860518188B248C258D268B828C8368
:101290008DF0E5291216C4A3E52A1216C480058A2A
:1012A00082120B94200106200203300370E53324E0
:1012B000FCF8883386030886040886050886061825
:1012C00018188B248C258D268E27E524E525E52608
:1012D000E5278B828C838DF0EE1215A574FFB52D5A
:1012E00003752D06300327747F5527FB8B28E528CF
:1012F000EB2BFB8B28E52630E70674014528F52803
:10130000E52824684006749925284002D20230025C
:1013100006120E90020F7E120C1D020F7EE52B703E
:1013200003020F7E7B3930092BE53314F88833E64E
:10133000FC3395E0FDFEFF8C248D258E268F272023
:10134000085EAC247D007E007F008C248D258E26D7
:101350008F27804C300A1FE53324FCF8883386043D
:101360000886050886060886071818188C248D2517
:101370008E268F27802AE53324FEF88833860408DA
:10138000860518ED3395E0FEFF8C248D258E268F83
:101390002720080CAC24AD257E007F008E268F27E9
:1013A000300B43E52445254526452760397408B5AB
:1013B0002B0C758230C003120B94D003802874105C
:1013C000B52B23758230C003120B94D00330000C70
:1013D000758278C003120B94D003800A758258C0BE
:1013E00003120B94D003300825AC24AD25AE26E5BE
:1013F00027FF30E717C3E49CFCE49DFDE49EFEE478
:101400009FFF8C248D258E268F278002C208752E83
:1014100000D20C8B00752800C000120BDED000201B
:101420000C0DE528C4FCE6FD4CF61888038002A6E6
:1014300028052EB20CE52445254526452770D6887B
:1014400003E52C7003752C0120051A200417E52EE6
:1014500004FCC3952C500E758220C003120B94D04F
:1014600003152C80E930080E75822DC003120B94F1
:10147000D003152C8024E52E602030060E75822BBB
:10148000C003120B94D003152C800F30070C75820B
:1014900020C003120B94D003152C20041EAC2C1575
:1014A0002CC3E52E9C50273005047C3080027C2024
:1014B0008C82C003120B94D00380E2C3E52E952CDE
:1014C0005009E52CC3952EF52C8003752C008B005C
:1014D000AB2E152EEB6022B20C200C0A08E6C45489
:1014E0000FFB8B2880078603740F5BF52885288205
:1014F000C000120BAED00080D7200403020F7EABD9
:101500002C152CEB7003020F7E758220120B948039
:10151000EE8A82120B94020F7E852982852A83220D
:10152000AA82BA0A0810990280FB75990D109902D7
:1015300080FB8A99227F9E12170530D103020AA8E8
:10154000C3EF9582500974FFF5F0F583F582227997
:1015500000120B5189828A838BF0EC22FCABF0AA3B
:1015600083A982749EF582C2D1EC30E716D2D1E90C
:10157000F42401F9EAF43400FAEBF43400FBECF45F
:101580003400FC120AD6020A8720F71430F61488B9
:1015900083A88220F507E6A88375830022E280F7FE
:1015A000E49322E022C0E0F84582458345F07009CB
:1015B000F5F0FBFCFDFE021673E823A2F792E0F8BB
:1015C000A982AA83D2F7ABF07C007E07C3749798F8
:1015D000404074FF2EFE740A89F0A4F985F08274ED
:1015E0000A8AF0A4FA85F083740A8BF0A4FB7405D0
:1015F00029F9EA3582FAEB3583FB740035F0FCC338
:10160000EC13FCEB13FBEA13FAE913F908EC70EFA7
:1016100080BAE8C3947FF88B838EF0E4FBFCFDFE78
:10162000FF08C3E933F9EA33FAE58333F583EB3B8B
:10163000D4FBEC3CD4FCED3DD4FDEE3ED4FEEF3FBC
:10164000D4FF602D05F074052BD4FBE43CD4FCE4FE
:101650003DD4FDE43ED4FEE43FD4FF758204C3EFE5
:1016600013FFEE13FEED13FDEC13FCEB13FBD58221
:10167000EDD8AF7834D0E020E704762B8002762DC9
:10168000087906E7C4540F4430F608B90603762EED
:1016900008E7540F4430F60819B902E7764508E523
:1016A000F020E704762B8004762DF4040875F00A08
:1016B000844430F608E5F04430F608E4F69000344F
:1016C00075F0402220F71030F6118883A88220F5AB
:1016D00007F6A88375830022F280F7F022AA82AB76
:1016E00083ACF07D007E008A828B838CF01215899A
:1016F000FFA3AA82AB83EF60070DBD00EA0E80E76F
:101700008D828E8322AA82AB83A2F73392D16002AC
:10171000D2F7F582ACF022000000000000000000CB
:00000001FF
