:0300000002018278
:0100030032CA
:03000B00020122CD
:0100130032BA
:01001B0032B2
:0100230032AA
:03002B0002014C83
:10002E00C000788500D8FDD00022C000C00179281C
:10003E007868D8FED9FADAF6D001D00022D294121E
:10004E00002EC29422A2E79283A2E69282A2E592A9
:10005E0081A2E4928012004B12002EA2E39283A2A0
:10006E00E29282A2E19281A2E0928012004B22D211
:10007E0093020053C293020053C294C0027A281214
:10008E000038D0027433120082743312008274323C
:10009E001200827428120082740C120082740112F3
:1000AE000082C0027A02120038D00222E493600667
:1000BE0012007DA380F62244404480020082C0E0FC
:1000CE00E8C4540F443012007DE8540F443012003F
:1000DE007DD0E02278783A78783A7878207878006F
:1000EE0078783A78783A78782058582058585800C6
:1000FE00414D00504D004F4E20004F464600438E5E
:10010E0008E58954F04401F589758CF0758A2CD276
:10011E00A9D28C22C28C758CF0758A2CD28CB29797
:10012E003275C80075CDDF75CC9443C98075CBDFB1
:10013E0075CA94E4F530F531439B80D2CA22C2CF02
:10014E00B284C0E0C0D00530E53070020531E53034
:10015E00B4F41CE531B40117D200B28CE4F530F5DD
:10016E0031E532309604240180022499D4F532D040
:10017E00D0D0E03275817F75B10075B20075B300D5
:10018E0075B40075AD0075AD0012010C12012FD2C1
:10019E00AF120087C0E07401141200C7D0E0C08314
:1001AE00C082C0E09000E21200BAD0E0D082D083CC
:1001BE00C0E07401141200C5D0E0D2007532007593
:1001CE003300753400753500753600753700753897
:1001DE0000753900753A02753B02753C0220851494
:1001EE00C0027A32120038D0022085083085FD0513
:1001FE003A02026A20B014C0027A32120038D002DB
:10020E0020B00830B0FD053B02026A209114C002F6
:10021E007A32120038D0022091083091FD053C024E
:10022E00026A209612C0027A32120038D00220964C
:10023E00063096FD0203BE209522C0027A321200CD
:10024E0038D0022095163095FD8000C2CAE4F530F4
:10025E00F531F532D2CA0201EB300081C200AC3268
:10026E00BC010A753200E5332401D4F533C0E074C5
:10027E0007141200C7D0E0C000A8321200CCD00084
:10028E00E533B4010A753300E5342401D4F534C0E6
:10029E00E07404141200C7D0E0C000A8331200CCE2
:1002AE00D000AC34BC1310753401AC35BC000575F0
:1002BE0035018003753500C0E07401141200C7D0FB
:1002CE00E0C000A8341200CCD000AC35BC001EC07B
:1002DE00E0740A141200C7D0E0C083C082C0E09060
:1002EE0001011200BAD0E0D082D083801EC0E0742B
:1002FE000A141200C7D0E0C083C082C0E09000FE96
:10030E001200BAD0E0D082D0838000AC3ABC060591
:10031E00753A00053BC0E07407141200C5D0E0C06A
:10032E0000A83A1200CCD000AC3BBC0605753B00D1
:10033E00053CC0E07404141200C5D0E0C000A83B18
:10034E001200CCD000AC3CBC1210753C00AC3DBCD5
:10035E000005753D018003753D00C0E07401141267
:10036E0000C5D0E0C000A83C1200CCD000AC3DBC13
:10037E00001FC0E0740A141200C5D0E0C083C08212
:10038E00C0E09001011200BAD0E0D082D083020109
:10039E00EBC0E0740A141200C5D0E0C083C082C066
:1003AE00E09000FE1200BAD0E0D082D0830201EBC2
:1003BE00208513C0027A32120038D0022085073011
:1003CE0085FD0534804420B013C0027AFF12003838
:1003DE00D00220B00730B0FD0533802E209113C01F
:1003EE00027A32120038D0022091073091FD053684
:1003FE008018209615C0027A32120038D00220964C
:10040E00093096FD8536320201EBAC36BC0603751B
:10041E003600C0E07407141200C7D0E0C000A83642
:10042E001200CCD000AC33BC0603753300C0E074B0
:10043E0004141200C7D0E0C000A8331200CCD000C4
:10044E00AC34BC0C10753400AC35BC0005753501F0
:10045E008003753500C0E07401141200C7D0E0C0EF
:10046E0000A8341200CCD000AC35BC001FC0E07424
:10047E000A141200C7D0E0C083C082C0E090010110
:10048E001200BAD0E0D082D0830203BEC0E0740A5C
:10049E00141200C7D0E0C083C082C0E09000FE12EC
:0B04AE0000BAD0E0D082D0830203BE71
:00000001FF
