:0300000002017C7E
:0100030032CA
:03000B0002011ED1
:0100130032BA
:01001B0032B2
:0100230032AA
:03002B0002014689
:10002E00C000788500D8FDD00022C000C00179281C
:10003E007868D8FED9FADAF6D001D00022D294121E
:10004E00002EC29422A2E79283A2E69282A2E592A9
:10005E0081A2E4928012004B12002EA2E39283A2A0
:10006E00E29282A2E19281A2E0928012004B22D211
:10007E0093020053C293020053C294C0027A281214
:10008E000038D0027433120082743312008274323C
:10009E001200827428120082740C120082740112F3
:1000AE000082C0027A02120038D00222E493600667
:1000BE0012007DA380F62244404480020082C0E0FC
:1000CE00E8C4540F443012007DE8540F443012003F
:1000DE007DD0E02278783A78783A7878207878006F
:1000EE0078783A78783A787820585800414D005010
:1000FE004D004F4E20004F464600438E08E5895472
:10010E00F04401F589758CF0758A2CD2A9D28C2217
:10011E00C28C758CF0758A2CD28C3275C80075CD58
:10012E00DF75CC9443C98075CBDF75CA94E4F53086
:10013E00F531439B80D2CA22C2CFB284C0E0C0D078
:10014E000530E53070020531E530B4F41CE531B40C
:10015E000117D200B28CE4F530F531E53230960459
:10016E00240180022499D4F532D0D0D0E0327581AA
:10017E007F75B10075B20075B30075B40075AD0032
:10018E0075AD00120108120129D2AF120087C0E02E
:10019E007401141200C7D0E0C083C082C0E090008A
:1001AE00E21200BAD0E0D082D083C0E07401141203
:1001BE0000C5D0E0C083C082C0E09000EE1200BA4D
:1001CE00D0E0D082D083D200753200753300753402
:1001DE0001753500753600753700753800753900B4
:1001EE00753A00753B00753C02753E00753F002068
:1001FE008519C0027A32120038D00220850D308562
:10020E00FDE53C2401D4F53C02029220B019C00257
:10021E007AC8120038D00220B00D30B0FDE53B2474
:10022E0001D4F53B020292209119C0027A321200DB
:10023E0038D00220910D3091FDE53A2401D4F53AE3
:10024E00020292209612C0027A32120038D0022098
:10025E0096063096FD020445209529C0027A321288
:10026E000038D00220951D3095FD02027BA83EB8C5
:10027E000005753E01800D753E008008300002803D
:10028E00030201FDC200AC32BC600A753200E533D8
:10029E002401D4F533C0E07407141200C7D0E0C0B7
:1002AE0000A8321200CCD000E533B4600A753300DA
:1002BE00E5342401D4F534C0E07404141200C7D020
:1002CE00E0C000A8331200CCD000AC34BC131075C3
:1002DE003401AC35BC00057535018003753500C0A1
:1002EE00E07401141200C7D0E0C000A8341200CC94
:1002FE00D000AC35BC001EC0E0740A141200C7D08A
:10030E00E0C083C082C0E09000FD1200BAD0E0D001
:10031E0082D083801EC0E0740A141200C7D0E0C0E1
:10032E0083C082C0E09000FA1200BAD0E0D082D032
:10033E00838000AC3ABC6005753A00053BC0E074A2
:10034E0007141200C5D0E0C000A83A1200CCD000AD
:10035E00AC3BBC6005753B00053CC0E07404141258
:10036E0000C5D0E0C000A83B1200CCD000AC3CBC15
:10037E001310753C01AC3DBC0005753D0180037545
:10038E003D00C0E07401141200C5D0E0C000A83CCE
:10039E001200CCD000AC3DBC001EC0E0740A14129A
:1003AE0000C5D0E0C083C082C0E09000FD1200BA4C
:1003BE00D0E0D082D083801CC0E0740A141200C535
:1003CE00D0E0C083C082C0E09000FA1200BAD0E044
:1003DE00D082D083C0E0740D141200C5D0E0A83EC8
:1003EE00B80018C083C082C0E09001041200BAD0D9
:1003FE00E0D082D083753F000201FDC083C082C071
:10040E00E09001001200BAD0E0D082D08302041E28
:10041E00A83AA93BAA3CAB34AC33AD32AE3DAF35B6
:10042E00EA9BB4000FE99CB4000AE89DB400057580
:10043E003F01B2970201FD208518C0027A321200E8
:10044E0038D00220850C3085FDE5342401D4F534F6
:10045E00804E20B018C0027AFF120038D00220B0B1
:10046E000C30B0FDE5332401D4F5338033209118E0
:10047E00C0027A32120038D00220910C3091FDE584
:10048E00362401D4F5368018209615C0027A321221
:10049E000038D0022096093096FD8536320201FDD5
:1004AE00AC36BC6003753600C0E07407141200C78A
:1004BE00D0E0C000A8361200CCD000AC33BC600334
:1004CE00753300C0E07404141200C7D0E0C000A859
:1004DE00331200CCD000AC34BC1210753401AC35E4
:1004EE00BC00057535018003753500C0E07401143C
:1004FE001200C7D0E0C000A8341200CCD000AC353A
:10050E00BC001FC0E0740A141200C7D0E0C083C044
:10051E0082C0E09000FD1200BAD0E0D082D08302FB
:10052E000445C0E0740A141200C7D0E0C083C08234
:10053E00C0E09000FA1200BAD0E0D082D08302045C
:01054E004567
:00000001FF
