:0300000002016A90
:0100030032CA
:03000B0002010AE5
:0100130032BA
:01001B0032B2
:0100230032AA
:03002B000201349B
:10002E00C000788500D8FDD00022C000C00179281C
:10003E007868D8FED9FADAF6D001D00022D294121E
:10004E00002EC29422A2E79283A2E69282A2E592A9
:10005E0081A2E4928012004B12002EA2E39283A2A0
:10006E00E29282A2E19281A2E0928012004B22D211
:10007E0093020053C293020053C294C0027A281214
:10008E000038D0027433120082743312008274323C
:10009E001200827428120082740C120082740112F3
:1000AE000082C0027A02120038D00222E493600667
:1000BE0012007DA380F62244404480020082C0E0FC
:1000CE00E8C4540F443012007DE8540F443012003F
:1000DE007DD0E02278783A78783A7878207878006F
:1000EE00414D00504D00438E08E58954F04401F512
:1000FE0089758CF0758A2CD2A9D28C22C28C758C03
:10010E00F0758A2CD28CB2973275C80075CD7E757B
:10011E00CC5043C98075CB7E75CA50E4F530F531AD
:10012E00439B80D2CA22C2CFB284C0E0C0D0053079
:10013E00E53070020531E530B4F41CE531B4011739
:10014E00D200B28CE4F530F531E53230960424015C
:10015E0080022499D4F532D0D0D0E03275817F75EB
:10016E00B10075B20075B30075B40075AD0075AD14
:10017E00001200F4120117D2AF120087C0E0740112
:10018E00141200C7D0E0C083C082C0E09000E2121B
:10019E0000BAD0E0D082D083D20075320075330021
:1001AE00753400753500208511C0027A3212003880
:1001BE00D0022085053085FD804E20B011C0027A18
:1001CE0032120038D00220B00530B0FD803A2091B6
:1001DE0011C0027A32120038D0022091053091FD02
:1001EE008026209611C0027A32120038D002209654
:1001FE00053096FD801220951CC0027A321200380E
:10020E00D0022095103095FDC2CAE4F530F531F5D7
:10021E0032D2CA800330008EC200AC32BC060575E5
:10022E0032000533C0E07407141200C7D0E0C000DE
:10023E00A8321200CCD000AC33BC020575330005D9
:10024E0034C0E07404141200C7D0E0C000A833120A
:10025E0000CCD000AC34BC0210753400AC35BC0000
:10026E00057535018003753500C0E0740114120068
:10027E00C7D0E0C000A8341200CCD000AC35BC0012
:10028E001FC0E0740A141200C7D0E0C083C082C041
:10029E00E09000F11200BAD0E0D082D0830201B417
:1002AE00C0E0740A141200C7D0E0C083C082C0E060
:0F02BE009000EE1200BAD0E0D082D0830201B4DB
:00000001FF
