:0300000002016496
:0100030032CA
:03000B00020104EB
:0100130032BA
:01001B0032B2
:0100230032AA
:03002B0002012EA1
:10002E00C000788500D8FDD00022C000C00179281C
:10003E007868D8FED9FADAF6D001D00022D294121E
:10004E00002EC29422A2E79283A2E69282A2E592A9
:10005E0081A2E4928012004B12002EA2E39283A2A0
:10006E00E29282A2E19281A2E0928012004B22D211
:10007E0093020053C293020053C294C0027A281214
:10008E000038D0027433120082743312008274323C
:10009E001200827428120082740C120082740112F3
:1000AE000082C0027A02120038D00222E493600667
:1000BE0012007DA380F62244404480020082C0E0FC
:1000CE00E8C4540F443012007DE8540F443012003F
:1000DE007DD0E02278783A78783A7878207878006F
:1000EE00438E08E58954F04401F589758CF0758AC4
:1000FE002CD2A9D28C22C28C758CF0758A2CD28C03
:10010E00B2973275C80075CDBF75CC2843C98075BE
:10011E00CBBF75CA28E4F530F531439B80D2CA2295
:10012E00C2CFB284C0E0C0D00530E53070020531D8
:10013E00E530B4F41CE531B40117D200B28CE4F50D
:10014E0030F531E532309604240180022499D4F53D
:10015E0032D0D0D0E03275817F75B10075B20075A6
:10016E00B30075B40075AD0075AD001200EE12014E
:10017E0011D2AF120087C0E07401141200C7D0E094
:10018E00C083C082C0E09000E21200BAD0E0D082FC
:10019E00D083D20075320020951CC0027A32120034
:1001AE0038D0022095103095FDC2CAE4F530F531F5
:1001BE00F532D2CA80033000DEC200C0E0740114F2
:1001CE001200C7D0E0C000A8321200CCD000C0E0B0
:1001DE007404141200C7D0E0C000A8321200CCD0B4
:1001EE0000C0E07407141200C7D0E0C000A832129D
:1001FE0000CCD000C0E0740A141200C7D0E0C000DA
:0A020E00A8321200CCD0000201A5B6
:00000001FF
