:0300000002016A90
:0100030032CA
:03000B0002010AE5
:0100130032BA
:01001B0032B2
:0100230032AA
:03002B000201349B
:10002E00C000788500D8FDD00022C000C00179281C
:10003E007868D8FED9FADAF6D001D00022D294121E
:10004E00002EC29422A2E79283A2E69282A2E592A9
:10005E0081A2E4928012004B12002EA2E39283A2A0
:10006E00E29282A2E19281A2E0928012004B22D211
:10007E0093020053C293020053C294C0027A281214
:10008E000038D0027433120082743312008274323C
:10009E001200827428120082740C120082740112F3
:1000AE000082C0027A02120038D00222E493600667
:1000BE0012007DA380F62244404480020082C0E0FC
:1000CE00E8C4540F443012007DE8540F443012003F
:1000DE007DD0E02278783A78783A7878207878006F
:1000EE00414D00504D00438E08E58954F04401F512
:1000FE0089758CF0758A2CD2A9D28C22C28C758C03
:10010E00F0758A2CD28CB2973275C80075CD7E757B
:10011E00CC5043C98075CB7E75CA50E4F530F531AD
:10012E00439B80D2CA22C2CFB284C0E0C0D0053079
:10013E00E53070020531E530B4F41CE531B4011739
:10014E00D200B28CE4F530F531E53230960424015C
:10015E0080022499D4F532D0D0D0E03275817F75EB
:10016E00B10075B20075B30075B40075AD0075AD14
:10017E00001200F4120117D2AF120087C0E0740112
:10018E00141200C7D0E0C083C082C0E09000E2121B
:10019E0000BAD0E0D082D083D20075320075330021
:1001AE007534007535007536007537007538007575
:1001BE003900208511C0027A32120038D002208513
:1001CE00053085FD804F20B011C0027A3212003802
:1001DE00D00220B00530B0FD803B209111C0027AD4
:1001EE0032120038D0022091053091FD80272096E2
:1001FE0012C0027A32120038D0022096063096FDD6
:10020E0002022320951CC0027A32120038D002203E
:10021E0095103095FDC2CAE4F530F531F532D2CAEB
:10022E00800330008DC200AC32BC0605753200056D
:10023E0033C0E07407141200C7D0E0C000A8321219
:10024E0000CCD000AC33BC02057533000534C0E0E1
:10025E007404141200C7D0E0C000A8331200CCD032
:10026E0000AC34BC0210753400AC35BC00057535DD
:10027E00018003753500C0E07401141200C7D0E090
:10028E00C000A8341200CCD000AC35BC001FC0E0BA
:10029E00740A141200C7D0E0C083C082C0E0900080
:1002AE00F11200BAD0E0D082D0830201C0C0E07457
:1002BE000A141200C7D0E0C083C082C0E09000EEE6
:1002CE001200BAD0E0D082D0830201C075364575D7
:1002DE003745753845AC36BC06057536000537C052
:1002EE00E07407141200C7D0E0C000A8361200CC8C
:1002FE00D000AC37BC02057537000538C0E0740479
:10030E00141200C7D0E0C000A8371200CCD000AC49
:10031E0038BC0210753800AC39BC00057539018047
:10032E0003753900C0E07401141200C7D0E0C0009C
:10033E00A8381200CCD000AC39BC001DC0E0740A45
:10034E00141200C7D0E0C083C082C0E09000F1124A
:10035E0000BAD0E0D082D08322C0E0740A1412001A
:10036E00C7D0E0C083C082C0E09000EE1200BAD0C9
:06037E00E0D082D08322D2
:00000001FF
